:020000040800F2
:1000000000400020354D0008DD3A00087D4D000815
:10001000D93A0008D53A0008D13A0008000000009B
:100020000000000000000000000000007D4D0008FE
:10003000CD3A0008000000007D4D00085D33000847
:100040007D4D00087D4D00087D4D00087D4D000868
:100050007D4D00087D4D000815330008053300086C
:10006000F5320008E5320008D53200087D4D000861
:100070007D4D00087D4D00087D4D00087D4D000838
:100080007D4D00087D4D00087D4D00087D4D000828
:100090007D4D00087D4D00087D4D0008A932000807
:1000A000000000007D4D00087D4D00087D4D0008DA
:1000B0007D4D00087D4D00087D4D00087D4D0008F8
:1000C0007D4D00087D4D00087D4D00087D4D0008E8
:1000D0007D4D0008512300087D4D00087D4D00082E
:1000E000713200081D2900087D4D00087D4D000873
:1000F0007D4D00080000000000000000000000002E
:1001000000000000000000000000000000000000EF
:1001100000000000000000000000000000000000DF
:1001200000000000000000000000000000000000CF
:1001300000000000000000005FF808F110B5054C59
:10014000237833B9044B13B10448AFF30080012383
:10015000237010BD5C04002000000000E859000876
:10016000084B10B51BB108480849AFF30080084898
:10017000036803B910BD074B002BFBD0BDE810404E
:10018000184700BF00000000E85900086004002084
:1001900058040020000000002DE9F0438DB0BB4B57
:1001A0001B78002B40F06A84B949CA6822F4E062E7
:1001B0001204120CB74B1343CB60002002F058FF1F
:1001C000B54A536A43F080535362536A03F0805335
:1001D0000293029BB1490B6823F4C05343F40063BC
:1001E0000B60936803F00C03042B08D0936803F0B2
:1001F0000C030C2B20D1936813F4803F1CD10223F5
:1002000093FAA3F3A44B1A68022393FAA3F3B3FA65
:1002100083F303F01F0322FA03F313F0010F40F0FE
:1002200097809D4A53684FF4F85191FAA1F123F455
:10023000F853536000F059BE012393FAA3F3B3FAC5
:1002400083F39B0003F1844303F58E0300221A60BD
:10025000934B1D68022190481C4603E023685B1BFA
:10026000022B75D891FAA1F3026891FAA1F3B3FABF
:1002700083F303F01F0322FA03F313F0010FEDD110
:1002800000F033BE844B5A6A42F080525A625B6A75
:1002900003F080530393039B0125804B1B6813F4E9
:1002A000807F40F02B867D4A136843F4807313608F
:1002B0007B4B1868194603E00B681B1A642B47D860
:1002C000136813F4807FF7D000F018BE3368DB1B8F
:1002D000A3423DD891FAA1F3426B91FAA1F3B3FA8C
:1002E00083F303F01F0322FA03F313F0010FEDD0A1
:1002F000002D00F01286684A536A23F0805353623F
:1003000000F00BBE4FF0807393FAA3F3B3FA83F3BC
:100310009B0003F1844303F58E0300221A60604BB7
:100320001D684FF000715C481C4603E023685B1BAE
:10033000022B0DD891FAA1F3026891FAA1F3B3FA56
:1003400083F303F01F0322FA03F313F0010FEDD13F
:10035000544B1B6813F0010F40F0E885514B1A68AD
:1003600042F004021A601A6842F001021A601B6827
:1003700013F0010F68D000F0D9BD474A936823F00D
:1003800003039360464B1C68184641F2883103E032
:1003900003681B1B8B4257D8936813F00C0FF7D1DF
:1003A000404B1B683C4B9A6822F4E0629A609A6862
:1003B00022F460529A609B6803F00C02082A40F015
:1003C000CF852DE04FF4701292FAA2F2B2FA82F2C7
:1003D00003F4701121FA02F23349895C4FF44002B0
:1003E00092FAA2F2B2FA82F203F44003D34001334C
:1003F000294A92682D4A02FB01F1B1FBF3F310E0A8
:10040000254B5A684FF4604393FAA3F3B3FA83F38E
:1004100002F46042DA4001324FF40043934000E0BE
:10042000224B1D4A9268F02191FAA1F1B1FA81F1B3
:1004300002F0F002CA401C490A44127BD3401C4A15
:100440001360002002F014FE134B5B6A13F0805F10
:100450000BD1114B5A6A42F080525A625B6A03F028
:1004600080530493049B012400E000240B4B1B6881
:1004700013F4807F40F07C85084A136843F480734E
:100480001360074B1868194618E000BF7804002075
:1004900000ED00E00003FA05003802400070004063
:1004A000C0060020003C02403C5800080024F40034
:1004B000180000200B681B1A642B40D8136813F433
:1004C000807FF7D000F054BD9548416B21F4403651
:1004D0004FF4000393FAA3F2B2FA82F2914D01278E
:1004E00045F8227093FAA3F3B3FA83F3002245F898
:1004F0002320466311F4807F00F041858A4B1F68FA
:100500004FF400711E4641F2883503E03368DB1B6F
:10051000AB4214D891FAA1F3426B91FAA1F3B3FA6A
:1005200083F303F01F0322FA03F313F0010FEDD05E
:1005300000F025BD7A4A536A23F0805353627B4B07
:100540001B687B4AA2FB03239B09013BB3F1807F1D
:1005500009D2784A5360F021774B83F823100023A7
:10056000936007231360734A136843F00403136016
:100570007149CA6822F4E0621204120C6F4B1343F3
:10058000CB604FF0FF3000210A4602F05FF86C4B61
:100590005B784BBB6A4D01266E700024284600F83C
:1005A000044B5F4B5A6942F480425A615A6922F403
:1005B00080425A611A6A42F480421A621B6A03F44A
:1005C00080430593059B0096072701970921022286
:1005D000234602F0AFFC0096019705F110000A21B6
:1005E0000222234602F0A6FC554B1B78FF2B00F09D
:1005F0002981544B544A1A604FF4E1325A600C225C
:100600005A6100229A60DA601A619A61DA6193F89D
:10061000393013F0FF0F04BF4A4B83F838204948A4
:10062000022380F83930484BDA6822F40052DA604D
:100630001A6922F44051C2680A431A61D9684469B0
:1006400002692243C56942EA050421F4164222F0F8
:100650000C022243DA605A6922F4407182690A432B
:100660005A61B5F5004F73D101F042FE00EB8000F6
:1006700000EB8000DFF8CC90D9F804305D00B0FBCF
:10068000F5F5324EA6FB05356D092D0101F030FE62
:1006900000EB800000EB8000D9F804305C00B0FB78
:1006A000F4F401F025FE00EB800000EB8000D9F8A7
:1006B00004305B00B0FBF3F3A6FB03235B094FF0B0
:1006C000640808FB1344E4003234A6FB0434240914
:1006D00004F4F87401F00CFE00EB800000EB8000E5
:1006E000D9F804305B00B0FBF3F701F001FE00EB3A
:1006F000800000EB8000D9F804305B00B0FBF3F31E
:10070000A6FB03235B0908FB1373DB003233A6FB54
:100710000323C3F342132B441C440B4B9C6072E035
:100720000038024080064742C00600201800002022
:10073000D34D621010E000E000ED00E00003FA0588
:100740006006002020060020003801401F85EB5184
:1007500001F0CEFD00EB800000EB8000DFF87C9222
:10076000D9F80440A400B0FBF4F49A4EA6FB04347C
:100770006409240101F0BCFD00EB800000EB800067
:10078000D9F804309B00B0FBF3F501F0B1FD00EBAC
:10079000800000EB8000D9F804309B00B0FBF3F33D
:1007A000A6FB03235B094FF0640808FB13531B01EE
:1007B0003233A6FB03235B0903F0F00501F098FD3B
:1007C00000EB800000EB8000D9F804309B00B0FB08
:1007D000F3F701F08DFD00EB800000EB8000D9F80D
:1007E00004309B00B0FBF3F3A6FB03235B0908FB7B
:1007F00013731B013233A6FB0323C3F343132B44B0
:100800002344754A9360754C23681A6922F4904218
:100810001A615A6922F02A025A61DA6842F40052D7
:10082000DA600022E263012584F83950252008218E
:1008300001F00CFF20226A4B5A60204669492A4683
:1008400001F0D4FC684B5B78002B40F0E9804FF45A
:10085000800393FAA3F3B3FA83F30121634A42F8C6
:100860002310634B634A1A6000225A600321996087
:10087000D9601A615A619A615B7F13F0FF0F04BF60
:100880005B4B1A775A48022343775A4BCA225A6263
:1008900053225A6203F094FE30B1554B1A68FF217F
:1008A000516204225A7726E0514A1368996821F46C
:1008B000E00121F04001996098685168084311698E
:1008C0000843516901439960D168196119699068B9
:1008D00041EA00411961D96821F08001D960196CA1
:1008E00021F480211964186C916901431964FF2176
:1008F0005962012353773E4B1B7F012B00F084800C
:100900003B4C0126267702236377002003F04AFE42
:100910000546304603F046FE06462368CA225A6260
:1009200053225A62204603F04BFE28B12268FF2171
:100930005162042262772CE32D48026846F440435A
:1009400043EA054343EA062323F07F4323F0C00331
:100950005360D36823F08003D36002F0E3FC30B12E
:10096000234B1A68FF21516204225A7711E3204B6E
:100970001A68FF21516201225A770AE31C4B1A6858
:10098000FF21516204225A7700221A773CE018486E
:1009900002682B0443EA05232B4303F07F3323F043
:1009A000FE43136003689A6822F480229A609A6872
:1009B0009A60DA6822F08002DA6002F0B3FCD8B103
:1009C0000B4B1A68FF21516204225A7700221A77D2
:1009D0001AE000BF1F85EB510038014020060020BF
:1009E00000E100E0980600207804002080064742DD
:1009F0009C06002000280040A04B1A68FF2151628D
:100A000001225A7700221A7729200421002201F0BE
:100A10001DFE4FF400729A4B5A600122994B5A7096
:100A200000240094019409A81C210322234602F00B
:100A300081FA0094019409A81D210322234602F0A3
:100A400079FA0094019409A81E210322234602F09A
:100A500071FA0094019409A81F210322234602F091
:100A600069FA894B5A6842F002025A605A6842F0A9
:100A700001025A605A6842F004025A60814B9B7826
:100A8000002B40F01C817F4B01229A707F485860F8
:100A90007F4A116A41F400711162126A02F4007215
:100AA0000692069A1A6D42F002021A65036813F064
:100AB000400F00F08D820246836823F001038360BB
:100AC000744B186819460DE00B681B1A022B09D9E4
:100AD0006C4B1A6D42F010021A655A6D42F0010219
:100AE0005A6504E0136813F0400FEDD170E2654CD5
:100AF000002584F84C500095019504F15800192107
:100B000003222B4602F016FAE5602561A5622563F3
:100B1000E5634FF02063A36325644FF48063A36112
:100B20000123E362E5612562236D6BB923465D65B0
:100B300083F84C50564B1A6A42F001021A621B6A43
:100B400003F001030793079B4E4B1B6D13F0100F2F
:100B500040F0B5804B4B1A6D22F4885222F002020D
:100B600042F002021A654C48426822F440319A6809
:100B70000A4342604FF4007090FAA0F0B0FA80F09F
:100B80009C6A022191FAA1F1B1FA81F19D691A6979
:100B900015435A6A15431A6C82402A4304FA01F13C
:100BA0000A43996B102902D0DB6B0B431A43354B78
:100BB0005B68196811F0400130D13248C5692A4399
:100BC000066AC56835434069B0F5807F04D00128C6
:100BD00014BF08464FF4807028432A49096B012945
:100BE00017D16CB94FF4604595FAA5F5B5FA85F5BE
:100BF00040F4006023494C6B013CAC40204308E0CA
:100C000020490C6D44F020040C654C6D44F0010447
:100C10004C655C682149214001435960986820492E
:100C200001401143996017494969B1F5807F01D0AE
:100C300001290FD1186B4FF0F87494FAA4F4B4FAA8
:100C400084F41049C96A0139A14020F0F8700143C9
:100C5000196303E0196B21F0F87119639968114B5E
:100C60000B409A4220D1074A00235365136D23F0AD
:100C7000030343F00103136521E000BF9C0600203D
:100C800000E100E078040020002004E0002401409E
:100C900000380240C006002000270140FF16FCFC7F
:100CA0008DF1FFC0FEFF80BFC24A136D23F0120317
:100CB00043F010031365536D43F00103536503F0D4
:100CC0004BFBBD4B5A6942F480525A615A6922F477
:100CD00080525A611A6A42F480521A621B6A03F403
:100CE00080530893089BB34CB44BC4F8B83002252A
:100CF00000950526019604F5887007212A460023F1
:100D000002F018F90095019604F58E7006212A4626
:100D1000002302F00FF90095019604F59470314616
:100D20002A46002302F006F901230093019604F5F8
:100D30009A704FF0FF312A46002302F0FBF84FF47F
:100D40000073C4F8D0300023C4F8C030C4F8C430F5
:100D5000C4F8C830C4F8CC30C4F8D830C4F8DC309B
:100D6000C4F8E0300723C4F8E4304FF48273C4F8C9
:100D7000BC30934B1A68934B9A4214D95208012302
:100D8000904903E001335208072B06D08A42F9D874
:100D900013F0040218BF202200E0202213F0020109
:100DA00018BF102102E00022134611460A4313F037
:100DB000010318BF08237F491343C1F8D43091F8C9
:100DC000093113F0FF0F02D1002281F80821794C7C
:100DD000022384F80931D4F8B820136823F04003C3
:100DE0001360D4F8B810D4F8C020D4F8BC301A433B
:100DF000D4F8C4301A43D4F8C8301A43D4F8CC30ED
:100E00001A43D4F8D4301A43D4F8D8301A43D4F85B
:100E1000E0301A43D4F8D03003F4007313430B606E
:100E2000D4F8B810B4F8D23003F00402D4F8DC30AF
:100E300013434B60D4F8B830D4F8E4201A6100258D
:100E4000C4F80C51012684F8096103F079FA009680
:100E5000019604F59A70102132462B4602F06AF88A
:100E60000095019609A8612132462B4602F062F8EE
:100E70000096019504F170000B212A462B4602F0E2
:100E800059F80096019504F17C0011212A462B4661
:100E900002F050F80096019504F1880003212A46DB
:100EA0002B4602F047F80096019504F1940060216A
:100EB0002A462B4602F03EF80096019504F1A00068
:100EC0002D212A462B4602F035F80096019504F1B3
:100ED000AC0014212A462B4602F02CF82378002B74
:100EE00040F0D68023461E70D2E0334B5B6A13F08D
:100EF000805F3FF4C7A90025FFF7CFB92E4A536B97
:100F000043F480735363304B1F684FF400711046F5
:100F10001E4641F28834FFF7DDB9274B9B6803F08A
:100F20000C030C2B7FF4EEA9FFF712BA224A936848
:100F300023F0F00393604FF4007393FAA3F3126865
:100F40004FF4007393FAA3F3B3FA83F303F01F0390
:100F500022FA03F313F0010F7FF40FAAFFF774BA1C
:100F60000C2A3FF42FAA042A7FF44AAAFFF758BAA2
:100F7000114B1A685B6B13F4003F7FF4A5AA0E4A6D
:100F8000536B43F480335363002C3FF4D8AAFFF72C
:100F9000D1BA0E48012303770223437703689A6886
:100FA000CA225A6253225A6203F00AFB00287FF4D5
:100FB000E5ACECE478040020003802400030014049
:100FC0001800002080969800C00600209C06002093
:100FD0006FF01F02304B1A6030494B685868304A36
:100FE00002405A6098682F4A02409A6000BFDA684F
:100FF000520D5205DA601A6902F040421A615A69CC
:1010000002F040425A619A6922F47F6222F00F0294
:101010009A61DA6922F47F6222F00F02DA611A6AB9
:1010200022F47F6222F00F021A625A6A22F47F626F
:1010300022F00F025A629A6A22F47F6222F00F02B3
:101040009A62DA6A22F47F6222F00F02DA62186B87
:10105000154A02401A635A6B02F040425A639A6B77
:1010600002F040429A63DA6B02F04042DA631A6C93
:1010700002F040421A645A6C920D92055A640B4A6F
:10108000536823F40003536000234B650B652EE582
:101090000DB0BDE8F08300BF0024014078040020BB
:1010A00000003CF88CF0808000800FFE002701409B
:1010B00030B40B4A002315461C4655F833108142C4
:1010C00002D89168884204D301330832152BF3D13A
:1010D000FEE7034B03EBC403187930BC704700BF35
:1010E00058580008014B93F8DC007047DC040020DE
:1010F00008B510B1012808D019E0112002F024FD34
:10110000C0F34700404280B213E00B4BD3F8E0201D
:101110000A4B9A4205D91B2002F016FD9D3880B279
:1011200007E01B2002F010FDA43880B201E04FF66A
:10113000FF7000B208BD00BFDC04002040DD4A1F84
:1011400008B50C4B93F8DD30012B12D11120FA2198
:1011500002F02CFD402002F0F7FC00F0FC014020E2
:1011600002F024FD0322034B83F8DC20072002F069
:1011700099FF08BDDC04002010B5114BC3F8E00056
:1011800004F0A4F80CA3D3E9002303F0A3FC03F0BC
:10119000B1FD04460620C4F3074102F007FD072015
:1011A000C4F3072102F002FD0820E1B202F0FEFCC8
:1011B00010BD00BFAFF300800000000080844E40EF
:1011C000DC04002008B5074802F03EFB064802F0A8
:1011D0003BFB012002F066FF0022044B83F8DC2079
:1011E00008BD00BF4408002058080020DC0400208F
:1011F00008B5074802F028FB064802F025FB00204E
:1012000002F050FF0022044B83F8DC2008BD00BF31
:101210004408002058080020DC04002070B5044673
:10122000B74B93F8DD3013B1012B2BD01BE1B44D3C
:1012300095F8FE60402002F087FC00F0030140209A
:1012400041F00C0102F0B2FC412002F07DFC60F0A4
:101250003E014120C9B202F0A9FC352002F074FC25
:1012600000F03F0085F816010D201E2102F09EFCC3
:10127000002385F8083185F80931A5F81431A5F85F
:101280001231F1E09E4B93F82D316BB1332002F017
:101290005BFC40F041013320C9B202F087FC3B20E7
:1012A000192102F083FC0DE0332002F04DFC00F028
:1012B000BE01332041F0010102F078FC3B201D21EA
:1012C00002F074FC8E4BD3F81C31082B00F29A808C
:1012D000312002F039FC00F07F01312002F066FC81
:1012E0003020002102F062FC854BD3F81C31082B22
:1012F00000F29180DFE803F005182B3E5164777C03
:1013000081002F20482102F051FC7D4BD3F8E000F2
:1013100003F0DCFF6EA3D3E9002303F09BFE03F090
:10132000E9FCFFF729FF76E02F20442102F03EFC84
:10133000734BD3F8E00003F0C9FF67A3D3E90023A0
:1013400003F088FE03F0D6FCFFF716FF63E02F20C2
:10135000442102F02BFC6A4BD3F8E00003F0B6FF07
:101360005FA3D3E9002303F075FE03F0C3FCFFF78E
:1013700003FF50E02F20442102F018FC604BD3F80B
:10138000E00003F0A3FF58A3D3E9002303F062FEBB
:1013900003F0B0FCFFF7F0FE3DE02F20442102F007
:1013A00005FC574BD3F8E00003F090FF50A3D3E9BE
:1013B000002303F04FFE03F09DFCFFF7DDFE2AE063
:1013C0002F20442102F0F2FB4D4BD3F8E00003F054
:1013D0007DFF49A3D3E9002303F03CFE03F08AFC20
:1013E000FFF7CAFE17E02F20402102F0DFFB12E0DA
:1013F0002F20402102F0DAFB0DE02F20402102F0E7
:10140000D5FB08E0312002F09FFB60F07F01312026
:10141000C9B202F0CBFB3A4B93F82E6193F82B3113
:1014200063B111201D2102F0C1FB402002F08CFBB2
:1014300000F03301402002F0B9FB0BE011201F2126
:1014400002F0B4FB402002F07FFB00F03F0140209F
:1014500002F0ACFB0F20002102F0A8FB0D200021C0
:1014600002F0A4FB00E00026264800214FF4807221
:1014700004F0C8F80122224B83F8DC2044B1224D4D
:10148000284602F0E1F92C606C60284602F0AAFAC6
:101490001B4B93F8DD3083B9052002F003FEA6B99B
:1014A000174BD3F80451194C204602F0CDF92560B2
:1014B0006560204602F096FA70BD1EB1052002F06C
:1014C000F1FD70BD062002F0EDFD70BDAFF30080B0
:1014D000000000000082BE4000000000005AC4402E
:1014E000000000000082CE40000000008057D44081
:1014F000000000008084DE4000000000C058E4408E
:10150000DC040020440700204408002030070020AD
:1015100030B583B005468DF80710704B93F8DD3079
:1015200013B1012B41D084E06C4B0022A3F81421AD
:101530009DF80710A3F8121193F8FA3033B910464A
:101540000DF10701012202F00BFB02E0322002F054
:101550002DFB9DF80720531EDBB23F2B03D85F4BBA
:1015600083F8172110E092B2501E80B242B16B1E78
:101570005B4A284413F8011F02F8011B8342F9D18A
:101580002022564B83F81721544C0020294694F80A
:10159000172102F0E5FA94F81721B4F81431134436
:1015A000A4F81431D4F8005144E04C4B93F82D3199
:1015B00063B1332002F0C8FA00F0BE01332002F01C
:1015C000F5FA3B20192102F0F1FA0DE0332002F088
:1015D000BBFA00F0BE01332041F0010102F0E6FA4F
:1015E0003B201D2102F0E2FA9DF807103B4B83F8E7
:1015F0003C11222002F0DAFA0E20002102F0D6FA85
:101600000D20002102F0D2FA012002F09DFA30F004
:10161000F80304D1FFF7D6FD012002F061FA0020A3
:1016200029469DF8072002F09BFA2C4BD3F8305145
:1016300000E000252B4C204602F006F9256065608D
:10164000264B93F8DD3013B1012B1BD039E040203D
:1016500002F07AFA00F00301402041F0100102F09C
:10166000A5FA412002F070FA00F03E01412002F09C
:101670009DFA352002F068FA00F03F00174B83F81E
:1016800016011EE0154B93F82B316BB11120F5219B
:1016900002F08CFA402002F057FA00F033014020AB
:1016A000014302F083FA0CE01120F72102F07EFAE8
:1016B000402002F049FA00F03F014020014302F0CF
:1016C00075FA0222054B83F8DC20064802F08AF9FD
:1016D000032002F0E7FC03B030BD00BFDC040020B3
:1016E00044070020580800202DE9F84F0D4610B19E
:1016F000012858D0F0E0824CB4F8F860272002F0BE
:1017000023FA20F0F8000130304403F0EFFD94F8A4
:10171000FA3013B900227B4B01E00022002303F0D2
:1017200099FC06460F46302002F00EFA30F0F9031D
:101730004FF000020CBF0023724B3046394603F0D5
:1017400089FC06460F46284603F0D0FD02460B46AC
:101750003046394603F07EFC694B93F8FC3013B9F0
:101760000022002302E000224FF0804303F072FCCD
:101770000022654B03F084F804460D46604BD3F815
:10178000F40003F0A3FD02460B462046294603F071
:10179000A1F900225D4B03F073F803F005FC03F0A0
:1017A000A9FABDE8F88F564BD3F81C31082B07D0A7
:1017B000092B09D0072B0BD149A7D7E9006709E00E
:1017C00049A7D7E9006705E049A7D7E9006701E025
:1017D00000260027DFF82881D8F820410120A0400A
:1017E00003F084FD02460B463046394603F072F999
:1017F00002460B460020434903F06CF982468B46B3
:10180000B8F8260103F072FD0022414B03F022FCE0
:1018100052465B4603F034F806460F46A300C3F178
:101820001C0398F82A0103EB001398F82821002ADA
:1018300014BF1420002003EBC505281A03F046FD51
:10184000804689462E4B93F82431002BCCBF0220D2
:101850000020201A800003F039FD02460B46404666
:10186000494603F037F903F08BFA04460D46244B42
:1018700093F82501043003F039FD02460B4620465B
:10188000294602F0FDFF04460D460022002303F026
:1018900011FE30B12046294600221B4B03F0DAFB33
:1018A00001E00020184952465B4602F0E9FF02467B
:1018B0000B463046394603F0CDFB0022134B02F0B5
:1018C000DFFF0DA3D3E9002303F0C4FB03F0E0FA2C
:1018D00003F010FABDE8F88F0020BDE8F88F00BFD4
:1018E000000000008084FE400000000080840E4163
:1018F0000000000080841E412B8716D9CEF7EF3FF1
:10190000DC0400200000F03F0000204000408F4039
:10191000000011402DE9F04F85B002908A460392F5
:101920001D460E9C9DF83C300093BDF840909DF8FC
:1019300044709DF848809DF84C3001939DF854B058
:1019400002F040FB092002F0FFF84D2002F0FCF805
:10195000BAF1110FC7BF40F00700C6B200F0F8009F
:1019600040F0040606F00703072B0BD1514605296A
:10197000B8BF05211429A8BF1421053961F00F0152
:10198000C9B20AE051460229B8BF02211129A8BFF5
:101990001121023961F00F01C9B2092002F006F9E4
:1019A0004D20314602F002F9029B13B1012B61D0A8
:1019B0000EE18D4B83F8E4A0039AC3F8E820C3F846
:1019C000EC50C3F8F440A3F8F89083F8FA7083F869
:1019D000FC8083F8FDB01699C3F80011104603F09F
:1019E00075FC7DA3D3E9002303F074F803F082F9BA
:1019F00085B20420290A02F0D9F80520E9B202F0E4
:101A0000D5F8204603F062FC02460B4674A1D1E9EA
:101A1000000103F05FF803F06DF984B20220210A9F
:101A200002F0C4F80320E1B202F0C0F825204FEA2A
:101A3000192102F0BBF826205FFA89F102F0B6F80E
:101A4000302002F081F800F06F00002F14BF002357
:101A5000802340EA081119433020C9B202F0A6F8E9
:101A6000312002F071F840F040013120C9B202F09B
:101A70009DF8ADE05C4B83F818A1022D00D9FEE77C
:101A80000735594BC3F81C51C3F820419DF800207D
:101A900083F82521A3F8269183F828719DF8042066
:101AA00083F82B219DF8502083F82C2183F82A817C
:101AB00083F82DB1169AC3F830210C2C7DD8052C53
:101AC0007ED9072D04D1A4F10B03012B0ED807E01A
:101AD000082D0BD10C2C09D102E00C2400E00C24C1
:101AE0000122414B83F8242104E0062400223E4BCE
:101AF00083F82421019B73B1442002F025F860F0A3
:101B00007F014420C9B202F051F82420364B93F8EB
:101B10002C1102F04BF81D2002F016F8009B47EA4A
:101B2000430747EA05111D20C9B202F03FF81E2005
:101B300002F00AF84FEA880141EA041100F00B00B4
:101B400001431E20C9B202F031F8262001F0FCFF4B
:101B500020F00800244B93F8241140EAC10126200C
:101B6000C9B202F023F820204FEA192102F01EF832
:101B700021205FFA89F102F019F8062C0ED13120EC
:101B800001F0E2FF00F0F801312041F0050102F020
:101B90000DF837200C2102F009F819E0312001F08E
:101BA000D3FF00F0F801312041F0030101F0FEFF06
:101BB00037200A2101F0FAFF0AE0072D04D18CE753
:101BC000072D92D0062483E7082D88D00C248DE7BA
:101BD00005B0BDE8F08F00BF0000000080844E40DB
:101BE0000000000080847E41DC04002070B58AB0D3
:101BF00006460C46104603F079FB00221E4B02F00D
:101C00003FFE03F077F805463046FFF7B5FA4FF48C
:101C100096530093002301930522029203930493A9
:101C20000593069307930895184621461A46FFF731
:101C300071FE312001F088FF00F0BF01312001F07A
:101C4000B5FF4020F02101F0B1FF4120A02101F0BB
:101C5000ADFF0A4C204601F0F7FD256065600222C9
:101C6000074B83F8DC20204601F0BCFE032002F085
:101C700019FA0AB070BD00BF00408F40580800201C
:101C8000DC0400202DE9F04F85B005460291144692
:101C90000393BDF83C70BDF8403000939DF844803C
:101CA0009DF848609DF84C909DF858B09DF85CA058
:101CB00002F088F91DB1012D00F0898066E1B84D70
:101CC000029BC5F8EC30C5F8F4400E9AC5F8F02038
:101CD00085F8FA8085F8FB6085F8FC9085F8FDB002
:101CE00085F8FEA0A5F8F870204603F0EFFA8246CA
:101CF0008B46009803F0FAFACDE900010020A949CB
:101D000052465B4602F0E6FE0022A74B02F0B8FD09
:101D100002460B46DDE9000102F0B2FD0022A34BB2
:101D200002F0AEFD02F0E6FFC5F804019AA1D1E988
:101D3000000152465B4602F0CDFE02F0DBFF84B2AA
:101D40000220210A01F032FF0320E1B201F02EFF50
:101D50000298FFF7ADF90146122001F027FF0E9817
:101D6000FFF7A6F90146132001F020FF2520390ACC
:101D700001F01CFF2620F9B201F018FFB8F1000FA6
:101D80000AD03220314601F011FF302001F0DCFE94
:101D900000F06F00002109E03220FF2101F006FF72
:101DA000302001F0D1FE00F06F008021014341EAB4
:101DB00009113020C9B201F0F9FE312001F0C4FE52
:101DC00040F040013120C9B201F0F0FEDEE0029B9C
:101DD000022B00D9FEE7029D0735714BC3F81C5159
:101DE000C3F820419DF80C2083F82521A3F8267123
:101DF00083F8288183F8296183F82A919DF850207F
:101E000083F82B219DF8542083F82C2183F82DB1E1
:101E100083F82EA10C2C00F2AC80052C40F2AC8093
:101E2000072D04D1A4F10B03012B0ED807E0082DD8
:101E30000BD10C2C09D102E00C2400E00C2401226F
:101E4000574B83F8242104E006240022544B83F8E6
:101E500024211D2001F078FE039B48EA430141EA5A
:101E600005111D20C9B201F0A1FE1E2001F06CFE7B
:101E7000009BC3F3012141EA890100F008000143FE
:101E800041EA04111E20C9B201F090FE262001F0A3
:101E90005BFE20F00800424B93F8241140EAC10198
:101EA0002620C9B201F082FE1F209DF8001001F02B
:101EB0007DFE2020390A01F079FE2120F9B201F0DF
:101EC00075FEB8F1000F03D02220314601F06EFEFE
:101ED000334B93F82B3173B1442001F035FE60F0A1
:101EE0007F014420C9B201F061FE24202C4B93F8FD
:101EF0002C1101F05BFE092D17D1294BD3F8E020FE
:101F00002B4B9A4208D93620022101F04FFE3A208D
:101F1000642101F04BFE0CE03620022101F046FE68
:101F20003A207F2101F042FE03E03620032101F038
:101F30003DFE062C0ED1312001F006FE00F0F80126
:101F4000312041F0050101F031FE37200C2101F074
:101F50002DFE1BE0312001F0F7FD00F0F8013120EB
:101F600041F0030101F022FE37200A2101F01EFE9C
:101F70000CE0072D05D15FE7072D3FF465AF062480
:101F800055E7082D3FF45AAF0C245EE705B0BDE8D5
:101F9000F08F00BFAFF300800000000080847E411E
:101FA000DC0400200000F03F0000204000408F4093
:101FB00040DD4A1FF8B5012002F004F81120FF218E
:101FC00001F0F4FD052002F06DF8002425460127FC
:101FD0002C26384601F084FD304601F0B5FD00F0B6
:101FE0000100A04005430134202CF2D1FFF700F995
:101FF0002846F8BD70B505460E46144601F0E2FFCE
:102000003046FFF7B9F8052002F04CF8012001F046
:1020100067FD2846FFF76CF80546FFF7E9F8A5428B
:10202000CCBF0020012070BD70B5092001F08CFDEF
:102030000646062001F088FD0446072001F084FDD5
:10204000000240EA0444082001F07EFD204303F032
:102050003DF91BA3D3E9002302F012FC02F04AFE73
:1020600005460920002101F0A1FD3B2001F06CFD97
:1020700040F040013B20C9B201F098FD3B242046CE
:1020800001F062FD10F0200FF9D10F48FFF774F84E
:102090003B2001F059FD40F040013B20C9B201F066
:1020A00085FD3B24204601F04FFD10F0200FF9D1B3
:1020B0000920314601F07AFD2846FFF75DF870BD32
:1020C0000000000080844E4000A1BC3338B52E4B88
:1020D00018602E4B00241C605C601C722C4ADA6075
:1020E0001C612C4B1C605C601C72DA601C612A4B0A
:1020F0001C605C601C72DA601C6102F035F8FFF74E
:1021000093FF204601F0CEFF244D254C28460121A7
:102110000322236800F086FE05F10C000121032252
:10212000636800F07FFE05F1180001210322A36817
:1021300000F078FE05F1240001210322E36800F09D
:1021400071FE05F1300001210322236900F06AFECF
:1021500005F13C0001210322636900F063FE114C8C
:1021600004F13005207801F02DFF6078A17801F0AE
:102170001DFD0334AC42F5D1002001F023FF002205
:10218000094B83F8DC2038BD1407002058080020D4
:10219000A94100084408002030070020E80400207E
:1021A000000000204C590008DC040020AFF3008040
:1021B0000120704738B504460D460268136843F0A5
:1021C0004003136002F0C8F82268936813F0020F0E
:1021D000FBD0EDB2D5602268936813F0010FFBD0FD
:1021E000D46802F0ADF8E0B238BD00BF90F83930E5
:1021F000DBB2012B01D0122B2CD100292CD0002ACC
:102200002CD090F83830012B2AD0012380F83830B8
:1022100081628285C2850023C36390F83930DBB2C6
:10222000122B0CBF3223222380F83930002380F890
:1022300038300168CA6842F48072CA6001684A692D
:1022400042F001024A610168CA6842F02002CA6095
:1022500018467047022070470120704701207047E0
:102260000220704782B01F4B9B6813F0F00F2AD1F9
:102270001C4B5B6A13F0805F04D01B4B1B6803F49C
:10228000C05311E0174A536A43F080535362536AB4
:1022900003F080530193019B134B1B6803F4C0535D
:1022A000516A21F080515162B3F5C05F0BD1B0F596
:1022B000404F14BF0020012030B10C4A136843F096
:1022C0000403136000E00020084A136823F00103B0
:1022D00003431360136803F00103C01A18BF012001
:1022E00002B070470038024000700040003C0240DD
:1022F000084B9B684FF4605292FAA2F2B2FA82F253
:1023000003F46053D340044AD35C044A1068D840B5
:10231000704700BF0038024008590008180000202C
:10232000084B9B684FF4E06292FAA2F2B2FA82F292
:1023300003F4E063D340044AD35C044A1068D840F5
:10234000704700BF003802400859000818000020FC
:1023500010B582B0714B1B681A68D96812F0010F72
:1023600007D011F4807F04D06C49CA6B42F001029F
:10237000CA6319685A6902F0010211F0020F0CD009
:10238000002A00F053816549CA6B42F00402CA6317
:102390001A6812F0040F07D14DE1196811F0040F0B
:1023A0000CD0002A00F045815C49CA6B42F0020261
:1023B000CA631A6812F0080F05D109E0196811F014
:1023C000080F05D022B15549CA6B42F00802CA6312
:1023D0001A68D96812F0200F79D011F0200F76D04A
:1023E0004E4A92F8392002F0EF02222A6FD14B4A6E
:1023F0009268B2F5805F14D1484A916A126942B975
:102400005B68C3F308030B80444A936A0233936208
:1024100019E05B68DBB20B80404A936A0133936238
:1024200011E03E4A126932B93C498A6A501C8862FE
:102430005B68137007E039498A6A501C88625B68E0
:1024400003F07F031370354AD38D013B9BB2D385D4
:10245000002B3CD111461368DA6822F02002DA60C2
:1024600091F83920D2B2322A03D1122281F83920D0
:102470000BE0DA6822F48072DA605A6922F0010215
:102480005A610122254B83F839202449B1F86A307A
:102490000133B1F8700093FBF0F200FB12339AB2F3
:1024A000B1F86810914207D01C4991F87800A1F862
:1024B0006A201346CA6ED054184B5B6F0BB10120D3
:1024C00098471649084678310122FFF78FFE134BD3
:1024D0001B681A68D96812F0800F36D011F0800F8F
:1024E00033D00E4A92F8392002F0DF02122A2CD1A2
:1024F0000A4A9268B2F5805F12D108490A6A1288C6
:10250000C2F308025A600B691BB90B6A02330B62F3
:102510000CE0024A136A0133136207E02006002030
:1025200049490A6A501C086212785A60464AD38C9C
:10253000013B9BB2D38443B91368DA6822F080026E
:10254000DA60DA6842F04002DA603F4B1B681A68D2
:10255000D96812F0400F57D011F0400F54D0DA680C
:1025600022F04002DA60384A92F83920D2B2322A98
:102570000CBF22210121344A82F839103249B1F8C6
:102580005C20B1F85E10914239D001322E49B1F889
:10259000644092FBF4F004FB102290B20C6E205CBD
:1025A000A1F85C2081F8790091F83920D2B2012A93
:1025B00001D0222A23D1244A92F83820012A1ED0A1
:1025C000214A012182F8381002F1790010629184C9
:1025D000D1840021D16392F83920D2B2222A07BFD8
:1025E0003221A0F179021221174A82F83910002114
:1025F000154A82F83810DA6842F08002DA60124B2D
:102600005B6F0BB1002098470F4BDB6BCBB10E49D2
:102610000B681A6801925B680193019B012281F8A3
:10262000392008467831FFF7E1FD0AE01A681A6898
:10263000CEE61A68CCE61A6812F0080F7FF4C3AE33
:10264000C6E602B010BD00BF2006002070B4154BD6
:10265000DB68C3F30223C3F10705042D28BF04255B
:102660001C1D062C8CBF033B0023012404FA03F637
:10267000013E3240AC40013C2140994011430028CA
:1026800006DA00F00F000901C9B2074B195407E040
:102690000901C9B200F1604000F5614080F8001303
:1026A00070BC704700ED00E014ED00E02DE9F04F44
:1026B00083B004462A4FFE6F3068C0F3062A00F04C
:1026C0007F0900F480052D0CEDB2C0F3054001F048
:1026D0005FFF8046504601F05BFF0090484601F0E6
:1026E00057FF01907068C0F3042900F03F0BC0F35E
:1026F000423AC0F3074001F04BFF0646484601F05E
:1027000047FF8146584601F043FFB7F89C30632EDF
:1027100003D1012187F89E1003E0114A92F89E2010
:1027200052B1F218934207D10D4A002182F89E104F
:1027300003F16401A2F89C10238084F802A084F8BD
:1027400003902071667184F808809DF800306372F0
:102750009DF80430A372E572204603B0BDE8F08F07
:10276000200600202DE9F04F89B098B903A8FFF7A3
:102770009DFFBDF80C509DF80FB09DF810300093F0
:102780009DF811A09DF814909DF815809DF81630C5
:1027900001930CE0058890F803B00279009290F85C
:1027A00005A090F8089090F80980837A01931AEBBD
:1027B00005051BD00024002600273046394614B1F9
:1027C00014F0030F05D13CA3D3E9002302F042FC2F
:1027D00004E03BA3D3E9002302F03CFC0134A4B2A3
:1027E00023B2AB42EBDB06460F4601E00026002792
:1027F000BAF1000F07D015F0030F04D00BF1FF352D
:10280000002D1EDC36E00BF1FF35002D32DD0023FC
:102810001C46DFF8BCB0DFF8B0A05B44187A0AFBB6
:1028200000F002F053FD02460B463046394602F0F6
:1028300011FC06460F460134E4B22346AC42ECDB01
:1028400018E000231C46DFF888B0DFF87CA05B446A
:10285000187D0AFB00F002F039FD02460B463046B7
:10286000394602F0F7FB06460F460134E4B2234630
:10287000AC42ECDBC8EB08184FEA88084FF4616003
:1028800000FB0989019B99440F48009B00FB0390C2
:1028900002F01CFD32463B4602F0DCFB00220B4BF3
:1028A00001F0EEFF02F080FB02F024FA09B0BDE86F
:1028B000F08F00BFAFF300800000000050287E4181
:1028C0000000000038137E41805101000040DF3FCE
:1028D0000859000808B50E4B5B6813F0010F05D0CE
:1028E0000B4A136843F00403136003E00122094B11
:1028F00083F89F20084B9B6803F00C03042B04D043
:10290000054B9B6813F00C0F01D1FDF745FC08BD8A
:10291000007000402006002000380240F0B587B06B
:10292000624BDA6F936813F4805F08D0D36813F4B6
:10293000807F04D0D368DBB263F4C073D360936844
:1029400013F4005F08D0D36813F4007F04D0D36879
:10295000DBB263F42073D3604FF40031544B596100
:10296000524B012183F8991093F898308B4232D062
:102970004E4B83F89810022183F89910CA215162B6
:1029800053215162916821F480719160916821F422
:1029900080519160D3F8A00019460FE0D1F8A03023
:1029A0001B1AB3F57A7F09D9FF2353623F4B0322E9
:1029B00083F89920002283F898200CE0D36813F064
:1029C000010FEBD0FF235362384B012283F899208B
:1029D000002283F89820FFF77DFF344B93F8A43052
:1029E000BBBB01A8FFF762FE304DEB6FDF69C7F399
:1029F000054001F0CDFD0646C7F3062001F0C8FDF5
:102A0000044607F07F0001F0C3FD9DF80E209DF8FD
:102A10000D30C3EB031302EB83039DF80C204FF43E
:102A2000616101FB0233C4EB041400EB840001FB81
:102A30000600181A02F04AFC00221E4B01F020FF8B
:102A400002F09EF902F056F9C5F8A800012385F8B6
:102A5000A430164B002283F8AC20D3F8B0301BB35F
:102A600000F0E0FE114BD3F8B0301A6890422CBF52
:102A70000022121A1A6000221A720C4C05E0036937
:102A8000C4F8B030C36803B19847D4F8B00058B167
:102A90000368002BF3D004E00123037200F0A0FCD4
:102AA00002E0037A002BF7D007B0F0BD200600202B
:102AB000000401400040DF3F027842F30313DBB221
:102AC000062B0DD852B2B2F1FF3F07D043681B6905
:102AD00042881A4214BF012000207047002070472E
:102AE000704700BF027842F30313DBB2062B0CD809
:102AF00052B2B2F1FF3F08D04268438811F0FF0F95
:102B000001D0936170471B0493617047AFF300805D
:102B1000F0B583B004461F46089D561E2B0904D10C
:102B2000002E0ADC034600260DE0009332463B46A9
:102B3000FFF7EEFF0646231805E0531E034404F892
:102B4000011B9C42FBD105F00F02092A03D8154650
:102B500030351D7009E027B105F00F0537351D70C0
:102B600003E005F00F0557351D70701C03B0F0BD74
:102B700070B50446002B04DA5D42561E092D05D8B7
:102B80002EE01D46013A092B09D824E01D4BA3FB7A
:102B90000523DB0832465B42FFF7EAFF06E01948EF
:102BA000A0FB03032046DB08FFF7E2FF04441DE01F
:102BB0001046264606F8011B01380028FADC013AC7
:102BC00022EAE272501C0444002B0FDA2D2304F891
:102BD000013B01300AE0002AD8BF002006DDE7E70C
:102BE000023A002AD8BF0020F0DDE1E7054BA3FB45
:102BF0000523DB0803EB8303A5EB4303303323708A
:102C0000013070BDCDCCCCCC70B504461D46561EEF
:102C1000092B03D8002E0BDC00260FE00D4BA3FB85
:102C200005233246DB08FFF7EFFF0646201805E0D4
:102C3000501E204404F8011B8442FBD1054BA3FB2A
:102C40000523DB0803EB8303A5EB43033033037059
:102C5000701C70BDCDCCCCCC2DE9F04F85B00646B4
:102C60000578002D00F0BC806B4BD3F800E06B4B77
:102C70001B680027694C4FF0010CB846CDF804C022
:102C8000674A4FF02209AA46DEF80800814204D0C4
:102C9000DEF80C00814240F0A6808DF80F5094F8C9
:102CA0003900C0B2012802D0222840F08F8094F869
:102CB0003800012800F08A8084F838C0C4F83C80CD
:102CC00094F83900C0B222280CBF3220122084F8B8
:102CD0003900A4F824C00DF10F0501980138E084F3
:102CE000A068B0F5805F25D1D2F800B019E0106877
:102CF000CBEB0000FF2814D9D86820F08000D86002
:102D0000D86820F02000D860D86820F48070D8609F
:102D1000586920F00100586184F839C084F838807F
:102D200054E0186810F0800FE1D05FE0023523E036
:102D3000013521E0D2F800B019E01068CBEB0000BB
:102D4000FF2814D9D86820F08000D860D86820F017
:102D50002000D860D86820F48070D860586920F0CE
:102D60000100586184F839C084F838802EE0186872
:102D700010F0800FE1D041E0E08C0028AED1156862
:102D800018E01068401BFF2814D9D86820F0800094
:102D9000D860D86820F02000D860D86820F480700F
:102DA000D860586920F00100586184F839C084F86F
:102DB00038800BE0186810F0400FE2D022E084F871
:102DC000399001E084F839C084F83880BAF1FF3FC7
:102DD0001ED0013716F8015F002D7FF454AF00E0DC
:102DE0000027384615E04FF0FF3012E02888C0F386
:102DF000080058602069002898D099E72878586022
:102E00000135B9E794F83900C0B23228DAD1D6E7F3
:102E1000504605B0BDE8F08F480400202006002091
:102E2000C006002070B586B090F90040C4F30714C6
:102E3000062C73D8002B71D044880194012902D14B
:102E40003749029104E002290CBF36493649029104
:102E50001E4615460446837A039302230493406872
:102E600001A901F0C3FA032D07D8DFE805F008082F
:102E70000204022104E0012102E0002100E003211C
:102E80006288B2F5807F31D010D8102A2CD006D8B5
:102E9000042A25D0082A25D0022A2BD11EE0402A58
:102EA00024D0802A22D0202A24D11FE0B2F5805FCE
:102EB0001ED009D8B2F5806F1AD0B2F5006F17D0C6
:102EC000B2F5007F16D111E0B2F5804F10D0B2F507
:102ED000004F0DD0B2F5005F0CD109E007250AE0E4
:102EE000082508E0092506E00A2504E0172502E088
:102EF000282500E00625237803F00F030B4A42F84B
:102F000023606CB220460022FFF7A0FB640905F0A5
:102F10001F050123AB40064A42F8243006B070BDBD
:102F2000000011100000211000003110D406002014
:102F300000E100E070B58AB09DF83850C1F3071485
:102F4000062C00F288800170B1F1FF3F00F0838011
:102F500001F00F060124B440448011F0F0010DD1BE
:102F60003E49416001F56051CC6944F00104CC61F7
:102F7000C96901F00101049104993CE010290DD1C7
:102F80003749416001F55051CC6944F00204CC61ED
:102F9000C96901F00201039103992CE020290DD1A8
:102FA0003049416001F54051CC6944F00404CC61E2
:102FB000C96901F00401029102991CE030290DD188
:102FC0002949416001F53051CC6944F00804CC61D5
:102FD000C96901F00801019101990CE023494160A0
:102FE00001F51051CC6944F02004CC61C96901F0AD
:102FF000200100910099418805918572079502246E
:10300000089412B90023069321E0032A02D1032376
:1030100006931CE0022A07D1012B0CBF12230223C6
:1030200006930F9B099312E0012B0CBF1123012380
:103030000693012A0BD190F90030B3F1FF3F06D07F
:1030400043680F9A12F0FF0F08BF090499614068A6
:1030500005A901F0CBF90AB070BD00BF0000024025
:103060000004024000080240000C0240001402402C
:1030700008B501460D4B1B680D4AA2FB03239B09B3
:10308000013BB3F1807F09D20A4A5360F0200A4B1A
:1030900083F8230000239360072313604FF0FF3071
:1030A0000022FFF7D3FA002008BD00BF180000205F
:1030B000D34D621010E000E000ED00E00FB42DE908
:1030C000F04FA7B030AB53F804CB25939E46664B28
:1030D0001B68D3F8089003AC644D0FCD0FC40FCD1F
:1030E0000FC42B682360002426AD05F8684D4FF00F
:1030F000010827464FF0200A90E0252B05D00CF15F
:10310000010C2B700134013588E09CF80130252B2F
:1031100005D12B700CF1020C013401357EE00CF16D
:103120000106302B06BF0CF10206302151463378E0
:10313000A3F13002D2B2092A0FD83A4602EB82023A
:1031400003EB4202303A02F0FF0216F8013FA3F10E
:103150003000C0B20928F1D900E03A46A01864282E
:1031600084BFC4F16402D2B2583B202B67D8DFE899
:1031700003F02E666666666666666666664B116670
:103180006666661166666666666666666639661AAD
:10319000666623000EF1040B2846DEF80030FFF7C8
:1031A000E7FCDE4636E00EF1040B2846DEF8003080
:1031B000FFF72AFDDE462DE00EF1040BDEF80030AD
:1031C000009328463B46FFF7A3FCDE4622E00EF1C3
:1031D000040BDEF80030009328464346FFF798FCC6
:1031E000DE4617E00EF1040CDEF800301A7842B12A
:1031F000294601F8012B481B13F8012F002AF8D1AA
:1032000000E03846E64605E0DEF800302B700EF1AF
:10321000040E404606F1010C054404449CF80030BD
:103220001BB1632C7FF669AF04E0632C02D8002346
:103230002B7006E0002305F8013C013C01E04FF053
:10324000FF34632C06DD084B1B6803A8D968FFF721
:1032500003FDFEE70CA84946FFF7FEFC27B0BDE8DA
:10326000F04F04B0704700BF480400202859000800
:1032700008B5FFF72FFB4FF4806001F09BF84FF487
:10328000006001F097F84FF4805001F093F84FF48C
:10329000005001F08FF84FF4804001F08BF84FF4AC
:1032A000004001F087F808BD08B5FFF713FB2020A8
:1032B00001F080F8402001F07DF8802001F07AF8DC
:1032C0004FF4807001F076F84FF4007001F072F85E
:1032D00008BD00BF08B5FFF7FDFA102001F06AF83D
:1032E00008BD00BF08B5FFF7F5FA082001F062F845
:1032F00008BD00BF08B5FFF7EDFA042001F05AF849
:1033000008BD00BF08B5FFF7E5FA022001F052F84A
:1033100008BD00BF08B5FFF7DDFA012001F04AF84B
:1033200008BD00BF10B40268D36823F0A003D360C7
:10333000094B1C680268194604E00B681B1BB3F5B7
:103340007A7F05D8D36813F0200FF6D0002000E074
:1033500003205DF8044B7047C0060020024A136842
:1033600001331360704700BFC0060020000000005A
:10337000064B93F8DD303BB9044B93F808311BB989
:103380000122024B83F80821704700BFDC040020B3
:1033900008B5114B93F8DD30012B1CD1122000F041
:1033A000D3FB10F0010F0BD01220052100F0FEFB23
:1033B0000A4B1B687BB19B696BB10120984708BD24
:1033C0001220042100F0F2FB044B1B681BB19B6927
:1033D0000BB10020984708BDDC0400201407002032
:1033E0002DE9F04F8BB00022AF4B1A700668AF4B3F
:1033F0001B689E4209D9AE4B1B7813F0FF0F04D017
:10340000AB4B1A70A94B1B68F61AA84B1B68B3424A
:103410000BD2312E03D80022A64B1A7005E00122F0
:10342000A44B1A70A14B1B68F61A0660A24B1B7FB7
:10343000012B42D0A04B01221A7702225A771A6838
:10344000CA23536253235362936823F480739360B7
:10345000936823F480539360984B186819460AE0E8
:103460000B681B1AB3F57A7F05D9FF235362032239
:10347000914B5A77A0E1D36813F0010FF0D0FF23EE
:10348000536201228C4B5A7796E10B681B1AB3F5F5
:103490007A7F07D9FF235362874B03225A77002292
:1034A0001A770AE0D36813F0040FEED0FF235362BB
:1034B000814B01225A7700221A7705A8FFF7F6F808
:1034C0007F4D05AC0FCC0FC523682B609DF81730DE
:1034D00003939DF819B09DF81E3002939DF81D408E
:1034E0009DF81C509DF818A07648B04228BF304681
:1034F000002808BF012001F0E9FE65A3D3E90023FD
:1035000001F0BEF98046894601F04EFD06460F46A1
:103510006D4B986901F0EAFECDE90001304639466D
:1035200042464B4601F094FD0022684B01F0A8F999
:1035300002460B46DDE9000101F08CFD01F0B2FB13
:10354000B0F5F47F02DA604B98610BE0A0F5F470FF
:103550005D4B98613046394600225D4B01F07AFDA3
:1035600006460F46304639464BA3D3E9002301F007
:1035700097FFA8B10FF22019D9E9008930463946E2
:1035800042464B4601F064FD06460F460AF1010A29
:103590001FFA8AFA42464B4601F082FF0028EDD11D
:1035A000304639463EA3D3E9002301F079FF98B1B4
:1035B0000FF2EC09D9E900893046394642464B46BC
:1035C00001F046FD06460F460135ADB242464B4678
:1035D00001F066FF0028EFD13046394600223D4B0E
:1035E00001F05EFF98B14FF00008DFF8E890304638
:1035F000394642464B4601F02BFD06460F46013444
:10360000A4B242464B4601F04BFF0028EFD102988E
:1036100001F06CFE02460B463046394601F01AFDB9
:1036200001F068FB86B23B2E05D93C3EB6B20134B0
:10363000A4B23B2EF9D83B2C05D93C3CA4B20135B1
:10364000ADB23B2CF9D8172D07D9183DADB20AF110
:10365000010A1FFA8AFA172DF7D8BBF1000F05D01F
:103660001D4B1B889B441BF0030F39D11B4B039A46
:10367000134413F8013C9AB252453FD29AFBF3F23D
:1036800003FB12AA1FFA8AFA38E000BFAFF30080EA
:10369000FCA9F1D24D620040000000000018F54086
:1036A000000000000020AC40CF080020C806002029
:1036B000BF060020040900209C060020C006002050
:1036C00018070020420612001407002000408F4017
:1036D0000000F03F00004E40BC06002010590008DA
:1036E000424B039A134413F8013C9AB2524505D257
:1036F0009AFBF3F203FB12AA1FFA8AFA3C4B1B7FD8
:10370000012B6FD03A4B01221A7702225A771F6899
:10371000BB68E8B200F046FF0546E0B200F042FFA9
:103720000446F0B200F03EFF06465FFA8AF000F071
:1037300039FFCA237B6253237B62BB6823F4807307
:10374000BB60FB68DBB263F4C073FB60294B196894
:103750001A460CE013685B1AB3F57A7F07D9FF238A
:103760007B62234B03225A7700221A773AE0FB68E8
:1037700013F0010FEED0240244EA0060064346EA4B
:103780000545FD61BB6843F48073BB60BB6843F4CF
:103790008053BB60184B1A6842F400321A609A6872
:1037A00042F400329A60124B1A68FF2151620122E2
:1037B0005A7700221A7715E00D4B01221A77022260
:1037C0005A771A68CA23536253235362936823F4C7
:1037D00080639360936823F480439360054B18687B
:1037E00019465FE60BB0BDE8F08F00BF1C5900081A
:1037F0009C060020C00600200004014008B5084BCC
:103800001B6823B10268891A196000221A720361C9
:1038100001230372024B1860FFF7E2FD08BD00BFF1
:10382000D006002010B50020FEF79CFF0446054896
:10383000FEF798FF8442A4EB000038BF00F1FF3090
:1038400010BD00BF1807002038B5054600F084FD04
:10385000244B1C6804B115B900F072FD38BDAC42B0
:103860002AD1237ADBB1FFF7DDFF24681D4B1968ED
:103870000B6983B100220A721A4A13601A68224443
:10388000A04294BF121A121B1A6001221A72184623
:10389000FFF7A6FD22E00022124B1A601EE023690A
:1038A00033B122680F490B6019680A441A6015E0A9
:1038B00000220C4B1A6011E02A680CE09D4209D1ED
:1038C0001B6923B1236119680A441A6006E00023CA
:1038D000236103E01C462369002BEFD100F030FD8B
:1038E00038BD00BFD006002038B53B4B93F8DC3024
:1038F000012B02D0022B50D038BD374B93F8DD306E
:1039000013B1012B35D038BD334B1B6C1BB90122D1
:10391000314B83F80821304BB3F80831012B54D1D7
:103920002E48FFF791FF2C4C012384F80931112018
:1039300000F00AF94008434284F80A311B2000F0E5
:1039400003F905461C2000F0FFF840EA052001F0CD
:10395000CDFC1FA3D3E9002300F092FF01F0A2F9F0
:10396000C4F80C010C2000F0EFF8400984F81001B5
:1039700038BD194B93F82B313BB31220022100F0D4
:1039800015F9174B1B6803B35C69F4B11C2000F0F8
:10399000DBF800F03F00A04738BD0F4B93F8DD3057
:1039A000012B12D10C4B93F82B3173B11220022151
:1039B00000F0FCF80A4B1B683BB15C692CB11C2081
:1039C00000F0C2F800F03F00A04738BDAFF3008020
:1039D0000000000080844E40DC04002030070020FE
:1039E00014070020F8B5044600F0B6FC64B1364B6D
:1039F0001B68002B57D09C4202D105E09C4203D0AB
:103A00001B69002BFAD14EE000F09AFCF8BD20466D
:103A1000FFF7F4FE44E01A7A4AB1FFF703FF2A4B9E
:103A20001B681D68A84294BF291A691B00E0196829
:103A30002568A94203D92046FFF7E0FE30E0224B7B
:103A40001A6817692FB96D1A256014610023236164
:103A500026E03E680E441AB3B5422DD33B69002BD5
:103A60002FD10FE00B460246954208D2AD1B2560D0
:103A700013B11A68551B1D603C61236110E0196980
:103A800041B901E03B463246AA1A22601C6100237C
:103A9000236105E00868104416461F46002BE1D15B
:103AA00000F04EFCF8BD6168216000232372064BD4
:103AB0001B68002BAFD1AAE76D1A25603B4617465D
:103AC000D7E71A683244CFE7D0060020704700BF1E
:103AD000FEE700BFFEE700BFFEE700BF704700BF84
:103AE000034B19681A4613685B1A8342FBD370476D
:103AF000C0060020AFF30080F8B507460D46164615
:103B00000F4C20460021FEF7EDFFA4F17C0007F0EA
:103B10007F01FEF74FFB6EB16C1E013EF6B23544DD
:103B2000084F002638463146FEF744FB04F8010FE3
:103B3000AC42F7D102480121FEF7D4FFF8BD00BF27
:103B4000AC0500203005002000B583B00DF1070161
:103B50000122FFF7D1FF9DF8070003B05DF804FBD9
:103B6000F8B507460D4616460E4C20460021FEF7D6
:103B7000B9FFA4F17C0047F08001FEF71BFB5EB1AA
:103B80006C1E013EF6B23544074E304614F8011F54
:103B9000FEF710FBAC42F8D102480121FEF7A2FF6C
:103BA000F8BD00BFAC0500203005002000B583B093
:103BB00002AB03F8011D19460122FFF7D1FF03B044
:103BC0005DF804FB08B5434B93F8DC30012B02D0C1
:103BD000022B56D008BD3F4B93F8DD3013B1012BBB
:103BE0003DD008BD3B4BB3F812319BB9394BB3F80C
:103BF00014317BB9374B93F8FA302BB90020364992
:103C00000122FFF779FF05E03220FFF79DFF314BDE
:103C1000A3F812012F4BB3F81201B3F8141193F863
:103C20001621431A93420DDD00202C4B1944FFF757
:103C300063FF284B93F81611B3F814210A44A3F834
:103C4000142108BD421A0020244B1944D2B2FFF7B8
:103C500053FF204BB3F81221A3F8142108BD2048CC
:103C6000FFF7F2FD12208021FFF7A0FF0022194B81
:103C700083F8DC201B4B1B685BB3DB684BB39847B6
:103C800008BD144B93F8DD301BBB124BB3F8120187
:103C9000B3F8141193F81721431A93420DDD002055
:103CA0000E4B1944FFF75CFF0A4B93F81711B3F85A
:103CB00014210A44A3F8142108BD421A0020074B1E
:103CC0001944D2B2FFF74CFF024BB3F81221A3F80C
:103CD000142108BDDC040020EE050020440700206C
:103CE000440800201407002010B582B000238DF88E
:103CF0000730AC4B93F8DC30012B03D0022B00F0E3
:103D000038814CE1A74B93F8DD301BB1012B00F05B
:103D1000AD8044E1A34B93F8FC30002B3DD03F2015
:103D2000FFF712FF8DF807009DF8073013F0020F20
:103D300033D13E200B21FFF739FF3F201021FFF741
:103D400035FF9948FFF780FD964B93F8FE303BB95D
:103D50009648FFF779FD0022924B83F8DC200BE0B8
:103D60000D20FFF7F1FE40F040010D20C9B2FFF732
:103D70001DFF8E48FFF736FE8D4B1B6813B11B6984
:103D800003B19847874B002283F8082183F8092163
:103D9000A3F81421A3F8122101E1824BB3F81221F8
:103DA0001ABBB3F8143103BB7E4B93F8FA302BB92E
:103DB000002080490122FFF79FFE05E03220FFF737
:103DC000C3FE784BA3F81201764CB4F8143194F882
:103DD0001221D21A002078491944D2B2FFF78CFE82
:103DE000B4F81231A4F814310DE06E4CB4F814316B
:103DF000D21A002070491944D2B2FFF77DFEB4F800
:103E00001231A4F814316848FFF71EFD654B93F892
:103E1000FE303BB90022634B83F8DC206348FFF798
:103E200013FD0BE00D20FFF78FFE40F040010D2049
:103E3000C9B2FFF7BBFE5D48FFF7D4FD5C4B1B68C2
:103E40004BB19C683CB1574B5B48B3F8121193F9E6
:103E50000A210023A047534B002283F8082183F84E
:103E60000921A3F81421A3F8122198E0122040217F
:103E7000FFF79CFE1220FFF767FE8DF807009DF804
:103E8000073013F0200F17D012202021FFF78EFEED
:103E9000444B93F82E311BB90022424B83F8DC20AF
:103EA0004148FFF7D1FC424B1B68002B77D01B69C0
:103EB000002B74D0984772E01920FFF745FEC0B27E
:103EC000384B83F8380110F0800F06D040B24042E2
:103ED000C0F385004042C4B200E084081A20FFF716
:103EE00033FE83B214F0800F12D02E4AD2F8E010C5
:103EF000324A914264B204448CBFA4F19D02A4F101
:103F0000A40243F30B131A44264BA3F83A210DE005
:103F1000244AD2F8E010294A91428CBF9D38A43837
:103F200043F30B1318441F4BA3F83A011320FFF778
:103F30000BFE02461B4C84F83C0100201E49FFF793
:103F4000DBFD94F82E3113B9002284F8DC201648EA
:103F5000FFF77AFC164B1B680BB39C68FCB1114B46
:103F6000154893F83C11B3F93A2193F93831A04739
:103F700015E01348FFF768FC0A4B93F8DD30012B7E
:103F800003D112200821FFF711FE0022054B83F810
:103F9000DC20074B1B6813B11B6803B1984702B0C4
:103FA00010BD00BFDC0400204408002030070020C2
:103FB00014070020EE0500204407002040DD4A1FC2
:103FC0005808002010B504460120FFF7BDFD10F091
:103FD000800F14BF01220022194B83F8DD20184BFB
:103FE00093F8DD30A3422AD0154B83F8DD40012C35
:103FF00012D0FDF7FDF80120FFF7A6FD00F07F01CC
:104000000120FFF7D3FD40200021FFF7CFFD412025
:104010003021FFF7CBFD10BDFDF7EAF80120FFF7D7
:1040200093FD60F07F010120C9B2FFF7BFFD402082
:104030000021FFF7BBFD41200021FFF7B7FD10BDB8
:10404000DC04002010B504460120FFF7BBFF074B3E
:1040500083F8344124B139203421FFF7A7FD10BD86
:1040600039201221FFF7A2FD10BD00BFDC040020A3
:1040700038B504460D46FFF7A5FF14B1012C09D051
:1040800038BD074B93F8FA3043B932202946FFF781
:104090008DFD38BD23202946FFF788FD38BD00BFC0
:1040A000DC040020F0B583B00546E0B92D4B93F851
:1040B0002831002B4BD12B4E012486F828410027B4
:1040C0000097019406F59670162122462346FEF7C6
:1040D00031FF0097019706F59C7004212246234684
:1040E000FEF728FF33E01F4B93F82831B3B11D4F83
:1040F000002687F8286101240094019607F5967040
:10410000162122463346FEF715FF0094019407F569
:104110009C70042122463346FEF70CFF032D0BD181
:10412000104C04F596700021FEF7DCFC04F59C7041
:104130000121FEF7D7FC0AE00A4C04F59670012134
:10414000FEF7D0FC04F59C700021FEF7CBFC0120AB
:10415000FFF7FAFC00F0F80101202943FFF726FDE4
:1041600003B0F0BD4407002030B583B00D4D0024EE
:104170000094019428461D2101222346FEF7DAFE11
:104180000120FFF7ADFC00940123019328461D2177
:1041900022462346FEF7CEFE0620FFF7A1FC03B021
:1041A00030BD00BFDC04002038B5304B93F8DC3064
:1041B000012B02D0022B33D038BD2C4B93F8DD30CD
:1041C0003BBB2A4C84F8083184F80931A4F8143137
:1041D000A4F812313E200B21FFF7E8FC3F2010210C
:1041E000FFF7E4FC94F8FE3063B10D20FFF7ACFC60
:1041F00040F040010D20C9B2FFF7D8FC1C48FFF782
:10420000F1FB06E00022194B83F8DC201848FFF789
:104210001BFB184B1B6843B3DB6833B3984738BDAF
:10422000FFF7A2FFFDF700FF0020FFF73BFF124C56
:1042300004F130052078FFF7C5FE6078A178FFF71C
:10424000B5FC0334AC42F5D10020FFF7BBFE074CB0
:1042500094F83401FFF7F6FE002384F8DC30054BB8
:104260001B6813B15B6803B1984738BDDC040020BC
:1042700030070020140700204C5900080122014B90
:104280001A7070471C06002008B5FCF7B1FF032226
:10429000024B1A700248FEF711FF08BD8808002083
:1042A0008C59000808B5FCF7A3FF0222024B1A70D4
:1042B0000248FEF703FF08BD88080020985900084F
:1042C00008B5FCF795FF0522024B1A700248FEF76D
:1042D000F5FE08BD88080020A859000808B5FCF7BD
:1042E00087FF0422024B1A700248FEF7E7FE08BD62
:1042F00088080020B85900082DE9F04180460F4693
:1043000014461E46FCF774FF0A4B1F800A4D281DF9
:1043100041463A4601F000F9E1B285F8441085F8CB
:10432000456001232B70054849B23246FEF7C6FEB0
:10433000BDE8F0811C00002088080020C459000856
:10434000044A92F84630013BDBB282F8463003B9AA
:1043500062B670478808002072B6034A92F8463069
:10436000013382F846307047880800200E4B1A68E7
:1043700042F480721A6099680C4A0A409A601A687E
:1043800022F0885222F001121A601A6822F4802268
:104390001A609A6822F47D029A600022DA604FF077
:1043A0000062034B9A607047003802400CC0FF88DF
:1043B00000ED00E008B50B4B5B69184210D0094BCB
:1043C0005861012806D9002340080133DBB20128D7
:1043D000FAD100E00023044A52F8233003B1984791
:1043E00008BD00BF00040140D40600200A68002A6E
:1043F00000F0C7802DE9F04F83B000254FF0010E8B
:104400004FF0030ADFF884915E4EA8460EFA05F4D9
:10441000224000F0AD804B6823F01003022B13D133
:10442000EF0800EB8707D7F820C005F0070B4FEA2D
:104430008B0B0F2303FA0BF32CEA030C0B6903FA23
:104440000BF34CEA03033B6203684FEA450C0AFA9C
:104450000CF7FF4307EA030B4B6803F0030303FA6F
:104460000CF34BEA030303604B6823F01003013B9A
:10447000012B13D8836807EA030BCB6803FA0CF30C
:104480004BEA03038360436823EA040B4B68C3F3DE
:10449000001303FA08F34BEA03044460C3681F40A7
:1044A0008B6803FA0CF33B43C3604B6813F0805FE7
:1044B0005ED0D9F8203043F00103C9F82030D9F894
:1044C000203003F001030193019B25F0030303F166
:1044D000804303F580339F6805F0030C4FEA8C0C92
:1044E0000F2404FA0CF427EA0407274CA04212D048
:1044F00004F58064A04210D004F58064A0420ED080
:1045000004F58064A0420CD004F58064A0420CBF86
:104510000424052406E0002404E0744602E002249A
:1045200000E0544604FA0CF43C439C603368D443E6
:104530004F6817F4803F0CBF234013433360736808
:104540004F6817F4003F0CBF234013437360B368F8
:104550004F6817F4801F0CBF23401343B360F36808
:104560004F6817F4001F0CBF04EA03021A43F260FD
:1045700001350A6832FA05F37FF447AF03B0BDE8AE
:10458000F08F7047000401400000024000380240F4
:10459000030903EB830300F00F0000EB4300C0B2FC
:1045A000704700BF092806D9002301330A38C0B27A
:1045B0000928FAD800E0002340EA0310C0B270478F
:1045C0000368DA6812F0400F13D110B44FF0FF32D5
:1045D000DA600B4B1C680268194604E00B681B1B71
:1045E000B3F57A7F07D8D36813F0400FF6D00020D8
:1045F00002E00020704703205DF8044B704700BFC5
:10460000C00600200B4B1B689BB11B7A8BB10A4B79
:1046100093F84730DBB2042B07D8074A92F84730AB
:104620000133DBB282F8473070470022024B83F837
:1046300047207047D0060020880800202DE98048D8
:104640008BB0FBF7A9FD8548854B8364854B0365DB
:10465000854BC364854B4365854B83654830FDF7C7
:1046600035FD8448FCF788FD072500950124019459
:104670000826029600270397049405970697079744
:1046800040F6B833089320460E213A463B46FDF7E4
:1046900041F9009701960523029303970497059427
:1046A0000697079708970994204639462A462346D5
:1046B000FDF7E8FA4FF47A70FCF7B0FD674C4FF461
:1046C0007A76DFF8B48104F10409DFF8B0B10BF1B8
:1046D000080A2378013B042B00F2BC80DFE803F0DA
:1046E00003919181B500002F44D0B8F80030002B21
:1046F00074D048465946042200F0D2FF30BB04F182
:1047000064052846FEF7D8F980F001012846FEF737
:10471000E9F950232371492363714E23A371472381
:10472000E371B8F80050042D08D90423E218191FCA
:1047300011710133DBB29AB2AA42F7D30120FFF71D
:10474000CFF94846E9B2FCF7E3FE47E04846514658
:10475000042200F0A5FF48B904F170000121FEF722
:10476000C1F93046FCF75AFD002737E03046FCF728
:1047700055FD33E0B8F8003083B348465146042273
:1047800000F08EFF30BB04F164052846FEF794F973
:1047900080F001012846FEF7A5F9502323714F232D
:1047A00063714E23A3714723E371B8F80050042DC1
:1047B00008D90423E218191F11710133DBB29AB230
:1047C0009542F7D80120FFF78BF94846E9B2FCF78C
:1047D0009FFE03E03046FCF721FD012700232370F4
:1047E00038E004F170052846FEF766F980F0010113
:1047F0002846FEF777F93046FCF710FD00232370BA
:1048000028E0E7B150232371492363714E23A3713C
:104810004723E371B8F80050042D08D90423E218A7
:10482000191F11710133DBB29AB29542F7D80120FA
:10483000FFF756F94846E9B2FCF76AFE02E0304657
:10484000FCF7ECFC0023237004E03046FCF7E6FCA8
:1048500000232370FFF7D6FE3BE700BF8808002047
:10486000DD420008F9420008C1420008A5420008E4
:104870008942000800A1BC331C0000207C590008BC
:1048800070B54FF0FF0C4CF4E06C1CEA11541DBFE6
:104890001CEA135594EA0C0F95EA0C0F00F0DEF8B1
:1048A0002C4481EA030621EA4C5123EA4C5350EA96
:1048B000013518BF52EA033541F4801143F48013E7
:1048C00038D0A0FB02CE4FF00005E1FB02E506F078
:1048D0000042E0FB03E54FF00006E1FB03569CF0CD
:1048E000000F18BF4EF0010EA4F1FF04B6F5007FD3
:1048F00064F5407404D25FEA4E0E6D4146EB060645
:1049000042EAC62141EA55514FEAC52040EA5E50CD
:104910004FEACE2EB4F1FD0C88BFBCF5E06F1ED877
:10492000BEF1004F08BF5FEA500E50F1000041EBAE
:10493000045170BD06F0004646EA010140EA02005B
:1049400081EA0301B4EB5C04C2BFD4EB0C0541EA7D
:10495000045170BD41F480114FF0000E013C00F392
:10496000AB8014F1360FDEBF002001F0004170BDB6
:10497000C4F10004203C35DA0C341BDC04F11404CF
:10498000C4F1200500FA05F320FA04F001FA05F25B
:1049900040EA020001F0004221F0004110EBD37028
:1049A00021FA04F642EB06015EEA430E08BF20EA54
:1049B000D37070BDC4F10C04C4F1200500FA04F3F7
:1049C00020FA05F001FA04F240EA020001F0004189
:1049D00010EBD37041F100015EEA430E08BF20EAFC
:1049E000D37070BDC4F1200500FA05F24EEA020E44
:1049F00020FA04F301FA05F243EA020321FA04F073
:104A000001F0004121FA04F220EA020000EBD37029
:104A10005EEA430E08BF20EAD37070BD94F0000F29
:104A20000FD101F00046400041EB010111F4801F5D
:104A300008BF013CF7D041EA060195F0000F18BF0E
:104A4000704703F00046520043EB030313F4801F4A
:104A500008BF013DF7D043EA0603704794EA0C0F04
:104A60000CEA135518BF95EA0C0F0CD050EA41061A
:104A700018BF52EA4306D1D181EA030101F0004197
:104A80004FF0000070BD50EA410606BF10461946BF
:104A900052EA430619D094EA0C0F02D150EA0136CB
:104AA00013D195EA0C0F05D152EA03361CBF10460C
:104AB00019460AD181EA030101F0004141F0FE41AB
:104AC00041F470014FF0000070BD41F0FE4141F42F
:104AD000780170BD70B54FF0FF0C4CF4E06C1CEA2F
:104AE00011541DBF1CEA135594EA0C0F95EA0C0FE4
:104AF00000F0A7F8A4EB050481EA030E52EA03359F
:104B00004FEA013100F088804FEA03334FF08055BF
:104B100045EA131343EA12634FEA022245EA1115EC
:104B200045EA10654FEA00260EF000419D4208BF9D
:104B3000964244F1FD0404F5407402D25B084FEA4A
:104B40003202B61A65EB03055B084FEA32024FF4F6
:104B500080104FF4002CB6EB020E75EB030E22BF53
:104B6000B61A754640EA0C005B084FEA3202B6EB13
:104B7000020E75EB030E22BFB61A754640EA5C00C2
:104B80005B084FEA3202B6EB020E75EB030E22BF52
:104B9000B61A754640EA9C005B084FEA3202B6EB53
:104BA000020E75EB030E22BFB61A754640EADC0012
:104BB00055EA060E18D04FEA051545EA16754FEA74
:104BC00006164FEAC30343EA52734FEAC2025FEA92
:104BD0001C1CC0D111F4801F0BD141EA00014FF021
:104BE00000004FF0004CB6E711F4801F04BF0143F2
:104BF0000020B4F1FD0C88BFBCF5E06F3FF6AFAE0E
:104C0000B5EB030C04BFB6EB020C5FEA500C50F19D
:104C1000000041EB045170BD0EF0004E4EEA113120
:104C200014EB5C04C2BFD4EB0C0541EA045170BD27
:104C300041F480114FF0000E013C90E645EA060E6B
:104C40008DE60CEA135594EA0C0F08BF95EA0C0F99
:104C50003FF43BAF94EA0C0F0AD150EA01347FF4E1
:104C600034AF95EA0C0F7FF425AF104619462CE7B8
:104C700095EA0C0F06D152EA03353FF4FDAE10461B
:104C8000194622E750EA410618BF52EA43067FF46C
:104C9000C5AE50EA41047FF40DAF52EA43057FF4FC
:104CA000EBAE12E74FEA410212F5001215D211D510
:104CB0006FF47873B3EB625212D94FEAC12343F019
:104CC000004343EA505311F0004F23FA02F018BF9B
:104CD000404270474FF00000704750EA013005D164
:104CE00011F0004008BF6FF0004070474FF0000027
:104CF000704700BF4A0011D212F5001211D20DD533
:104D00006FF47873B3EB62520ED44FEAC12343F0D1
:104D1000004343EA505323FA02F070474FF000007B
:104D2000704750EA013002D14FF0FF3070474FF02A
:104D300000007047002103E00B4B5B5843500431E7
:104D40000A480B4B42189A42F6D30A4A02E0002363
:104D500042F8043B084B9A42F9D3FFF707FB00F0F7
:104D6000B3FBFFF76BFC7047EC5900080000002014
:104D70005C0400205C04002008090020FEE700001D
:104D80002DE9F047C1F30A58A8F2FF36132E0B465F
:104D900004460D4602468946074621DC002E51DBBB
:104DA000DFF8E88048FA06F808EA010E5EEA020237
:104DB0001BD033A3D3E9002300F04CF900220023D9
:104DC00000F078FB40B1002D03DD4FF48013334138
:104DD000994429EA0805002738462946BDE8F087A6
:104DE000332E06DDB6F5806F3FD020461946BDE86C
:104DF000F087A8F213424FF0FF3A2AFA02FA1AEAB1
:104E0000000FF2D01EA3D3E9002300F023F9002203
:104E1000002300F04FFB0028DED0002D0CDD142E07
:104E200008D0C8F5866808F10308012505FA08F5D9
:104E30002F1901D309F101094D4627EA0A0738461F
:104E40002946CBE70EA3D3E9002300F003F90022A3
:104E5000002300F02FFB0028BED0002D0CDB54EA0D
:104E6000050707D0084D0027B6E702460B4600F0BD
:104E7000F1F8BCE73D46AFE700274FF00045ABE750
:104E80009C7500883CE4377E0000F03FFFFF0F0078
:104E90002DE9F047C1F30A58A8F2FF36132E0B464E
:104EA00004460D460246894607461DDC002E40DBBF
:104EB000DFF8F08048FA06F808EA010E5EEA02021E
:104EC00017D035A3D3E9002300F0C4F80022002353
:104ED00000F0F0FA20B1002D40DB29EA0805002798
:104EE00038462946BDE8F087332E06DDB6F5806FDB
:104EF0002FD020461946BDE8F087A8F213424FF0A4
:104F0000FF3A2AFA02FA1AEA000FF2D022A3D3E9F2
:104F1000002300F09FF80022002300F0CBFA0028C5
:104F2000DED0002D1FDB4D4627EA0A07384629460A
:104F3000D8E719A3D3E9002300F08CF8002200235E
:104F400000F0B8FA0028CBD0002D1ADB00273D4630
:104F5000C6E702460B4600F07DF8CCE74FF480131D
:104F600033419944B9E7142E08D0C8F5866808F192
:104F70000308012303FA08F31F19D4D309F1010927
:104F8000D1E725F00042064B224318BF1D460027FB
:104F9000A6E700BFAFF300809C7500883CE4377E35
:104FA0000000F0BFFFFF0F00F8B5C1F30A56A6F2EC
:104FB000FF35132D0A460B460446864611DC002DAC
:104FC0002DDB0F461F492941114224D04FF4002305
:104FD0002B413B4423EA0103002219461446204694
:104FE000F8BD332D05DDB5F5806F1ED01146204686
:104FF000F8BDA6F213414FF0FF30C8402042F5D073
:10500000C6F5866602360121B140091928BF013371
:1050100021EA0002E1E70028D8D11146E7E701358F
:1050200001F0004307D00022D7E702460B4600F00C
:1050300011F80446D3E743F07F5343F440130022B2
:10504000CBE700BFFFFF0F0081F0004102E000BF8F
:1050500083F0004330B54FEA41044FEA430594EA38
:10506000050F08BF90EA020F1FBF54EA000C55EA73
:10507000020C7FEA645C7FEA655C00F0E2804FEA44
:105080005454D4EB5555B8BF6D420CDD2C4480EA26
:10509000020281EA030382EA000083EA010180EA56
:1050A000020281EA0303362D88BF30BD11F0004FA4
:1050B0004FEA01314FF4801C4CEA113102D04042DA
:1050C00061EB410113F0004F4FEA03334CEA133315
:1050D00002D0524263EB430394EA050F00F0A7802D
:1050E000A4F10104D5F1200E0DDB02FA0EFC22FA28
:1050F00005F2801841F1000103FA0EF2801843FA1C
:1051000005F359410EE0A5F120050EF1200E012A0C
:1051100003FA0EFC28BF4CF0020C43FA05F3C0184A
:1051200051EBE37101F0004507D54FF0000EDCF1C3
:10513000000C7EEB00006EEB0101B1F5801F1BD36C
:10514000B1F5001F0CD349085FEA30004FEA3C0C70
:1051500004F101044FEA445212F5800F80F09A8066
:10516000BCF1004F08BF5FEA500C50F1000041EB6A
:10517000045141EA050130BD5FEA4C0C404141EB6E
:10518000010111F4801FA4F10104E9D191F0000F95
:1051900004BF01460020B1FA81F308BF2033A3F118
:1051A0000B03B3F120020CDA0C3208DD02F1140C0F
:1051B000C2F10C0201FA0CF021FA02F10CE002F14A
:1051C0001402D8BFC2F1200C01FA02F120FA0CFC43
:1051D000DCBF41EA0C019040E41AA2BF01EB04518C
:1051E000294330BD6FEA04041F3C1CDA0C340EDC8A
:1051F00004F11404C4F1200220FA04F001FA02F3CD
:1052000040EA030021FA04F345EA030130BDC4F18A
:105210000C04C4F1200220FA02F001FA04F340EA7F
:105220000300294630BD21FA04F0294630BD94F030
:10523000000F83F4801306BF81F480110134013D17
:105240004EE77FEA645C18BF7FEA655C29D094EA88
:10525000050F08BF90EA020F05D054EA000C04BF06
:105260001946104630BD91EA030F1EBF00210020F1
:1052700030BD5FEA545C05D14000494128BF41F090
:10528000004130BD14F580043CBF01F5801130BDF4
:1052900001F0004545F0FE4141F470014FF000007F
:1052A00030BD7FEA645C1ABF194610467FEA655C30
:1052B0001CBF0B46024650EA013406BF52EA0335D2
:1052C00091EA030F41F4002130BD00BF90F0000FC0
:1052D00004BF0021704730B54FF4806404F13204FC
:1052E0004FF000054FF0000150E700BF90F0000FB5
:1052F00004BF0021704730B54FF4806404F13204DC
:1053000010F0004548BF40424FF000013EE700BFAB
:1053100042004FEAE2014FEA31014FEA02701FBF3B
:1053200012F07F4393F07F4F81F06051704792F00D
:10533000000F14BF93F07F4F704730B54FF4607487
:1053400001F0004521F0004120E700BF50EA0102D2
:1053500008BF704730B54FF000050AE050EA01027F
:1053600008BF704730B511F0004502D5404261EBEF
:1053700041014FF4806404F132045FEA915C3FF430
:10538000DCAE4FF003025FEADC0C18BF03325FEAC9
:10539000DC0C18BF033202EBDC02C2F1200300FA7E
:1053A00003FC20FA02F001FA03FE40EA0E0021FAA3
:1053B00002F11444C1E600BF4FF0FF3C06E000BF1D
:1053C0004FF0010C02E000BF4FF0010C4DF804CD8E
:1053D0004FEA410C7FEA6C5C4FEA430C18BF7FEA4E
:1053E0006C5C1BD001B050EA410C0CBF52EA430C7C
:1053F00091EA030F02BF90EA020F0020704710F1FC
:10540000000F91EA030F58BF994208BF90422CBF8A
:10541000D8176FEAE37040F0010070474FEA410C83
:105420007FEA6C5C02D150EA013C07D14FEA430CA1
:105430007FEA6C5CD6D152EA033CD3D05DF8040B12
:10544000704700BF8446104662468C461946634644
:1054500000E000BF01B5FFF7B7FF002848BF10F11B
:10546000000F01BD4DF808EDFFF7F4FF0CBF012060
:1054700000205DF808FB00BF4DF808EDFFF7EAFFDC
:1054800034BF012000205DF808FB00BF4DF808ED97
:10549000FFF7E0FF94BF012000205DF808FB00BF8C
:1054A0004DF808EDFFF7CEFF94BF012000205DF816
:1054B00008FB00BF4DF808EDFFF7C4FF34BF012023
:1054C00000205DF808FB00BF70B50F4E0F4D761B36
:1054D000B61018BF002405D0013455F8043B984796
:1054E000A642F9D10A4E0B4D00F09CF9761BB6107E
:1054F00018BF002406D0013455F8043B9847A64253
:10550000F9D170BD70BD00BF4C0400204C040020D8
:10551000540400204C040020844641EA000313F0A8
:10552000030349D1403A23D30B6803604B684360BF
:105530008B688360CB68C3600B6903614B6943610F
:105540008B698361CB69C3610B6A03624B6A4362F7
:105550008B6A8362CB6AC3620B6B03634B6B4363DF
:105560008B6B8363CB6BC36340304031403ADBD2FB
:1055700030320BD30B6803604B6843608B688360E9
:10558000CB68C36010301031103AF3D20C3205D31F
:1055900051F8043B40F8043B043AF9D2043208D0F5
:1055A000D2071CBF11F8013B00F8013B01D30B8867
:1055B00003806046704700BF082A13D38B07B1D021
:1055C00010F00303AED0C3F10403D21ADB071CBFF3
:1055D00011F8013B00F8013BA4D331F8023B20F85D
:1055E000023B9FE7043AD9D3013A11F8013B00F896
:1055F000013BF9D20B7803704B7843708B78837042
:105600006046704770B4840746D0541E002A41D0CB
:10561000CDB2034602E0621EE4B3144603F8015B18
:105620009A07F8D1032C2ED9CDB245EA05250F2CC7
:1056300045EA054519D9264603F11002103E0F2E02
:1056400042F8105C42F80C5C42F8085C42F8045CDA
:1056500002F11002F2D8A4F1100222F00F0204F0BD
:105660000F041032032C13440DD91E462246043A6F
:10567000032A46F8045BFAD8221F22F00302043200
:10568000134404F003042CB1C9B21C4403F8011BF9
:10569000A342FBD170BC704714460346C2E700BF6B
:1056A000002A3CD040EA010313F00303F0B425D1F3
:1056B000032A23D904680D68AC421FD1043A30D0C4
:1056C000A4F1013525EA040414F0803F2CD1071D14
:1056D0000D1D0DE057F8043B0E68A3F10134B342F1
:1056E00024EA03040AD1043A1BD014F0803F1ED1EF
:1056F000032A2946384605F10405EBD803780C78CF
:10570000013AA34208D162B173B110F8013F11F818
:10571000014F013AA342F6D0181BF0BC7047104667
:1057200070471046F0BC70471846F0BC7047002028
:10573000F3E700BF024B13B1024800F005B8704711
:1057400000000000555700080146002002460346AD
:1057500000F016B838B5084B084DED1AAC1018BF5C
:10576000ED1805D0013C55F8043D9847002CF9D1BF
:10577000BDE8384000F05CB8540400205804002014
:105780002DE9F047254C064625688846D5F848415E
:1057900092469946C4B360681F2817DC411C76B155
:1057A00004EB8003C3F888A0D4F88851012282401A
:1057B0001543022EC4F88851C3F808911ED0831CEB
:1057C0006160002044F82380BDE8F087144B03B3E8
:1057D0004FF4C870AFF300800446D0B1D5F848311B
:1057E000002784E888003846C5F848410121C4F8FC
:1057F0008871C4F88C71002EE1D0D1E7D4F88C31D7
:105800001A43C4F88C21DAE705F5A674C5F84841B7
:10581000C1E74FF0FF30BDE8F08700BFE459000852
:1058200000000000F8B500BFF8BC08BC9E467047F9
:10583000F8B500BFF8BC08BC9E46704703040608D4
:105840000C101820300000000000000000000000D4
:105850000102030406070809280A000017000000D7
:105860001C0C00000F0000003C0F000007000000AF
:1058700050140000160000009C1800000E000000EC
:10588000781E000006000000A0280000150000009F
:10589000D43000000D000000F03C000005000000C6
:1058A0004051000014000000A86100000C0000003E
:1058B000447A000004000000E4A20000130000008D
:1058C00050C300000B00000024F40000030000009F
:1058D0008545010012000000A08601000A000000BA
:1058E00048E80100020000002C8B020011000000BB
:1058F000400D03000900000090D0030001000000EB
:10590000E093040000000000000000000102030416
:105910001F1D1F1E1F1E1F1F1E1F1E1F1F1C1F1EA1
:105920001F1E1F1F1E1F1E1F737464696F2E633A94
:1059300020696E637265617365204D41585F5354F1
:1059400052494E475F53495A450A0D00000C230047
:105950000D1E000ED2001A01001FAA002407002706
:10596000120028C1002994002AC10030D800358FC8
:10597000003B02004000004130012340504F4E47A1
:105980000000000050494E47000000004F6E527862
:105990004572726F720D0A004F6E527854696D65D0
:1059A0006F75740D0A0000004F6E547854696D6570
:1059B0006F75740D0A0000004F6E5478446F6E6569
:1059C0000D0A00004F6E5278446F6E65207273733B
:1059D000693D256420736E723D25640D0A00000048
:0C59E00043000000200000200000000038
:1059EC00E93C0008C53B0008E93800089133000881
:1059FC0071330008000000000048E801400000007E
:105A0C00000000000C03002074030020DC030020C5
:105A1C00000000000000000000000000000000007A
:105A2C00000000000000000000000000000000006A
:105A3C0000000000E0590008000000000000000019
:105A4C00000000000000000000000000000000004A
:105A5C00000000000000000000000000000000003A
:105A6C00000000000000000000000000000000002A
:105A7C00000000000000000000000000000000001A
:105A8C00000000000000000000000000000000000A
:105A9C0000000000000000000000000000000000FA
:105AAC0000000000000000000100000000000000E9
:105ABC000E33CDAB34126DE6ECDE05000B000000AE
:105ACC0000000000000000000000000000000000CA
