:020000040800F2
:1000000000400020857C000811270008CD7C0008F6
:100010000F2700080D2700080B270008000000002C
:10002000000000000000000000000000CD7C00087F
:100030000927000800000000CD7C0008C5720008F8
:10004000CD7C0008CD7C0008CD7C0008CD7C00086C
:10005000CD7C0008CD7C0008A371000893710008D6
:10006000837100087371000863710008CD7C00087B
:10007000CD7C0008CD7C0008CD7C0008CD7C00083C
:10008000CD7C0008CD7C0008CD7C0008CD7C00082C
:10009000CD7C0008CD7C0008CD7C000837710008BD
:1000A00000000000CD7C0008CD7C0008CD7C00085D
:1000B000CD7C0008CD7C0008CD7C0008CD7C0008FC
:1000C000CD7C0008CD7C0008CD7C0008CD7C0008EC
:1000D000CD7C0008B92C0008CD7C0008CD7C000840
:1000E000FD7000081D3A0008CD7C0008CD7C00089A
:1000F000CD7C0008000000000000000000000000AF
:1001000000000000000000000000000000000000EF
:1001100000000000000000000000000000000000DF
:1001200000000000000000000000000000000000CF
:1001300000000000000000005FF808F110B5054C59
:10014000237833B9044B13B10448AFF30080012383
:10015000237010BD6405002000000000D48B00084F
:10016000084B10B51BB108480849AFF30080084898
:10017000036803B910BD074B002BFBD0BDE810404E
:10018000184700BF00000000D48B0008680500205D
:1001900060050020000000002DE9F04FA84D8DB053
:1001A0002B78002B40F0EF834FF6FF02A549CB6878
:1001B0001A40A54B1343CB6002F010FCA34BA4499B
:1001C0005A6A42F080525A625A6A02F0805202928F
:1001D000029A0A6822F4C05242F400620A609A68E5
:1001E00002F00C02042A07D09A6802F00C020C2AD2
:1001F00022D19B68DB031FD4022393FAA3F2934A14
:10020000116893FAA3F3B3FA83F303F01F0321FAFF
:1002100003F313F0010F134605D08E4B1A68D7076E
:1002200040F19E80A8E052684FF4F85191FAA1F194
:1002300022F4F8525A6021E08749012393FAA3F38C
:10024000B3FA83F39B0003F1844303F58E0300228A
:100250001A600868022393FAA3F27C4A126893FAA0
:10026000A3F3B3FA83F303F01F0322FA03F3DE07C9
:1002700004D50B681B1A022BECD9CEE7734B5A6AD4
:10028000D4005FBF5A6A012442F080525A6257BFBD
:100290005B6A002403F08053039358BF039B6C4BAD
:1002A0001A6812F4807F6C4A06D068494B6B43F49D
:1002B00080734B63166813E0196841F4807119600C
:1002C0001168634B1B68D805EFD413685B1A642B65
:1002D000F7D9A2E741F2883113689B1B8B429CD867
:1002E0004FF4007393FAA3F15849486B93FAA3F3C0
:1002F000B3FA83F303F01F0320FA03F313F0010FA3
:100300000B46E7D01CB1496A21F0805159629B68C5
:1003100003F00C030C2B80D04FF0807393FAA3F3FF
:10032000B3FA83F39B0003F1844303F58E030021AA
:10033000196010684FF0007393FAA3F143490968FC
:1003400093FAA3F3B3FA83F303F01F0321FA03F341
:10035000D9077FF562AF13681B1A022BEAD95CE755
:100360001A6842F004021A601A6842F001021A6028
:100370001B68DF0740F18880344A936823F0F0035C
:1003800093604FF4007393FAA3F1116893FAA3F307
:10039000B3FA83F303F01F0321FA03F3DB0773D5EA
:1003A000936823F0030393602B4B18681A4605E00B
:1003B00041F2883113681B1A8B4265D8234B996828
:1003C00011F00C0FF4D1234A244812689A6822F4E1
:1003D000E0629A609A6822F460529A60996801F02B
:1003E0000C02082A3ED00C2A10D0042A3AD05A68AF
:1003F0004FF4604393FAA3F3B3FA83F302F4604239
:10040000DA4001324FF4004393402CE04FF4701275
:1004100092FAA2F24FF44004B2FA82F294FAA4F4EF
:10042000B4FA84F49B6801F47013D340C35C0C4AA3
:100430005A4301F44003E3400133B2FBF3F312E00B
:100440008005002000ED00E00003FA0500380240BE
:1004500000700040003C0240800E00201086000822
:100460000024F400384B394AF021926891FAA1F146
:10047000B1FA81F102F0F002CA400244527AD3404C
:10048000334A136002F0AAFA304B5A6AD6005FBFB3
:100490005A6A012142F080525A6257BF5B6A0021BA
:1004A00003F08053049358BF049B2A4B1A68D40569
:1004B00005D5264A1368536B98030FD439E01A68A0
:1004C00042F480721A60244B1868224A1268D205DE
:1004D000EFD41A68121A642AF7D947E0546B4FF424
:1004E000000324F4403793FAA3F0B0FA80F01B4ED7
:1004F0004FF0010E46F820E093FAA3F3B3FA83F32A
:10050000002046F82300E305576312D5124B184626
:100510001C684FF4007393FAA3F20C4A526B93FADF
:10052000A3F3B3FA83F303F01F0322FA03F3DF0705
:1005300016D5064B5A6B42F480325A63B1B15A6AEF
:1005400022F080525A6211E00024F4000038024088
:100550002001002000700040800E002080064742ED
:1005600041F2883203681B1B9342D2D9B94B4FF436
:100570007A721B68B3FBF2F3013BB3F1807F09D2BF
:10058000B54AF0215360B54B83F8231000239360E4
:1005900007231360B04AB1491368B14C43F0040318
:1005A00013604FF6FF02CB684FF0FF301A40AD4B9F
:1005B0001343CB60002106F0A7FB66784EBB2046B4
:1005C000A94B00F8046B5A69012742F48042677016
:1005D0005A615A694FF0070822F480425A611A6A38
:1005E000092142F480421A621B6A022203F480430A
:1005F0000593059B00973346CDF8048006F0D9FD9E
:100600008DE8800104F110000A210222334606F031
:10061000D0FD2378FF2B00F09080944C4FF4E13311
:1006200063600C2363610023914EA360E360236148
:10063000A361E36194F83930266003F0FF020BB93F
:1006400084F83820022384F83930F3684FF0190A0F
:1006500023F40053F36033694FF0640923F44053EB
:100660003361F26823696169194322F4164323F068
:100670000C030B43F360736923F44073736102F05E
:10068000E7FA0AFB00F06768BF00B0FBF7F702F07B
:10069000DFFA0AFB00F06368B7FBF9F79B00B0FBD9
:1006A000F3F802F0D5FA0AFB00F062683F0192000D
:1006B000B0FBF2F0B0FBF9F009FB10831B01323301
:1006C000B3FBF9F303F0F00802F0C2FA0AFB00F002
:1006D00063689A00B0FBF2FB02F0BAFA0AFB00F082
:1006E000636808219B00B0FBF3F0B0FBF9F009FB55
:1006F00010B212013232B2FBF9F202F00F0208EB33
:1007000002033B44B360236825201A6922F4904217
:100710001A615A6922F02A025A61DA6842F40052D8
:10072000DA600023E363012384F8393006F0ECFA41
:10073000504B20225A6006F0BDFB6A78002A40F038
:10074000EF804FF4800393FAA3F3B3FA83F34A499B
:100750004A4C012041F82300494B626022616261EA
:10076000A261627F0321A160E160236002F0FF01CA
:1007700002B9217702226277CA225A6253225A6250
:1007800006F069FB3D4E336818B1FF225A6204231C
:1007900023E09A6822F4E00222F040029A6099680D
:1007A000726811433269114372690A439A60F268B0
:1007B000B1681A611A6942EA01421A61DA6822F0E4
:1007C0008002DA601A6C22F480221A64196CB26911
:1007D0000A431A64FF225A6201237377237F274E4C
:1007E000012B51D00223012700207377377701F0C6
:1007F000A9FB8246384601F0A5FB3368CA225A623B
:1008000053225A62814606F026FB3368804630B197
:10081000FF225A62042373770023337734E049F4CC
:10082000404040EA0A4040EA092020F07F4020F0A2
:10083000C0005860DA6822F08002DA6006F024FB1B
:100840003268FF235362E8B10423737786F81C8073
:100850001AE000BF2001002010E000E000ED00E001
:10086000DC0700200003FA050038024024100020B5
:100870000038014000E100E080064742C40F00203C
:100880000028004077773077237F894E012B3DD0B9
:10089000D6F800800223737701270020D8F80830AB
:1008A000377701F04FFBCA23C8F824305323C8F828
:1008B0002430044606F0CFFA3368804630B1FF2278
:1008C0005A6204237377002333771FE0220442EA3D
:1008D0000422144304F07F3424F0FE441C609A6820
:1008E00022F480229A609A689A60DA6822F0800284
:1008F000DA6006F0C9FA3268FF23536220B104239C
:10090000737786F81C8001E07777307729200421FF
:1009100006F0FAF9674B4FF400725A6001236B70CE
:10092000654B00241968654803F026F909A81C21C5
:10093000032223460094019406F03BFC09A81D21E4
:10094000032223460094019406F033FC09A81E21DB
:10095000032223460094019406F02BFC0322234635
:100960000094019409A81F2106F023FC544B5A68F7
:1009700042F002025A605A6842F001025A605A6814
:1009800042F004025A604F4B1E78002E40F0B680B1
:100990004FF001084C4C83F800804C4F4C4B2360C7
:1009A0003B6A43F400733B623B6A03F400730693B3
:1009B000069B05F08DFF33460096019645481921A8
:1009C000032206F0F6FB4FF0206363634FF480636D
:1009D0006361E36CA660E6606662E662A663E66356
:1009E000C4F82880A661E6615BB9236584F84830C5
:1009F0003B6A43EA08033B623B6A03EA0803079346
:100A0000079BE36C3049DE0678D4CB6C324823F484
:100A1000885323F0020343F00203CB64436823F4BA
:100A200040324B68134343604FF4007393FAA3F3CF
:100A3000022393FAA3F30B680A6A186842F0206253
:100A4000400642F480620DD40869B0F5807F04D07E
:100A500001280CBF4FF4807000205E681F493140B0
:100A60000143596098681E4901401143996021690A
:100A7000B1F5807F01D0012907D1196B4FF0F870D3
:100A800021F0F87190FAA0F002E0196B21F0F871F2
:100A900019639968134B0B40934225D100232365BA
:100AA000E36C23F0030343F00103E36426E000BF9B
:100AB000C40F002000E100E000700040298600081B
:100AC000002004E0741000202C0E002000380240AA
:100AD000002401406810002000270140FF16FCFCA4
:100AE0008DF1FFC0FEFF80BFE36C23F0120343F0E3
:100AF0001003E364236D43F00103236504F0DCFF7E
:100B0000614B624C5A69022642F480525A615A691A
:100B1000052722F480525A611A6A04F1AC0042F4AB
:100B200080521A621B6A072103F480530893089BC2
:100B3000574B3246636500238DE8C00006F039FB51
:100B400004F1B8000621324600238DE8C00006F00B
:100B500030FB3946324600238DE8C00004F1C40062
:100B600006F027FB0722C4F880204FF48272A265AA
:100B7000484A4FF4007311682246E3660023E36598
:100B800023666366A3666367A367E367424881429F
:100B900004D90133072B4FEA5101F7D113F00401B7
:100BA00018BF202113F0020018BF102013F001031A
:100BB00041EA000118BF08230B4392F8A510136700
:100BC00001F0FF0011B9314981F8A400022182F837
:100BD000A510516D43F441730868002420F04000D3
:100BE000012608600B6007234C600B61C2F8A84027
:100BF00082F8A56004F056FF2848102132462346AB
:100C00000096019606F0D5FA09A8612132462346DE
:100C10008DE8500006F0CDFA21480B2122462346EC
:100C20000096019406F0C5FA1E481121224623467B
:100C30000096019406F0BDFA1B4803212246234684
:100C40000096019406F0B5FA184860212246234622
:100C50000096019406F0ADFA15482D212246234650
:100C60000096019406F0A5FA2346009601941148D7
:100C70001421224606F09DFA2B780BB90E4B1E70FC
:100C80000DB0BDE8F08F00BF00380240840E002098
:100C9000003001402001002080969800540F002071
:100CA000900E00209C0E0020A80E0020B40E002004
:100CB000C00E0020CC0E00208005002000000000A7
:100CC00010B500230749DA0051F83340A04203D39E
:100CD0000A449168884203D30133152BF2D1FEE711
:100CE000107910BD40860008014B93F8DC00704776
:100CF000840E002008B510B1012807D016E011209D
:100D000005F05EFAC0F3470040420DE0094B1B209E
:100D1000D3F8E020084B9A4203D905F051FA9D38E8
:100D200002E005F04DFAA43880B201E04FF6FF7002
:100D300000B208BD840E002040DD4A1F10B50D4CE6
:100D400094F8DD30012B13D1FA21112005F062FA5D
:100D5000402005F035FA00F0FC01402005F05AFA79
:100D6000032384F8DC300720BDE8104005F0D2BC36
:100D700010BD00BF840E0020114B10B5C3F8E00079
:100D800007F03CFB0CA3D3E9002306F0CDFB06F0F3
:100D9000DBFC04460620C4F3074105F03BFAC4F32C
:100DA0000721072005F036FAE1B20820BDE810401F
:100DB00005F030BAAFF300800000000080844E40A0
:100DC000840E002008B5074801F0B6FA064801F085
:100DD000B3FA012005F09EFC044B002283F8DC20CE
:100DE00008BD00BFE80D0020FC0D0020840E00208F
:100DF00008B5074801F0A0FA064801F09DFA002066
:100E000005F088FC044B002283F8DC2008BD00BFFD
:100E1000E80D0020FC0D0020840E0020F8B5984C51
:100E2000074694F8DD5015B1012D29D0DCE04020B3
:100E300094F8FE6005F0C4F900F0030141F00C01E4
:100E4000402005F0E7F9412005F0BAF960F03E01D5
:100E5000C9B2412005F0DEF9352005F0B1F900F006
:100E60003F0084F816011E210D2005F0D3F984F807
:100E7000085184F80951A4F81451A4F81251B4E0AF
:100E800094F82D31332053B105F09AF940F0410127
:100E9000C9B2332005F0BEF93B2019210AE005F064
:100EA0008FF900F0BE0141F00101332005F0B2F9E5
:100EB0003B201D2105F0AEF9D4F81C313120082B60
:100EC00067D805F07DF900F07F01312005F0A2F927
:100ED0003020002105F09EF9694BD3F81C31082B16
:100EE0005FD8DFE803F00511232F3B47535353002E
:100EF0002F20482105F08EF9D4F8E00007F07EFAA3
:100F000053A3D3E900230AE02F20442105F082F9FE
:100F1000D4F8E00007F072FA4FA3D3E9002307F0FA
:100F200031F906F011FCFFF727FF3AE02F204421AA
:100F300005F070F9D4F8E00007F060FA48A3D3E9AF
:100F40000023ECE72F20442105F064F9D4F8E000F9
:100F500007F054FA44A3D3E90023E0E72F2044210B
:100F600005F058F9D4F8E00007F048FA40A3D3E9B7
:100F70000023D4E72F20442105F04CF9D4F8E000F9
:100F800007F03CFA3CA3D3E90023C8E72F20402117
:100F900005E005F015F960F07F01C9B2312005F0D8
:100FA00039F994F82B3194F82E61112043B11D21A9
:100FB00005F030F9402005F003F900F0330107E0B7
:100FC0001F2105F027F9402005F0FAF800F03F0155
:100FD000402005F01FF90F20002105F01BF90D201E
:100FE000002105F017F900E00026264800214FF403
:100FF000807206F095FE012384F8DC3047B1224D63
:10100000284601F099F928462F606F6001F00AFA2E
:1010100094F8DD308BB9052005F07CFBAEB9184B98
:101020001A4CD3F80451204601F086F9256065601A
:101030002046BDE8F84001F0F5B90EB1052000E00A
:101040000620BDE8F84005F065BBF8BDAFF30080B1
:10105000000000000082BE4000000000005AC440B2
:10106000000000000082CE40000000008057D44005
:10107000000000008084DE4000000000C058E44012
:10108000840E0020E80C0020E80D0020D40C002085
:1010900073B5624C054694F8DD308DF8071013B136
:1010A000012B31D06EE09DF8071094F8FA00A4F8F7
:1010B0001431A4F8121128B90DF10701012205F02D
:1010C0008AF802E0322005F0A5F89DF80720531EAB
:1010D0003F2B02D884F8172106E05148294600F03A
:1010E0003CFF202384F81731294694F8172100206B
:1010F00005F071F8B4F8143194F81721D4F80051C0
:101100001344A4F814313EE094F82D3133204BB150
:1011100005F056F800F0BE01332005F07BF83B20C7
:1011200019210AE005F04CF800F0BE0141F0010180
:10113000332005F06FF83B201D2105F06BF89DF87A
:101140000710222084F83C1105F064F80E200021DD
:1011500005F060F80D20002105F05CF8012005F095
:101160002FF830F0F80304D1FFF72CFE012002F035
:10117000F5FC294600209DF8072005F02CF8D4F84E
:10118000305100E00025274E304601F0D5F894F8A4
:10119000DD3035607560214D13B1012B1AD032E07E
:1011A000402005F00DF800F0030141F0100140204F
:1011B00005F030F8412005F003F800F03E01412031
:1011C00005F028F8352004F0FBFF00F03F0085F81B
:1011D000160118E095F82B31112043B1F52105F0E7
:1011E00019F8402004F0ECFF00F0330107E0F7218C
:1011F00005F010F8402004F0E3FF00F03F0140202C
:10120000014305F007F80223064884F8DC3001F0BA
:1012100009F9032005F07EFA02B070BD840E0020AB
:10122000E80C0020FC0D00202DE9F84F884610B195
:10123000012850D0DBE0724C2720B4F8F85004F0BD
:10124000BFFF20F0F8000130284407F0E7F894F8D9
:10125000FA3000220BB96B4B00E0002306F092FF3E
:10126000064630200F4604F0ABFF30F0F9030CBF08
:101270000023644B00223046394606F083FF0646C1
:1012800040460F4607F0CAF802460B46304639463C
:1012900006F078FF94F8FC3000220BB9002301E03F
:1012A0004FF0804306F06EFF0022574B06F012F815
:1012B0000646D4F8F4000F4607F0A0F802460B46A5
:1012C0003046394606F030F90022504B06F002F85D
:1012D00006F002FF87E04A4CD4F81C31073B022B92
:1012E00005D84B4A02EBC303D3E92C6701E0002683
:1012F0000027D4F820510120A84007F08FF80246BB
:101300000B463046394606F00FF902460B460020E0
:101310003C4906F009F906460F46B4F8260107F0E5
:101320007DF800223B4B06F02DFF32463B4605F090
:10133000D1FF94F82A318246A800C0F11C0000EBCE
:10134000031094F8283100EBC800002B14BF1423BD
:101350000023C01A8B4607F051F894F824318046D8
:10136000002B14BF02200020281A8000894607F0B5
:1013700045F802460B464046494606F0D5F806F0C9
:1013800097FD804694F825018946043007F046F819
:1013900002460B464046494605F09CFF00220023CA
:1013A00004460D4607F01EF930B1204629460022BA
:1013B000154B06F0E7FE01E01349002032463B469C
:1013C00005F088FF02460B465046594606F0DAFE05
:1013D00000220E4B05F07EFF07A3D3E9002306F0A1
:1013E000D1FE06F0EDFD06F0AFF9BDE8F88F002064
:1013F000BDE8F88FAFF300802B8716D9CEF7EF3F0B
:10140000840E00200000F03F0000204000408F408C
:1014100040860008000011402DE9F04F87B0984643
:101420009DF84430009201939DF854308A4602930F
:101430009DF8583083460493189B109C0393BDF885
:1014400048709DF84C509DF850609DF85C9005F0F8
:10145000F9F8092004F0B4FE4D2004F0B1FEBAF111
:10146000110FCBBF40F0070200F0F802D2B242F0F9
:10147000040202F0070107290AD1BAF1040F04DDC2
:1014800051461429A8BF142100E00521053909E0BF
:10149000BAF1010F04DD51461129A8BF112100E066
:1014A0000221023961F00F01C9B20920059204F04E
:1014B000B1FE059A4D20114604F0ACFEBBF1000FC1
:1014C00003D0BBF1010F60D0FFE0854A009BC2F85A
:1014D000EC80C2F8E830039BC2F8F44082F8E4A044
:1014E000A2F8F87082F8FA5082F8FC6082F8FD9059
:1014F000C2F80031009806F081FF75A3D3E90023FC
:1015000006F012F806F020F91FFA80F84FEA1821C9
:10151000042004F07FFE05205FFA88F104F07AFED3
:10152000204606F06BFF0B4602466BA1D1E9000195
:1015300005F0FAFF06F008F984B2210A022004F04F
:1015400069FE0320E1B204F065FE2520390A04F0AB
:1015500061FEF9B2262004F05DFE302004F030FE7A
:10156000002D00F06F0014BF0023802340EA061115
:101570001943C9B2302004F04DFE312004F020FEA2
:1015800040F04001C9B2312094E0554AB8F1020F51
:1015900082F818A1924600D9FEE79DF8043008F1C0
:1015A000070B82F825319DF808300C2C82F82B317E
:1015B0009DF81030C2F81CB182F82C31039BC2F8A0
:1015C0002041A2F8267182F8285182F82A6182F817
:1015D0002D91C2F8303172D8052C0ED9BBF1070F0E
:1015E00004D1A4F10B03012B08D804E0BBF1080FD0
:1015F00004D10C2C02D1012301E0062400238AF837
:101600002431029B6BB1442004F0DAFD60F07F01CD
:10161000C9B2442004F0FEFD24209AF82C1104F0F5
:10162000F9FD1D2004F0CCFD019B1D2045EA43057A
:1016300045EA0B11C9B204F0EDFD1E2004F0C0FD17
:10164000B10000F00B0041EA04110143C9B21E20B1
:1016500004F0E0FD262004F0B3FD9AF8241120F0F8
:10166000080040EAC101C9B2262004F0D3FD2020C1
:10167000390A04F0CFFD2120F9B204F0CBFD062C8D
:101680004FF031000BD104F09BFD00F0F80141F068
:101690000501312004F0BEFD37200C210AE004F0E2
:1016A0008FFD00F0F80141F00301312004F0B2FD9C
:1016B00037200A2107B0BDE8F04F04F0ABBDB8F108
:1016C000020F4FF00C0499D095E707B0BDE8F08FFA
:1016D0000000000080844E400000000080847E41B5
:1016E000840E002070B506468AB010460C4606F0FF
:1016F00095FE00221E4B05F0EDFD06F025F805468F
:101700003046FFF739FB4FF4965300200093052332
:1017100002462146019002930390034604900590EF
:10172000069007900895FFF777FE312004F048FDFA
:1017300000F0BF01312004F06DFD0E4C4020F0217F
:1017400004F068FDA021412004F064FD204600F073
:10175000F3FD094B022220462560656083F8DC20FA
:1017600000F060FE03200AB0BDE8704004F0D2BF74
:1017700000408F40FC0D0020840E00202DE9F04F2A
:10178000044689B000939DF86430079102939DF858
:1017900060109DF86C3015469DF868200493059202
:1017A000DDF84890BDF84C70BDF850B09DF85480FD
:1017B0009DF858A09DF85C60069104F043FF049BDF
:1017C000059ADDF81CC024B1012C069900F0848034
:1017D0004AE1A94C2846C4F8ECC084F8FD2084F8FE
:1017E000FE30C4F8F450C4F8F09084F8FA8084F81D
:1017F000FBA084F8FC60A4F8F870CDF810C006F0E7
:10180000FDFDCDE90001584606F008FEDDE90023A4
:10181000CDE902010020994905F086FE0022984B8F
:1018200005F058FD02460B46DDE9020105F052FDC8
:101830000022944B05F04EFD05F086FFDDE9002304
:10184000C4F804018AA1D1E9000105F06DFE05F09C
:101850007BFF84B2210A022004F0DCFCE1B2032009
:1018600004F0D8FCDDF810C06046FFF729FA014605
:10187000122004F0CFFC4846FFF722FA014613205D
:1018800004F0C8FC2520390A04F0C4FC2620F9B273
:1018900004F0C0FC3220B8F1000F01D0514600E046
:1018A000FF2104F0B7FC302004F08AFCB8F1000FEF
:1018B00000F06F0014BF0023802340EA0611194393
:1018C000C9B2302004F0A6FC312004F079FC40F0CD
:1018D0004001C9B23120BBE0BCF1020F00D9FEE7E4
:1018E000654C9DF8000084F82B119DF808100CF150
:1018F00007090C2DC4F81C91C4F8205184F8250167
:10190000A4F8267184F8288184F829A184F82A6132
:1019100084F82C1184F82D2184F82E3100F29D805A
:10192000052D0ED9B9F1070F04D1A5F10B03012B39
:1019300008D804E0B9F1080F04D10C2D02D101231D
:1019400001E0062500231D2084F8243104F038FC32
:10195000009B1D2048EA430141EA0911C9B204F085
:1019600059FC1E2004F02CFCCBF3012100F00800F0
:1019700041EA8601014341EA0511C9B21E2004F083
:1019800049FC262004F01CFC94F8241120F00800E7
:1019900040EAC101C9B2262004F03CFC1F205FFAD6
:1019A0008BF104F037FC2020390A04F033FC2120AD
:1019B000F9B204F02FFCB8F1000F03D022205146F9
:1019C00004F028FC94F82B3173B1442004F0F8FBA8
:1019D00060F07F01C9B2442004F01CFC264B242097
:1019E00093F82C1104F016FCB9F1090F11D1D4F8B9
:1019F000E020254B36209A424FF0020104D904F032
:101A000009FC3A20642106E004F004FC3A207F211E
:101A100001E03620032104F0FDFB062D4FF03100DC
:101A20000BD104F0CDFB00F0F80141F005013120AD
:101A300004F0F0FB37200C210AE004F0C1FB00F0B9
:101A4000F80141F00301312004F0E4FB37200A21C2
:101A500009B0BDE8F04F04F0DDBBBCF1020F4FF060
:101A60000C053FF46FAF6AE709B0BDE8F08F00BF27
:101A70000000000080847E41840E00200000F03FC2
:101A80000000204000408F4040DD4A1F38B5012053
:101A900004F0D8FD1120FF2104F0BCFB0024052038
:101AA00004F038FE2546012002F058F82C2004F0FE
:101AB00087FB00F00100A0400134202C45EA00051E
:101AC000F1D1FFF795F9284638BD70B50E460546A9
:101AD000144604F0B7FD3046FFF74EF9052004F038
:101AE00019FE012002F03AF82846FFF703F90546EF
:101AF000FFF77EF9A542CCBF0020012070BD38B5AC
:101B0000092004F05DFB0546062004F059FB04465D
:101B1000072004F055FB000240EA0444082004F0CA
:101B20004FFB204306F06AFC19A3D3E9002305F01C
:101B3000D1FB05F009FE00210446092004F06AFBF0
:101B40003B2004F03DFB40F04001C9B23B2004F0D3
:101B500061FB3B2004F034FB8206FAD40E48FFF709
:101B60000BF93B2004F02CFB40F04001C9B23B20B4
:101B700004F050FB3B2004F023FB8306FAD4092039
:101B8000294604F047FB2046BDE83840FFF7F4B88B
:101B90000000000080844E4000A1BC3338B5254BC6
:101BA000254A1860254B0024DA601C605C601C72BA
:101BB0001C61234B234DDA601C605C601C721C614D
:101BC000214B1C605C601C72DA601C6104F0F8FD43
:101BD000FFF795FF204604F09DFD1C48296805F09D
:101BE000C1F81B48696805F0BDF81A48A96805F0F6
:101BF000B9F81948E96805F0B5F81848296905F0F9
:101C0000B1F81748696905F0ADF8164BE518185D8D
:101C100004F018FD03346878A97804F0FBFA302C3E
:101C2000F3D1002004F00EFD0F4B002283F8DC20DE
:101C300038BD00BF8405002001680008FC0D0020AD
:101C4000E80D002000000020D40C0020900E0020A1
:101C50009C0E0020A80E0020B40E0020C00E002014
:101C6000CC0E00209C8B0008840E0020AFF3008077
:101C7000027812B1012A08D011E042780A4B0AB961
:101C8000022200E001221A7009E043783BB9074BB9
:101C9000197821B19A73027ADA73427A1A74044B72
:101CA00001221A70704700BF150C0020B40C0020F0
:101CB0001C010020054B93F8DD202AB993F8082178
:101CC00012B9012283F80821704700BF840E00205A
:101CD000114B70B593F8DD50012D1CD1122004F08A
:101CE0006FFA10F001060D4C4FF0120008D00521DC
:101CF00004F090FA236873B19B6963B1284607E04A
:101D0000042104F087FA23682BB19B691BB130468C
:101D1000BDE87040184770BD840E00208405002087
:101D20000E4B1A6842F480721A6099680C4A0A4095
:101D30009A601A6822F0885222F001121A601A681A
:101D400022F480221A609A6822F47D029A600022AE
:101D5000DA60044B4FF000629A607047003802402E
:101D60000CC0FF8800ED00E0094B5A6910420DD00D
:101D7000586100230128DAB203F1010301D04008C1
:101D8000F8E7044B53F8223003B11847704700BFFF
:101D900000040140E40F00202DE9F3470F68002301
:101DA00037FA03F200F0BD80012505FA03FA1AEABA
:101DB000070600F0B4804C6824F01008B8F1020F58
:101DC00016D14FEAD30E00EB8E0E03F0070CDEF8AF
:101DD00020204FEA8C0C4FF00F0909FA0CF922EA87
:101DE00009090A6902FA0CF249EA0202CEF8202037
:101DF0004FEA430C032202FA0CF2D243D0F800E07F
:101E000008F1FF3802EA0E0904F0030E0EFA0CFE88
:101E100049EA0E0EB8F1010FC0F800E014D8D0F86E
:101E200008E0CD6802EA0E0805FA0CFE48EA0E0E3C
:101E3000C0F808E0D0F804E0C4F300152EEA0A0E5A
:101E40009D404EEA05054560C56802EA050E8A68B0
:101E500002FA0CF54EEA0502C260E2005FD5324A92
:101E600003F0030C156A4FEA8C0C45F0010515626E
:101E7000126A23F0030502F0010205F18045019288
:101E800005F58035019AD5F808E00F2202FA0CF228
:101E90002EEA020E254A904212D002F5806290424C
:101EA00010D002F5806290420ED002F5806290421E
:101EB0000CD002F5806290420CBF0422052206E09D
:101EC000002204E0012202E0022200E0032202FAE2
:101ED0000CF242EA0E026FEA060EAA60144A14F4EB
:101EE000803F15680CBF0EEA05053543156055683F
:101EF00014F4003F0CBF0EEA0505354355609568A4
:101F000014F4801F0CBF0EEA050535439560D568B3
:101F1000A40254BF0EEA050446EA0504D460013366
:101F20003EE702B0BDE8F087003802400000024002
:101F30000004014003090A2200F00F0002FB030025
:101F4000C0B270470023092803D90A380133C0B250
:101F5000F9E740EA0310C0B2704701380A449142E1
:101F600004D011F8013B00F8013FF8E7704743F255
:101F70003903074907480A6800FB02336FF0004045
:101F8000B3FBF0F00B6003EBC0731844704700BF65
:101F9000F80000206D4EC641974B00212DE9F04F0F
:101FA0001970964B06681A688DB0964205D9944A06
:101FB000147814B111701A68B61A1B689E420AD9B7
:101FC000312E904B83BF01221A708C4B00228ABFA6
:101FD0001B681A70F61A8C4C0660237F012B01D007
:101FE00004F05EFE227F884B012A28D001221A7756
:101FF00002225A771B68CA225A6253225A629A688E
:1020000022F480629A609A6822F480429A607F4A41
:1020100011461568DA6812F004020AD10868401BFC
:10202000B0F57A7FF6D9FF215962032363772277CF
:1020300005E0FF225A620123637700232377744D62
:1020400007A807AC01F0A3FB0FCC0FC571482368AC
:10205000B04228BF3046002808BF01202B6006F0A0
:10206000CDF95FA3D3E9002305F034F902460B460E
:102070009DF81F90CDE904239DF821A09DF826B07E
:102080009DF825409DF824509DF8208006F024F806
:10209000DFF898C10646DCF80400CDF80CC00F4606
:1020A00006F0BCF9DDE90423CDE9000130463946EC
:1020B00006F066F80022584B05F00CF902460B4674
:1020C000DDE9000106F05EF805F016FBB0F5F47FDF
:1020D000DDF80CC002DACCF804000BE0A0F5F470D7
:1020E000CCF804003946304600224C4B06F04AF842
:1020F00006460F463CA3D3E900233046394606F096
:1021000067FA68B138A3D3E900233046394606F0B0
:1021100037F808F1010806460F461FFA88F8E9E784
:10212000304633A3D3E90023394606F051FA58B1BB
:102130002FA3D3E900233046394606F021F80135B4
:1021400006460F46ADB2EBE7304639460022344B27
:1021500006F03EFA50B1304639460022304B06F0C8
:102160000FF8013406460F46A4B2EDE7584606F0D4
:1021700055F93B46324606F005F805F0E5FA83B21C
:102180003B2B04D93C3B01349BB2A4B2F8E73B2C77
:1021900004D93C3C0135A4B2ADB2F8E7172D06D9FD
:1021A000183D08F10108ADB21FFA88F8F6E7C346FA
:1021B000BAF1000F05D01B4A128892441AF0030F9F
:1021C00036D1194A914419F8011C88453CD998FB2D
:1021D000F1F201FB12881FFA88FB35E0AFF30080B3
:1021E000FCA9F1D24D620040000000000018F5404B
:1021F000000000000020AC40D00C0020BC080020F3
:10220000A3080020D10C0020C40F0020800E002065
:10221000A40800204206120000408F400000F03F5A
:1022200000004E40A00800209C8A00088405002081
:10223000344A914419F8018CC34582BF9BFBF8F2E4
:1022400008FB12BB1FFA8BFB2F4F00933A7F012A2A
:1022500054D001223E683A7702227A77E8B2B26817
:10226000FFF770FE8046E0B2FFF76CFE009B05466C
:10227000D8B2FFF767FE04465FFA8BF0FFF762FE05
:10228000CA23736253237362B36823F48073B36009
:10229000F368DBB263F4C073F3601C4B1A46D3F8E7
:1022A00000E0F36813F001030AD11168CEEB0101DD
:1022B000B1F57A7FF5D9FF22726203227A771CE0AA
:1022C0002D0245EA0060204340EA0840F061B3680F
:1022D00043F48073B360B36843F48053B3600C4B32
:1022E0001A6842F400321A609A6842F400329A6026
:1022F000FF23736201237B7700233B770DB0BDE89A
:10230000F08F00BFA88A0008C40F0020800E0020B4
:1023100000040140074B10B51A6822B10468091B7C
:10232000116000211172026101220272BDE81040A9
:10233000186031E6C4080020F8B51F4E054603F0CA
:10234000BBFB3468374604B11DB9BDE8F84003F063
:10235000A9BBAC4220D1237AC3B101F04DFB216867
:10236000346823697BB1002222721A6888420A44C9
:1023700094BF101A501A012233601A72186018465E
:10238000FFF70AFEE1E700233B60DEE72369002B4D
:10239000F9D0226833600BE02A6800E01C4623690C
:1023A000002BD2D0AB42F9D12B692361002BCCD0CA
:1023B00019680A441A60C8E7C408002008B5044830
:1023C000FFF7BAFFBDE808400248012101F0B6BBA3
:1023D0005C0C00208C05002008B50448FFF7ACFF1A
:1023E000BDE808400248012101F0A8BB480C0020CC
:1023F0009805002008B50748FFF79EFF064B1A789E
:10240000064B22B102221A700122054B00E0012284
:102410001A7008BD340C0020FD090020150C0020A6
:102420001C01002070B5044603F046FBDCB1214DD1
:102430002A6813461BB1A34215D01B69FAE76168ED
:102440002372216062B1137A8BB101F0D5FA2B6847
:102450001B68984294BF191AD91A23688B4208D274
:102460002046FFF757FFBDE8704003F01BBB116823
:10247000F3E72D682A6912B95B1A23600EE0106831
:10248000084404E00E6815460A4601463044984266
:1024900007D95B1A23601168CB1A13602C61226183
:1024A000E1E711690029EDD11B1A23601461216154
:1024B000D9E700BFC408002030B5437889B0002BAD
:1024C00040F0EF80784C227812B1A3890133A381C8
:1024D000437B002B00F0DE80C378002B00F0DA8015
:1024E000022B02D9E02B10D0D4E0037B012B40F06B
:1024F000D18083686D4819786D4B01F00101197026
:1025000081F0010101F01AFBC4E072BB037B042BD4
:1025100040F0C08083681A78012A40F0BB805A7866
:10252000012A40F0B7809A78012A40F0B380DB7826
:10253000012B40F0AF805F4B00251D705E4BE02209
:102540001A705E4B02221A7003A801232370637075
:102550008DF81030A581A573E57325748DF80C20D6
:1025600002F0A2FA564B1D7094E083681A786270EC
:10257000072A00F28F80DFE802F0041A1D212535BA
:102580003C634C4A00234C49137002220A704B49A9
:102590001020A38123700870012403A88DF80C205B
:1025A0008DF8104002F080FA454B1C7072E0022258
:1025B000424B43E03F4A012313706AE03D4B002247
:1025C0001A7065E0047B3D4B3E4A1C700423137077
:1025D00000230133D9B2A1425CD28168C95C0131C8
:1025E000D154F6E708A8012300F8143D00F048FD97
:1025F00050E0304B0025304A1D70022313702F4AE3
:102600001021A58125706846012411708DF80030D5
:102610008DF8044002F048FA294B03A81C702A4B9D
:102620008DF80C500493294B0593294B06930323F3
:102630008DF81C3000F024FD264B04221A7029E08E
:10264000027B032A09D102228DF80C205A789B784C
:1026500043EA0223ADF8103017E0072A18D103220D
:102660008DF80C2059789A7842EA0122ADF81020B2
:102670001A79D978120242EA014259790A4364214F
:102680004A4305929B798DF8183003A800F0F8FCB6
:10269000012363701048002101F050FA0F48FFF742
:1026A000C1FE09B030BD00BFB40C0020A40500205D
:1026B000B00C0020C80C00201D0100201E010020CD
:1026C000940B0020700C0020FC000020040100206E
:1026D0000C010020150C00208C0500205C0C002053
:1026E000417808B529B9054801F028FA0448FFF7F0
:1026F00099FE044B01221A7008BD00BF9805002006
:10270000480C00201C0100207047FEE7FEE7FEE7B2
:10271000704700BFAFF300800120704710B5074C31
:10272000102104F1F10004F08BFB0023C4F81431F4
:102730002046BDE81040F02104F082BBB005002027
:1027400030B589B06846102104F07AFB68466946C6
:102750004B4A00F033FE9DF900300DF10F04002BC1
:102760006B460FDA1A7813F8011F520042EAD112B1
:10277000A34203F8012CF5D19DF80F305B0083F0E4
:1027800087030CE01A7813F8011F520042EAD112B5
:10279000A34203F8012CF5D19DF80F305B008DF8B2
:1027A0000F30374BD3F81401194610280FD103F519
:1027B000807300221DF8020013F8011F013241400E
:1027C000102A1970F6D12F4B03F110013FE09DF94B
:1027D0000030002B6B460FDA1A7813F8015F5200B5
:1027E00042EAD512A34203F8012CF5D19DF80F302F
:1027F0005B0083F087030CE01A7813F8015F520046
:1028000042EAD512A34203F8012CF5D19DF80F300E
:102810005B008DF80F3008448023D1F8142180F834
:10282000013101320F2A4FF0000303D8881880F8D5
:102830000131F6E7C1F81421134A1DF8030012F81C
:10284000011F01334140102B1170F6D1BBE701335A
:102850001A78187C8B4282EA00021A70F7D104A819
:102860000A491022FFF779FB094904A8A1F58C72E7
:1028700000F0A4FD6846102104F0E2FA09B030BD72
:10288000B0050020A0060020B0060020A106002010
:10289000C8060020F0B52E4C0646D4F8140185B0C9
:1028A0000D46002843D0C0F110078F4228BF0F46C5
:1028B000204400F201103146BAB2FFF74EFBD4F8C3
:1028C00014313B440F2BC4F814313ED9BD423CD0E7
:1028D00004F1F00304F5807101331A78187C8B42FF
:1028E00082EA00021A70F7D11A483E440146A0F16C
:1028F000F10200F063FDED1B19E012F8011F1F78D3
:10290000824281EA070103F8011BF6D168461149AA
:102910001022FFF722FB69460D4A684600F04EFD83
:102920000C4869461022FFF718FB1036103D102D99
:1029300004D9721E074B06F10F00DEE70648314648
:10294000AAB2FFF70AFBC4F8145105B0F0BD00BFEE
:10295000B0050020A1060020B1060020F0B54B1EF6
:1029600000F11002904204D010F8014B03F8014F1F
:10297000F8E70A2381F8F0300124102003070A7BCE
:102980004F7B8E7BCD7B10D1134B13F807E09F5DFF
:102990005E5D9D5CE30984EA0E0E5A0013447246A4
:1029A00003EBC30383EA4403DCB20B7804305340E7
:1029B0000B744B78C0B27B404B748B78B02883EAA1
:1029C00006038B74CB7801F1040183EA0503CB7312
:1029D000D4D10020F0BD00BF0887000808B50D4B1A
:1029E0004FF47A721B68B3FBF2F3013BB3F1807FC3
:1029F00009D2094AF0215360084B83F823100023C1
:102A00009360072313604FF0FF30002104F07CF93E
:102A1000002008BD2001002010E000E000ED00E0F3
:102A20002DE9F041904607460E461D460E4CFFF735
:102A300075FE21464046FFF791FFF1B23846FFF799
:102A400029FFFFF77DFE94F81A2194F81B3194F8C2
:102A50001811120442EA036294F819310A4342EA57
:102A600003222A60BDE8F081B00500202DE9F0477F
:102A700091461E460D460746F0213148099CDDF877
:102A8000288004F0DDF948462D49FFF767FF2D4AFD
:102A90009DF8203096715371330AD371330C137241
:102AA000230A360E9472D372230C240E567254737A
:102AB0002E46144613734FF00109C6EB050A0F2E7C
:102AC0005FFA8AFA1DD9204984F80F901D4809F150
:102AD0000109A1F1F10200F071FC1FFA89F900234C
:102AE000194A07EB0A0113F802E0CA5C08EB0A0076
:102AF0008EEA0202C2540133102BF1D1103EB6B25D
:102B0000DBE72B0905F0F00615F00F0503F10103D3
:102B100013D00D490B48A1F1F102E37300F04EFC14
:102B20000023094AB9199C5CCA5C08EB06006240A4
:102B3000C25401339AB2AA42F3D3BDE8F08700BF72
:102B4000D806002018000020C90700202DE9F04118
:102B50000E46904607461C4C9DF818200799627552
:102B60001A0AA375E2751A0C1B0E184D63760B0A30
:102B7000A176E3760B0C090E227623776177E67750
:102B8000FFF7CCFD29464046FFF7E8FE04F11000B0
:102B90001021FFF77FFE3846F1B2FFF77BFEFFF70B
:102BA000CFFD95F81A3195F81B211B0443EA026307
:102BB00095F81821134395F8192143EA0223089A3E
:102BC0001360BDE8F08100BF18000020B0050020B0
:102BD0001C4B82B09A6812F0F00F1ED15A6A1A4943
:102BE00012F0805F03D00A6802F4C0520FE05A6A04
:102BF00042F080525A625A6A02F080520192019A5F
:102C00000A68596A02F4C05221F080515962B2F543
:102C1000C05F02D1B0F5404F01D0002305E00B4A60
:102C2000136843F004031360012308490A6822F083
:102C300001021A430A60086800F00100584002B01F
:102C4000704700BF0038024000700040003C024066
:102C5000094B4FF460529B6892FAA2F2B2FA82F2E8
:102C600003F46053D340054A1344054A93F80031F6
:102C70001068D840704700BF00380240088700083D
:102C800020010020094B4FF4E0629B6892FAA2F207
:102C9000B2FA82F203F4E063D340054A1344054AD2
:102CA00093F800311068D840704700BF00380240E8
:102CB000088700082001002037B5914C2368196867
:102CC000DA68CD0705D5D00542BFE26B42F00102BC
:102CD000E26319685A69890702F0010204D51AB142
:102CE000E16B41F00401E16319684D0704D51AB1A5
:102CF000E16B41F00201E1631968080704D51AB1DC
:102D0000E26B42F00802E2631968DA68890666D568
:102D1000950664D594F83910794A01F0EF0122291B
:102D20005DD19168B1F5805F10D11069916A30B9B9
:102D300058680B46C0F3080023F8020B04E05868FB
:102D40000B46C0B223F8010B93620DE0116921B963
:102D5000916A5B68481C906205E0916A5B68481C58
:102D6000906203F07F030B70E38D654A013B9BB2D9
:102D7000E385002B33D11368D96821F02001D96095
:102D800092F83910322917BFD968122321F48071C3
:102D9000D9601FBF596921F001015961012382F8EF
:102DA0003930584BB3F85622B3F85C02013292FB2B
:102DB000F0F100FB1122B3F8541292B291421FBFFE
:102DC0005149A3F856220878D3F8581218BF8854EE
:102DD000D3F860320BB10120984704F06BF82368F8
:102DE000474A1868D968000628D50D0626D592F8F6
:102DF000391001F0DF01122920D19168B1F5805F0F
:102E0000116A0AD10888C0F308005860106908B92F
:102E1000023100E00131116203E0481C10620A78BF
:102E20005A60E28C013A92B2E2843AB9DA6822F04E
:102E30008002DA60DA6842F04002DA602168304BE2
:102E40000868CA6840064BD5520649D5CA6822F0C0
:102E50004002CA6093F83920322A0CBF2222012294
:102E600083F83920274BB3F84822B3F84A0290423E
:102E700031D0B3F85052013292FBF5F005FB10222D
:102E8000D3F84C5290B2285CA3F8482294F8392029
:102E900083F86402D2B2012A01D0222A1BD194F80D
:102EA0003800174A012816D0012082F83800908493
:102EB000D084164D0020D063156292F83950222D2F
:102EC0000CBF3225122582F83950CA6884F83800C0
:102ED00042F08002CA60D3F860320BB100209847FC
:102EE000E26B074B52B11A68116801915268019266
:102EF000019A012283F8392003F0DCFF03B030BDD2
:102F000024100020B00500206410002014080020C8
:102F10002DE9F84F8B46144600210C22054604F09B
:102F2000FFFE4D4B03EB8B02D2F808814B4A9045D4
:102F300007D04B4A90450CBF4FF0020A4FF0000AF1
:102F400001E04FF0010ABBF1070F0DD1454B93F89B
:102F5000280105F053FA02460B460020424904F0CE
:102F6000E3FA0022414B13E05B4493F8283101203F
:102F7000984005F053FA064640460F4605F03EFAE3
:102F800002460B463046394604F0CEFA384B002252
:102F900004F0A0F9064660000F4605F02FFA8046BF
:102FA0008946344C94F870020438400005F036FA33
:102FB00032463B4604F08EF942464B4605F0E2F8B5
:102FC00032463B4604F0B0FA04F072FF04F0BCFB5A
:102FD00094F87042A04214D9201F400005F01EFA58
:102FE00032463B4604F076F942464B4605F0CAF8B5
:102FF00032463B4604F098FA04F05AFF04F0A4FB72
:10300000044600221C4B3046394604F063F98046E2
:103010002046894605F0F2F932463B4604F05AF95B
:103020000022164B04F056F902460B46404649462C
:1030300005F0A6F800220C4B05F0A2F804F038FFCA
:1030400085F800B085F801A06C6004F055FBA8601D
:103050002846BDE8F88F00BF0887000890D003001D
:1030600020A107000F8700080000F03F000020406B
:1030700000408F40B0050020000010400000E03FFD
:10308000F7B50646002800F0D7806F4CD4F8A07240
:10309000FA0700F1D38004F529700C2103F0D0FE6B
:1030A0003578012384F8A532032D00F2B980DFE8DA
:1030B00005F002436095FB0600F1C08070680028AF
:1030C00000F0BA80B168002900F0B680F268002AEA
:1030D00000F0B280337C002B00F0AE802F2B9CBF21
:1030E0003023337494F8B032002743F0080384F897
:1030F000B032337C02AE84F8C0323B4667F34713EC
:1031000006F8043DC4F8B812C4F8BC22C4F8B402EE
:1031100084F8A47284F8C17201F03CFF012001F030
:1031200085FF394684F869023A4630463B4602F04C
:10313000C7F9002875D184E094F8B03294F8C3221E
:1031400043F0080384F8B032C2F10F0294F8C2329F
:10315000D2B2012093423C4984F8A40261D21A18E9
:1031600081F8C2220B44022283F8C42281F8D302E0
:1031700066E0022384F8A43294F8B032334D43F071
:10318000080384F8B03294F8D4320C2205EBC30360
:1031900093F861302E4902FB035393F9222094F9EE
:1031A00068322C489A42ACBF8B18CB18B68893F87B
:1031B0003071FFF7C1F84FF47A732648C4F8D8325B
:1031C000C4F8DC32FFF72EF994F8D43279B205EB6B
:1031D000C305E86D3246FEF785FA1AE0032384F84A
:1031E000A43294F8B03243F0080384F8B032B068E7
:1031F00096F90C10B288FEF775FA1648FFF79CF89E
:103200004FF47A731348C4F8D832C4F8DC32FFF7AD
:1032100009F9D4F8A03243F00103C4F8A0320FE05A
:10322000022094F8B032002262F3C30384F8EC2247
:1032300084F8B032054604E0032502E0012500E0F1
:103240000025284603B0F0BDB0050020180000207E
:10325000088700088808002010B513780C786340B0
:1032600003704C785378634043708C789378634054
:103270008370CC78D3786340C3700C791379634042
:1032800003714C795379634043718C79937963402E
:103290008371CC79D3796340C3710C7A137A63401C
:1032A00003724C7A537A634043728C7A937A634008
:1032B0008372CC7AD37A6340C3720C7B137B6340F6
:1032C00003734C7B537B634043738C7B937B6340E2
:1032D0008373C97BD37B4B40C37310BD2DE9F34788
:1032E000804689460746C8EB070017F8013B002BCC
:1032F0005CD0304A12689168894502D0D268914505
:1033000052D12D4E8DF8073096F83930B246DBB2E7
:10331000012B01D0222BE6D196F83830264A012B1A
:10332000E1D00021D16392F83910012322290CBF8A
:103330003221122182F8391082F83830B384F384B4
:103340000DF10705BAF826301B4CE3B1013BE384CD
:10335000A3688020B3F5805F0CD103F0E5FD002861
:10336000C1D12A882368C2F308025A60236943B98D
:103370000235E7E703F0D8FD0028B4D123682A78A6
:103380005A600135DEE7402003F0CEFD0028AAD1C7
:1033900094F83930322B0CBF2223012384F83930C2
:1033A000002386F838309EE74FF0FF3002B0BDE8CA
:1033B000F08700BF50050020241000202DE9F04FB9
:1033C000ABB0259192F8F01003461446002900F0A6
:1033D000DA8126A81946FFF73FFF012294F8F03062
:1033E0009DF8986093429DF89D309DF8A2700093DF
:1033F000B94B40F27581D95D00980191B7499DF8AC
:10340000A750085C01EB07080D9098F800019DF8A3
:10341000A1A00E90009813F805C0185C9DF8A69026
:103420000290C85D4F190F9097F800018F19109006
:1034300097F8000101EB0A071190485D9DF89C5038
:1034400097F8007111F80580129088EA0700139030
:1034500013F809009DF89B800390585D13F80870DD
:1034600013F806E0049011F80A0001EB090B149020
:103470009BF800010D44159013F80A009DF8A5A0D3
:10348000059011F8090001EB0809169099F8000160
:10349000179095F800019DF8A050189011F80800B9
:1034A00001EB0A0811F8059098F80081199089EA53
:1034B00008009DF89A909DF89F801A9013F80900D3
:1034C00001EB090B069013F808000790585D0D44B6
:1034D000089011F80A001B909BF800011C9013F84B
:1034E0000A00099011F8090001EB08091D9099F8EC
:1034F00000019DF899A01E9095F800019DF8A45038
:103500001F9011F8080001EB0A0811F8059098F8CF
:103510000081209089EA08009DF89E909DF8A38084
:10352000219013F8090001EB090B0A9013F8080029
:103530000B90585D0D440C9011F80A0013F80A30F6
:1035400022909BF8000111F808A0239011F80900BF
:1035500001EB08092490009895F800B1084499F807
:10356000009190F80001895D4FEA021848400199E6
:1035700004EB0805484014F808108CEA00004840A5
:1035800069788CEA0E0C8CEA010C0D998DF8980084
:1035900081EA0C0C0E99029881EA0C0C02998DF8C4
:1035A00099C08EEA010EA97801328EEA010E0F99B8
:1035B000D2B281EA0E0E109981EA0E0E01998DF8B1
:1035C0009AE04840E97841401198414012984140C2
:1035D0008DF89B1013982979414003984140794018
:1035E0008DF89C10049905984F4069794F401499C3
:1035F0004F4015994F4004998DF89D704840A97926
:10360000414016984140179841408DF89E1003990B
:10361000059895F808804840E9794140189841405C
:10362000199841408DF89F101A99089881EA080866
:10363000069981EA0808079981EA08084840697AEA
:103640008DF8A08041401B9895F80C8041401C9853
:1036500041408DF8A110099808994840A97A414045
:103660001D9841401E9841408DF8A2100998069976
:103670004840E97A41401F984140209841408DF8E8
:10368000A310219981EA08080A9981EA08080B9990
:1036900081EA08088DF8A4800C984840697B414075
:1036A00022984140239841408DF8A5100C9981EA59
:1036B0000300A97B41402498414089EA01090A9905
:1036C0008DF8A6904B40E97B4B408BEA030B8AEACE
:1036D0000B0A8DF8A7A081E6088700089C880008DF
:1036E000995D00988DF898109DF89C10185C595CB5
:1036F00004EB02128DF89C109DF8A010595C8DF817
:10370000A0109DF8A410595C8DF8A4109DF8991094
:103710008DF899009DF8A100595C185C8DF89D000A
:103720009DF8A5008DF8A510185C9DF89A108DF8ED
:10373000A100595CD85D8DF8A2108DF89A009DF813
:103740009E109DF8A600595C185C8DF89E008DF8BF
:10375000A6109DF8A3009DF8A710185C8DF8A7008F
:103760009DF89F00185C8DF8A3009DF89B00185CE5
:103770005B5C8DF89F0026A925988DF89B30FFF79C
:103780006BFD002000E0FF202BB0BDE8F08F294B3F
:103790002DE9F74F1E6804463068C0F3062800F094
:1037A0007F0700F48005C0F30540FEF7C3FB8146A8
:1037B0004046FEF7BFFB80463846FEF7BBFB074698
:1037C00070682D0C00F03F03C0F3042BC0F3423AA5
:1037D000C0F307400193FEF7ADFB06465846FEF7DF
:1037E000A9FB019B83461846FEF7A4FB124B632EF0
:1037F00004BF012199701A889B78EDB20E493BB144
:10380000B318934201BF00238B7002F164030B8055
:1038100020712046228084F802A084F803B06671EB
:1038200084F8089084F80980A772E57203B0BDE8B7
:10383000F08F00BFC40F0020A00800202DE9F04F3A
:103840008BB088B905A8FFF7A2FFBDF814B09DF8AA
:1038500017409DF818909DF819809DF81C609DF800
:103860001DA09DF81E500AE0B0F800B0C47890F892
:10387000049090F80580067A90F809A0857A0027D0
:1038800000220023B8B208EB0B010FFA80FE8E4530
:1038900013DA08B1B80705D11046194638A3D3E9A1
:1038A000002304E01046194637A3D3E9002304F0AF
:1038B00069FC013702460B46E4E7013C0027B8F1FA
:1038C000000F01D089071BD1F9B2A14207F101070E
:1038D00032DA2F48CDE90223014491F800122D4835
:1038E000484304F08BFDDDE90223CDE900011046D9
:1038F0001946DDE9002304F045FC02460B46E3E7E8
:10390000F9B2A14207F1010716DA2148CDE90223F5
:10391000014491F80C121F48484304F06FFDDDE9A3
:103920000223CDE9000110461946DDE9002304F029
:1039300029FC02460B46E3E73C2000FB0AFA4FF461
:10394000616000FB06A61348354400FB0950CDE931
:10395000002304F053FDDDE9002304460D46104624
:10396000194622462B4604F00DFC00220A4B03F0B8
:10397000B1FC04F0B1FB03F0E7FE0BB0BDE8F08F43
:103980000000000050287E410000000038137E41F6
:103990009C880008805101000040DF3F0C4B5A68B2
:1039A000D2074BBF1A680B4B42F0040201224CBFF6
:1039B0001A60DA70084A936803F00C03042B03D0F2
:1039C000936813F00C0F01D1FCF7E6BB704700BF02
:1039D00000700040A00800200038024010B50446E6
:1039E00040B10020FFF72AFFA042A0EB040401D25F
:1039F000601E10BD204610BD10B50020FFF71EFF51
:103A000004460548FFF71AFF8442A4EB000038BFC4
:103A100000F1FF3010BD00BFA4080020F0B5434DF9
:103A200087B02B689A68D40407D5DA68D00541BFFF
:103A3000DA68D2B262F4C072DA609A68910407D58B
:103A4000DA68920541BFDA68D2B262F42072DA60B5
:103A5000374B4FF400325A6101236B772B7F012BD8
:103A600001D003F01DF9334CFFF798FF237E8BBB89
:103A700001A8FFF78CFE2B68DF69C7F30540FEF74E
:103A800059FA0546C7F30620FEF754FA064607F032
:103A90007F00FEF74FFA9DF80D309DF80E203C2771
:103AA00007FB032207FB06009DF80C304FF4616111
:103AB00001FB032301FB0500181A04F09FFC1E4BB9
:103AC000002203F007FC04F0F3F903F03DFE0123AC
:103AD000E0612376636A002584F8205023B3FFF762
:103AE0008BFF144B5B6A1A6890423CBF121A1A6033
:103AF0004FF0000228BF1D601A72606A08B9606248
:103B000012E0036833B9C3680069002BF6D0606225
:103B10009847F2E7037A606233B90123037207B072
:103B2000BDE8F040FEF738BA07B0F0BDC40F002082
:103B300000040140A00800200040DF3F90F9003061
:103B4000C3F30712062A08D8013306D04388426817
:103B500011F0FF0F08BF1B049361704782B0054B43
:103B6000019018681A680199121A8A42FAD302B0B1
:103B7000704700BF800E00200FB42DE9F04FA7B0B2
:103B800004ACA246524F30AB3A6853F8045BD2F80B
:103B90000880504A039302F1200E264610685168AF
:103BA000083203C672453446F7D1106826AC4FF090
:103BB000000B306004F864BDA1462A7822B9BBF13D
:103BC000630F6FD8227079E0BBF1630F6AD8252AA2
:103BD00002D00135227004E06978252905D12170D1
:103BE00002350BF1010B0134E7E7302905F101063D
:103BF00014BF2021AE1C002230783546A0F1300ED3
:103C0000BEF1090F06F1010607D802EB820200EBB4
:103C10004202303A02F0FF02EEE70BEB0206642E9E
:103C2000C4BFCBF16402D2B2692817D00BD8632885
:103C30002FD0642812D0582840D11E1D1B68204662
:103C4000009301231BE075280ED0782812D073282A
:103C500034D11E1D1B682246013B13E01E1D204669
:103C60001B6803F0F2F918E01E1D20461B6803F0E4
:103C700022FA12E020461E1D1B680093002303F069
:103C8000BBF90AE013F8011F101B31B102F8011B48
:103C9000F8E71E1D1B68012023700135044483448E
:103CA00033468AE70023BBF1640F04F8013C05DDCD
:103CB0003B685046D968FFF711FBFEE7484641468E
:103CC000FFF70CFB27B0BDE8F04F04B0704700BF12
:103CD00050050020B48A000813B50D4C2046FEF7AD
:103CE0002BFB0C480C4B007893F90C10A0F1020E42
:103CF000DEF1000040EB0E005A7B1B8A0090074863
:103D0000406A01F061FE08B10123237502B010BDC5
:103D1000C8080020FC090020980B0020180800208B
:103D200008B50E4B1B78022B02D0FDF761F801E0BD
:103D3000FFF7D2FF0A4B1B7D012B0DD1094B1B78DE
:103D400013B1094B03225A70084B03225A70084AD8
:103D5000137843F01003137008BD00BFFC09002066
:103D6000C80800209C080020B80B00205408002040
:103D70006008002008B50A4B1B78022B02D0FDF723
:103D800037F801E0FFF7A8FF064A02235370064AFE
:103D90005370064A137843F01003137008BD00BF38
:103DA000FC090020B80B0020540800206008002007
:103DB00013B50E4C04F11800FEF7BEFA002323756C
:103DC0000B4B1B78022B01D1FCF7FCFF094B0020A9
:103DD0001C78094B93F900105A789B88009007488B
:103DE00050F8340001F0F0FD02B010BDC80800200A
:103DF000FC09002084080020980B0020740000209B
:103E00001FB51748FEF798FA164A136823F01003F7
:103E10001360154B1B781B071ED5144B1C78DCB99F
:103E200001F0B8F8124B1878013001F0FFF8114B8F
:103E3000114A5870234664F347138DF8083023461F
:103E4000127802A862F3C7138DF80C30009403A90E
:103E50002246234600F0FEFE01F009F904B010BD31
:103E6000D00B0020500800206008002054080020DB
:103E70007108002018080020FE090020F8B58F4DB9
:103E80008F48FEF759FA2B788E4C13F0100F00F084
:103E9000C9802268500644BF22F04102226013F01C
:103EA000090015D0884A5178022903D087494978FA
:103EB00002290DD12168864E21F0010121600021E7
:103EC0003170844E1171367891605671012200E094
:103ED0000022814E317800293BD1002A39D10028B7
:103EE00037D0190711D57949087870B97B4B1B7801
:103EF0008B72497821B97A4B1A607A4B1A7024E098
:103F0000794A12789A4220D909E0764A774910789E
:103F100091F8201003F00203884207D233B92B78BE
:103F20006FF304132B70FFF76BFF12E003F0FF0138
:103F30002BB9674B19706E490B6801330B60002376
:103F40001370674A136801331360236823F0010379
:103F500023602B78674F13F0020F16D05A4B5D4A3F
:103F60001979184621B9644B11781B7899420CD9FC
:103F70005B4900233B7033700B6801330B6013788F
:103F80004371236823F0010323603B78002B49D061
:103F9000226812F0100145D1564B4E4F5648197009
:103FA00000783B7898422AD9082B28D80133DBB215
:103FB0003B70DB0709D54D4A537858B20128D2BF70
:103FC0000B4603F1FF33DBB2537001F050F820B918
:103FD0002B7860F304132B7024E03B4B08223C4900
:103FE0005A7000220A7032701A713A7821685A7138
:103FF0003E4A21F00101527821609A700EE03B4860
:1040000022F00102818D226041F007018185304953
:1040100000220A702C4932700A714B71304A1368C1
:104020000133136023689E0742BF264A23F0020330
:1040300013602668F6B92B78204CD80708D52F4B8B
:104040002148DB6A1B689847237866F300032370D6
:104050002B781A4C190708D5284B1C48DB6A9B683B
:10406000984723786FF3C30323702B786FF30413FF
:104070002B700AE0124C2046FEF75EF94FF47A737B
:10408000204623606360FEF7CDF92B789A0713D59D
:104090001B4B1B78022B01D1FFF71EFE2B785B0711
:1040A00004D4164B1748DB6A5B6898472B7803F0FB
:1040B000FB036FF341032B70F8BD00BF60080020C5
:1040C0008808002050080020B80B00205408002069
:1040D00072080020F50000209C08002071080020D4
:1040E000640A0020840B00207008002018080020BB
:1040F000800B0020850B0020F4000020C808002061
:10410000FC090020FC0B002008B5154B1B78022B86
:1041100002D0FCF76DFE01E0FFF7DEFD114B124A05
:10412000197D1278114B71B912B1114A04215170E5
:1041300004225A700F4B1868FFF750FC0E4B1B6897
:1041400098420BD305E012B1094A052151700522AE
:104150005A700A4A137843F01003137008BD00BF69
:10416000FC090020C80800209C08002054080020FA
:10417000B80B0020900B0020B40B0020600800203A
:104180000D4A10B5136843F0400313600B4B1B78C6
:104190000BB101F06FF90A4A0A4C1378204643F03C
:1041A00012031370FEF7C8F80123236063602046F2
:1041B000BDE81040FEF736B9500800209C080020EA
:1041C00060080020880800202DE9F04F0446C04F09
:1041D000C04DC1485FFA83FB3B7D8FB0884600210C
:1041E00001716B740991EA81E970A9706971A96024
:1041F00029736973A9746961297085F810B0FCF797
:10420000F7FD3846FEF798F894F800A04FEA5A13E5
:10421000013B062B00F2D681DFE813F00700D40142
:104220000801D4010801D401BF01AC4E33780BB1B1
:1042300001230CE1AA4DAB48D5F80090F02102F023
:10424000FFFDA8494846FEF789FB601CA649A54A20
:10425000FFF7B4F808F1FF330F2B05D904F1110073
:10426000A249A04AFFF7AAF8994CA8F1040104F169
:1042700030002A6809AB89B287F830A0FEF7D0FB7E
:1042800007EB080090F82E3090F82D201B0443EA2D
:10429000022390F82C20134390F82F2043EA026366
:1042A000099A934240F0BE808D4B8E481D68904B1A
:1042B000F0211B880DF12809ADF8223002F0C0FD75
:1042C00028468849FEF74AFB4846102102F0B8FD0F
:1042D00001230DF1290004F1310106228DF8283067
:1042E000FDF73BFE0DF12F000DF122010222FDF73B
:1042F00034FE7C4A7F494846FFF760F84846102163
:1043000002F09EFD02250DF1290004F13101062283
:104310008DF82850FDF721FE2A460DF12F000DF1F2
:104320002201FDF71AFE74496E4A4846FFF746F827
:1043300094F8363094F835201B0443EA022394F8AD
:10434000342094F83C0013436C4A6D4D136094F88C
:10435000393094F838201B0443EA022394F83720BC
:1043600010F00F0043EA020394F83A2008BF01203E
:1043700043EA0263634A136094F83B30C3F30212CA
:1043800003F00F0385F8212085F8283004F036F873
:1043900000225D4B02F09EFF03F0D6F9286104F085
:1043A0002DF80022584B03F0EDFE03F0CDF9B8F1E3
:1043B000110F68612ADD50238DF82C30534B3034B7
:1043C00098461A68032742F020021A60E37BA27B1A
:1043D0001B0443EA0222637B13436422534306D047
:1043E0000A93384699E8060000F0C4FA02E038461D
:1043F00000F09AFA0137FFB2082F04F10304E5D167
:10440000D8F8003023F02003C8F80030404B0022D9
:104410005A70404801233370FFF7AEFB3E4B5B7888
:104420006B70D3E03A4B06225A70CFE0E278A37863
:104430001204617842EA032322790B4343EA0263C0
:104440000493304B049A1B689A4202D00A236B7083
:10445000A0E0324B677904EB08021D6807F00F03F8
:1044600003F1080C059312F8023C12F8036C1B04CC
:1044700043EA062312F8046C94F80790334312F8C9
:10448000016CCDF81CC043EA06630693A379A8F13A
:10449000040143EA0929C5EB09091FFA89F90FFA52
:1044A00089F3002B3CDB09AB4D4401260293114AF2
:1044B000049B00960195204689B2FEF747FB099BB5
:1044C000069ADDF81CC09A42024B40F08F803FE014
:1044D000C8080020FC0B0020B80B0020FD090020BC
:1044E0006C080020D8060020F908002009090020E7
:1044F0006E0B0020080A0020180A0020000A002085
:1045000018080020040A002000408F4050080020B6
:1045100054080020D88A00082C0A0020680A0020CD
:1045200005F580371F4401238DE8880009AB02930D
:10453000774A049B204689B2FEF708FB099B069A3E
:104540009A4208BF3D46734B09225A705D6121E0D3
:10455000B9F5804FF7D27048002202606F48C7F368
:104560000011597102706E490AF0E000A0284A70EB
:1045700089465A709A709A601A735D6169493AD097
:104580000A701A70684A1268AA423ED1002A3CD0CA
:1045900007225A70FFF7F4FDB7E0644E42463046FA
:1045A000611CFDF7DAFC0323614A2B7000236B705A
:1045B000137808F1FF38AE6085F80C8043F00203F1
:1045C000137003E001236B70FFF7DAFD584A594C72
:1045D0001378204643F010031370FDF7ADFE01235E
:1045E000204623606360FDF71DFF8EE0B9F5804F24
:1045F000A9D20B22CDE71E704B4B0E701B68AB424D
:1046000003D1AE1A18BF012600E00026464B1D60FC
:1046100099F80030012B01D1B90602D5464B002292
:104620001A70A8F10403CCEB0303002B41DD059BBA
:1046300014F80C2009330693059BC3F1F303984447
:10464000344B5FFA88F8DA709A469AB917F00F0A75
:1046500059D101238DE82800069B344D2344184688
:1046600041462B4A0295049BFEF700FA2846514624
:10467000424623E03A0705D02046082162465B46C1
:1046800000F042FF069B0195284D23444FF0010B9B
:104690001846CDF800B002954146284A049BFEF723
:1046A000E5F986BBCAF808508AF80C808AF80DB084
:1046B00008E03B0705D02046624608215B4600F033
:1046C00023FFCEB907F0200707F0FF064FB1114ACC
:1046D00001231B4889F8043093740026FDF72CFE53
:1046E0000AE0184B89F804601A78174B1B789A4235
:1046F00002D91348FDF720FE0D4A137843F0020358
:1047000066F382035CE70126F6E70FB0BDE8F08FA1
:10471000080A0020FC0B0020800B002073080020FA
:10472000B80B0020700B0020680A0020F808002059
:10473000600800208808002072080020180A002065
:10474000E40B0020F5000020F40000202DE9F84FD4
:104750000020FFF773F8604D07462B78022B02D03C
:10476000FCF746FB01E0FFF7B7FA5C4B5C4E1B78A9
:10477000002B3CD05B4B5C4C1B6804F11800A3F190
:104780001E08FDF7D9FD04F11800C4F81880C4F81C
:104790001C80FDF747FE2B78022B0CD0534B204694
:1047A000D3F80080FDF7C8FD2046C4F80080C4F8A7
:1047B0000480FDF737FE2B78022B01D0337823B32A
:1047C0004A4B4B4D1C68FDF7D2FB40F2D17390FB76
:1047D000F3F202FB130004442846FDF7ADFD04F597
:1047E0007A7428462C606C60FDF71CFE0DE0414A8F
:1047F0005370414B03225A70404B1A780AB9012278
:104800001A701A7842F010021A703D4B3D491C781C
:104810003D4DE4000B195A790C2353433B48EA18E9
:1048200057600760EF5A00239360394B8A461B7824
:10483000DFF8F0B05BBB2C4BD3F83001FFF7CEF8BC
:1048400003F0DCFD20A3D3E900238046894603F072
:10485000ABFE68B91EA3D3E900234046494603F0E6
:10486000A3FE002842F2107318BF4FF47A7300E0E1
:104870006423BB4238BF3B4654446279DBF8007086
:104880000C21013B01FB02557B43AB6007E0214B50
:104890001B7823B1DBF80030013F5F4397601E4B6C
:1048A0001E491B88DBF800005A1E0B6800FB023310
:1048B0000B6033782BB90F4A5370194A13780133C0
:1048C0001370BDE8F88F00BF0000000040774B4137
:1048D00000000000FCE18241FC090020F6000020FD
:1048E0009C080020B00B0020C8080020B40B00205A
:1048F000E40B0020B80B00205408002060080020C2
:10490000840800207400002038000020900B002054
:10491000FD090020940B0020880B00208C0B002048
:10492000840B0020CC0B00200F4B10B51B68DA075E
:1049300001D59B0613D5C31E0C2B12D80B4A00239E
:104940000B4C42F8303002EBC002A18D1371537151
:104950000122824021EA0202A285184610BD0120F0
:1049600010BD032010BD00BF5008002074000020BF
:10497000180800202DE9F3418DE806009DF8042079
:104980000E460F2842F3030142F303120746E8469E
:10499000D4B241D8354B1B68D80701D59B063DD50D
:1049A00049B252B2914201DC002939DA0124022FC6
:1049B0000CD82F4B53F83730F51A18BF01250029B2
:1049C000C8BF0124042AD8BF012400E000253046D6
:1049D000FDF7A2FE30B32EB325BB264B264A334447
:1049E000934228D9254B264A334493421FD9254B5D
:1049F000254A334493421CD9244B254A33449342DD
:104A000019D9244B244A3344934216D9234B244AC0
:104A10003344934213D905E0032023E0012021E031
:104A2000E409C4E7002C14BF062004201AE02B463A
:104A300006E0012304E0022302E0032300E0042354
:104A40000CB105200EE00A4A98E8030002EBC70209
:104A500082E803002046134953718A8D0123BB402D
:104A600013438B8502B0BDE8F08100BF50080020E1
:104A70007400002040AA8FCC7F841E00C02571CC1A
:104A8000C0C62D00FF5E43CCBF270900A0B038CCC4
:104A900020A1070040022ECC90D00300606E29CCEC
:104AA000E09304001808002038B5002800F0AC801E
:104AB0005E4B1B68DB0700F1A38004781C2C00F21E
:104AC000A180DFE804F00F2024282C30353B429FE2
:104AD0004749544F5C64686C7074787C8480888C1F
:104AE0009F9096000579524B1D7045B1022D40F004
:104AF0009B80504B00221A70FFF7EEF894E0FCF711
:104B000077F92C4690E00279494B5A708BE0027994
:104B1000474B9A7087E04268454B5A6083E0426891
:104B2000434B9A607FE0416800296DD0424803E022
:104B30004168002968D0414810221DE000793C4BB3
:104B400083F82C0001F0BCFD6DE00279384B83F84E
:104B50002D2068E03A4B00E03A4B043003C883E86C
:104B6000030060E0416800294ED0374803E0416807
:104B7000002949D035480222FDF7EFF953E00379C7
:104B80005A1E0E2A40D8324A82F820304BE0426842
:104B90002F4BDA6047E042682D4B1A6143E04268D0
:104BA0002B4B5A613FE04268294B9A613BE04268D7
:104BB000274BDA6137E00379052B27D924E0037905
:104BC000072B27D920E00379052B26D91CE0037990
:104BD000052B26D918E04268154B9A6623E04268F7
:104BE000134BDA661FE04368114A5363184A536057
:104BF00019E003790E4A82F83830154A137212E030
:104C0000012411E002240FE003240DE0084A82F899
:104C1000313008E00E4A537005E0054A82F8303022
:104C200001E00B4A13700024204638BD50080020D4
:104C3000FC0900209C080020080A0020180A002017
:104C40003C080020500A0020580A00204408002098
:104C5000180800202DE9F04F89B0BDF848500F46E4
:104C600000218B4208BF0D469346B14AB14C1170EA
:104C70001E460378EDB284F87330037807915B0920
:104C8000A4F8701084F87250072B00F27881DFE8E6
:104C900013F0080076015E0076015C007601760173
:104CA00069010123A4F87030A34BA44A1B6803F1E7
:104CB00008018B4204D013F8010B02F8010DF8E74C
:104CC0000923A4F870309E4B9E4A1B6803F108012B
:104CD0008B4204D013F8010B02F8010DF8E7112301
:104CE000A4F87030FCF7D2FEB4F8705082B26319A9
:104CF00083F873006B1C9BB2A4F872212344120A40
:104D000083F87320AE1C904BB6B2F1B21A688F488C
:104D100007ABFDF785FE079BEA1C92B22244190AF5
:104D2000264486F8733082F873102A1D92B222440A
:104D3000190C82F87310AA1D0535ADB2A4F87020C5
:104D40001B0E2C4484F8733017E101231370637831
:104D5000DFF8E081002B00F0148138780121C009D0
:104D60007B4A00F0F1FD3B7860F386133B7098F8C6
:104D7000743133B1002388F874313B7843F0200359
:104D80003B70D4F80880D4F868A04FEA182384F860
:104D900075304FEA184384F876304FEA186384F888
:104DA000748084F877303B78DFF8B4C184F87830C9
:104DB0004FEA1A2384F87A30664BDFF8A09118780E
:104DC00005935C4B9CF8002003F275114844CDF824
:104DD00010C084F879A0FDF7C0F8059BDDF810C07D
:104DE0001A789CF800101144C9B219705A4AEEB1F1
:104DF000E5B10F2922D8137803B33B78C3F303003E
:104E0000084460F303034B483B7080F8783000237C
:104E100098B2884206D24D4819F8035018440572DA
:104E20000133F5E701F10800C0B208E031B11378B1
:104E300023B14A4E84F872104FF0000B0820002373
:104E400013701A468B4228D219F80350033D052DE2
:104E500020D8DFE805F01D1F031B1D140133A71820
:104E6000551CDBB24FF0050E87F875E1EDB219F86D
:104E7000037002322544D2B285F875710AE0551CE0
:104E80000827224482F87571EAB203E0023300E099
:104E90000133DBB20133DBB2D4E7314B1A7012B10C
:104EA0002D4B01221A7016B394F87210214AF1B1F9
:104EB000451C1044EDB280F873B002F1730389B25F
:104EC000BBF1000F08D12B44CDF800B0CDF804A001
:104ED000029330460C3206E000208DE80104304693
:104EE0002B4402931C324346FDF7C0FD284694F83C
:104EF000726007AB064415480025A0F167020293D3
:104F0000314643468DE82004FDF720FE079BA21999
:104F1000190A82F8733082F87410301D190C1B0EB8
:104F200082F8751082F87630A4F870002BE000BF8C
:104F30009C080020FC09002068080020780A002056
:104F400064080020800A00206C0800206F0A0020FE
:104F5000190800207208002083080020740800202F
:104F6000730800204EB175B1ADB22A4608483146EB
:104F70000135FCF7F2FFA4F87050002004E0022095
:104F800002E0072000E0284609B0BDE8F08F00BF2E
:104F9000700A002038B51D4A1D4C01231370537050
:104FA0009370A4F88C3194F830201A4B1A491A7077
:104FB00094F8312000250D705A70184994F851204A
:104FC0000D7083F8212004F1540103F1240203C978
:104FD00082E8030003F12C000C2204F15C016570EF
:104FE000A566E566C4F8845184F8885184F889512F
:104FF00084F88A51FCF7B1FF094B10221D70094B50
:1050000084F874511D70084B1A7038BDF4000020EC
:10501000FC090020180800207208002073080020F6
:105020009C08002083080020840800203022B0FB68
:10503000F2F302FB13039BB283B1C20610D0182215
:10504000B0FBF2F302FB13039BB25BB103070BD07F
:1050500010F0070F0CBF0420052006E0184604E0FE
:10506000012002E0022000E0032040B270472DE959
:10507000F04FB84A97B092F88A319346FF2B00F070
:10508000D68163B9C2F8903109E0002A40F0A180CE
:105090009BF831307370B38D43F00703B385102153
:1050A000AD4E12A801F0CCFE00221346B246B18DDF
:1050B0000120904000EA0104844208BF013302F15C
:1050C000010208BFDBB2102AF2D113B941F0070187
:1050D000B185DBF89401DBF89041FEF77FFC844258
:1050E0009C4D5ED80023C5F890319C4D4FF0FF34A5
:1050F0002F4605F13C099BF801301BB1954B93F805
:105100009831D3B16868D5F80880FEF767FC804510
:105110009CBF0023AB60D5F80880B8F1000F0DD01C
:105120006868FEF75BFCC0EB0800A04206D2686826
:10513000AC68FEF753FC241A00E0AB600C354D451B
:10514000D9D1B38D9BF801800B9300231A461D46DD
:1051500096F801C0D9B20C910B991941C90703D433
:105160000133102BF6D124E07D494FEAC30E51F8EC
:1051700033000028F4D0B8F1000F0DD07144087945
:105180004FFA8CFE40F30309F145E9DC40F30310CC
:10519000704580F25081E3E707201841C007DFD552
:1051A000ECE7D5F89401D5F89041FEF717FC241AE6
:1051B0000FE0002D3FF469AFFCF7D9FE90FBF5F34B
:1051C00003FB150016AB184410F8102C654B002497
:1051D0001A709AF901309AF821100EAE591A5D4DE5
:1051E00021EAE171304649B2DAF80420FDF790FE79
:1051F00096E8070005F5CE7383E8070030469AF974
:105200002810DAF80420FDF783FE96E8070005F57C
:10521000D47383E807009BF801304F4F4BB9D5F8A2
:10522000A421BB691344C5F8B431D5F8B021FB699A
:1052300013E04D4B95F8720097F901101A7800F0C1
:10524000AFFB002800F0F580D5F8A4213B6913449A
:10525000C5F8B431D5F8B0217B691344C5F8B8312D
:10526000424F002C40F0D3803E4B9AF801101A7840
:105270003B4BDFF8088103EBC20053F832303C4A65
:105280000B934BB2D65C4279344B0C2000FB0233BB
:1052900093F902209AF900304FF001099342B8BF08
:1052A0001346344A8BF8BF31D25C0B9B88F80190CF
:1052B0001846CBF8CC310C928BF8BD918BF8BE110F
:1052C000FBF75AFD9AF90130CDF83480072B214DB8
:1052D0009DF9308076B223D1204695F8701001F008
:1052E00001FA304603F09AF80022234B01F0F2FF56
:1052F00002F02AFA0523029340F6B8338DE8110034
:10530000089320460394CDF81090059406940794D2
:10531000414646F2A8122346FCF77EF8204645E0B7
:10532000062B484695F870102AD101F0DBF90823C6
:10533000029340F6B8338DE8400208930394CDF809
:1053400010900594069407944846414622464B46E1
:1053500029E000BFFC0900201808002038000020C8
:1053600074000020840800207208002050080020EB
:10537000308800083888000800408F40540800201A
:1053800001F0B0F90823029340F6B8334846089379
:105390004146224623468DE840020394CDF8109002
:1053A000059406940794FCF737F8484695F8701072
:1053B000FBF73AFFC5F8D001DBF8D0210D9B284C54
:1053C0005A60CBF8C4219AF901300B990092254814
:1053D0009DF93020FEF7D0FB2046FCF7ADFF4FF4DF
:1053E0007A73204623606360FDF71CF89BF8013058
:1053F0001BB91D4A1378013313701C489BF87010B9
:10540000FBF746FE3B6843F001033B600DE03B6861
:10541000174843F010033B60FCF78EFF1448CBF8AD
:10542000D441CBF8D841FCF7FDFF002015E00A205D
:1054300013E0082011E049790C2000FB0171896814
:1054400041B916A8691C05449DF8300005F8100CF8
:10545000CDB285E60132D2B282E617B0BDE8F08F58
:1054600088080020EA8A0008710800206F0A0020DE
:10547000D00B002008B50C48FCF75EFF0B4B1B78E7
:105480003BB10B4B01221A700A4A136823F0040344
:105490001360094B1B78022B01BF084A137843F0B5
:1054A0001003137008BD00BFE40B00209C0800200F
:1054B000850B002050080020FC0900206008002017
:1054C00030B514464FF000020D460C4985B00978FE
:1054D00061F3C71204A901F8042D00932A4623465C
:1054E000FFF7B8FB38B9064A064B126858711871B5
:1054F000DA60FFF7BCFD05B030BD00BFFE0900203B
:10550000640A0020B80B00202DE9F04F06460C4637
:10551000994687B00192019B9C4280F00482335DE2
:10552000651C023BEDB2062B00F2FD81DFE813F0B3
:1055300007001300D900F50036016E01C401A74B26
:1055400000225A70725DE51C02341A72E4B2325DB8
:10555000EDB25A72DCE10DF10C0A504600210C222A
:1055600002F0DEFB00239E4FDA19928D2AF8032009
:1055700002330C2BF7D19B4B715D1B7801F00F00B0
:1055800009095FFA81FE651DFBB997F90130734582
:1055900003D197F90030834217D0934A9349127888
:1055A0000B78C2F10F02D2B2013A93420BDA904A61
:1055B0000320D054981C0133DBB208700021D15471
:1055C0008C4B01221A70EDB2A2E1E31CA21C043440
:1055D000E4B2DBB216F80480D2B216F803C0B35CB2
:1055E000C8F3021B18F00F0843EA0C23EDB208BF02
:1055F0004FF00108BBF1000F00D16BB30BF1FF328C
:10560000042A29D9BBF1070F26D000220724BBF1B9
:10561000060F0ED1DFF8E0C15CF832C0BCF1000F1C
:1056200014D04FF0010C0CFA02FC4CEA03039BB2BD
:105630000CE043FA02FC1CF0010F07D0DFF8B8C100
:105640005CF832C0BCF1000F08BF06240132102AFA
:10565000DDD1ADF80C3000E0062407291AD8BDF8DA
:105660000CB000234BFA03F2D20703D40133102B02
:10567000F8D10FE0604A4FFA8EFC02EBC3021279B8
:1056800042F3031142F303026245EFDC49B28C4559
:10569000ECDC01E004F0FD04052800F33B8104F09C
:1056A0000703072B09D13870514654480C2287F85C
:1056B00001E0FCF752FC87F820804B4A4B491278F6
:1056C0000B78C2F10F02D2B2013A934280F22081EC
:1056D000474A0320D054981C0133DBB20870D454DD
:1056E000E6E0735D464A0121137001FA03F2454B6F
:1056F0003E481A803C4B02781B780234C3F10F03FA
:10570000DBB29A42E4B280F0028153180370384B46
:1057100004209854374B1970F9E0A31CDBB2F15CFC
:10572000775DE31C651D0434E4B2325DDBB2F35CEB
:10573000120442EA03230B43642202FB03F42046D3
:10574000FCF7EAFFC7F30218002807F00F0714BFA1
:1057500007210621072FEDB200F3DF80B8F1050F16
:1057600000F3DE80072901BF1D4B83F828705C62BF
:1057700083F821801C4A1D4812780378C2F10F0279
:10578000D2B2013A934280F2C380194A0524D4541C
:105790009C1C0133DBB20470D15489E01A4B5B6965
:1057A0001BB11B680BB1984700E0FF200E4A0F4C5D
:1057B00012782378C2F10F02D2B2023A934280F2F9
:1057C000A7800B4A0621D154591CC9B25054D91C88
:1057D0000233DBB2217002F8039069E05408002024
:1057E00018080020FE09002073080020720800201D
:1057F0007408002083080020740000204408002062
:10580000860B0020880B0020E40B0020E31C221DE7
:10581000DBB2D2B2F15CB35CA21CD2B2B25C705DFE
:105820001B04A51D053443EA0123E4B2134364219C
:10583000325D3E4C4B438DF810202268EDB242F0B1
:105840002002226009D142B2022A1BDDFFF76CF868
:1058500000280CBF0323002314E006AA42F80C3DE5
:1058600006CAFFF787F8062809D8DFE800F00A081B
:10587000080804060800022304E0012302E00023D4
:1058800000E003232A49226809782A4822F02002EE
:10589000C1F10F012260C9B2027801398A4237DAB8
:1058A000254907248C54941C0132D2B204708B54C5
:1058B000224B01221A702BE0705D214D10F00F0079
:1058C00008BF012002F0AAFD00221E4B01F002FDDC
:1058D00001F03AFF286102F091FD0022194B02F01D
:1058E00051FC01F031FF124B12491B780A78C3F1C9
:1058F0000F03DBB202349A42E4B2686107D2531C50
:105900000B700D4B082199540C4B01221A7025463F
:105910002C4600E604F0FB04C1E601F0FD011DE7A2
:1059200001F0FB0126E707B0BDE8F08F500800202A
:1059300073080020720800207408002083080020EB
:105940001808002000408F4030B5134C637800B336
:10595000124813B9036018461BE0056800203F2D6C
:1059600017D95F2D207011D905F01F0001280DD126
:105970005DB2002D0DDD013BDDB2EBB24DB939B1A9
:10598000A38D43F00703A3852B4602E0012000E02E
:105990000B46137030BD00BF18080020800B00209C
:1059A000074B10B51C78074B0CB15B5C01E0194448
:1059B0000B7A104498428CBF0020012010BD00BF1C
:1059C000290A0020148B00082DE9F04798462E4B39
:1059D0008AB082460D4691465F5CFBF785F99DF8DB
:1059E0004860044600284BD15046FBF7C5F9274BC9
:1059F000072D1D771BD1384602F010FD0022244BE5
:105A000001F068FC01F0A0FE224905238DE80A00A0
:105A100001230246CDF8088003940494059306946C
:105A200007940894099620464CF250310FE00094F8
:105A3000039404940594069407940124204649464F
:105A40003A4608230193CDF8088008940996234626
:105A5000FBF794FE104B20461A78104B0AB1595DA3
:105A600001E01D44297A0D31C9B200F03BFE16B9A0
:105A70000B4BD86800E00020FBF7D0F9012000E0D4
:105A800000200AB0BDE8F08730880008E40B002051
:105A900000408F4085450100290A0020148B000832
:105AA00018080020034A1378013BDBB2137003B9D6
:105AB00062B67047140C002072B6024A13780133A4
:105AC00013707047140C00202DE980489FB0FAF73E
:105AD00063FB00221746AA4B5A70A94C6378042B2B
