:020000040800F2
:1000000000400020357C00080D2700087D7C00089A
:100010000B27000809270008072700080000000038
:100020000000000000000000000000007D7C0008CF
:1000300005270008000000007D7C0008757200089C
:100040007D7C00087D7C00087D7C00087D7C0008AC
:100050007D7C00087D7C0008537100084371000816
:100060003371000823710008137100087D7C0008BB
:100070007D7C00087D7C00087D7C00087D7C00087C
:100080007D7C00087D7C00087D7C00087D7C00086C
:100090007D7C00087D7C00087D7C0008E7700008FE
:1000A000000000007D7C00087D7C00087D7C00084D
:1000B0007D7C00087D7C00087D7C00087D7C00083C
:1000C0007D7C00087D7C00087D7C00087D7C00082C
:1000D0007D7C0008B12C00087D7C00087D7C000838
:1000E000AD700008955D00087D7C00087D7C0008EF
:1000F0007D7C0008000000000000000000000000FF
:1001000000000000000000000000000000000000EF
:1001100000000000000000000000000000000000DF
:1001200000000000000000000000000000000000CF
:1001300000000000000000005FF808F110B5054C59
:10014000237833B9044B13B10448AFF30080012383
:10015000237010BDA801002000000000C88900081D
:10016000084B10B51BB108480849AFF30080084898
:10017000036803B910BD074B002BFBD0BDE810404E
:10018000184700BF00000000C8890008AC0100202B
:10019000A4010020000000002DE9F04FA84D8DB013
:1001A0002B78002B40F0EF834FF6FF02A549CB6878
:1001B0001A40A54B1343CB6002F00CFCA34BA4499F
:1001C0005A6A42F080525A625A6A02F0805202928F
:1001D000029A0A6822F4C05242F400620A609A68E5
:1001E00002F00C02042A07D09A6802F00C020C2AD2
:1001F00022D19B68DB031FD4022393FAA3F2934A14
:10020000116893FAA3F3B3FA83F303F01F0321FAFF
:1002100003F313F0010F134605D08E4B1A68D7076E
:1002200040F19E80A8E052684FF4F85191FAA1F194
:1002300022F4F8525A6021E08749012393FAA3F38C
:10024000B3FA83F39B0003F1844303F58E0300228A
:100250001A600868022393FAA3F27C4A126893FAA0
:10026000A3F3B3FA83F303F01F0322FA03F3DE07C9
:1002700004D50B681B1A022BECD9CEE7734B5A6AD4
:10028000D4005FBF5A6A012442F080525A6257BFBD
:100290005B6A002403F08053039358BF039B6C4BAD
:1002A0001A6812F4807F6C4A06D068494B6B43F49D
:1002B00080734B63166813E0196841F4807119600C
:1002C0001168634B1B68D805EFD413685B1A642B65
:1002D000F7D9A2E741F2883113689B1B8B429CD867
:1002E0004FF4007393FAA3F15849486B93FAA3F3C0
:1002F000B3FA83F303F01F0320FA03F313F0010FA3
:100300000B46E7D01CB1496A21F0805159629B68C5
:1003100003F00C030C2B80D04FF0807393FAA3F3FF
:10032000B3FA83F39B0003F1844303F58E030021AA
:10033000196010684FF0007393FAA3F143490968FC
:1003400093FAA3F3B3FA83F303F01F0321FA03F341
:10035000D9077FF562AF13681B1A022BEAD95CE755
:100360001A6842F004021A601A6842F001021A6028
:100370001B68DF0740F18880344A936823F0F0035C
:1003800093604FF4007393FAA3F1116893FAA3F307
:10039000B3FA83F303F01F0321FA03F3DB0773D5EA
:1003A000936823F0030393602B4B18681A4605E00B
:1003B00041F2883113681B1A8B4265D8234B996828
:1003C00011F00C0FF4D1234A244812689A6822F4E1
:1003D000E0629A609A6822F460529A60996801F02B
:1003E0000C02082A3ED00C2A10D0042A3AD05A68AF
:1003F0004FF4604393FAA3F3B3FA83F302F4604239
:10040000DA4001324FF4004393402CE04FF4701275
:1004100092FAA2F24FF44004B2FA82F294FAA4F4EF
:10042000B4FA84F49B6801F47013D340C35C0C4AA3
:100430005A4301F44003E3400133B2FBF3F312E00B
:10044000C401002000ED00E00003FA05003802407E
:1004500000700040003C0240D80A002040840008A0
:100460000024F400384B394AF021926891FAA1F146
:10047000B1FA81F102F0F002CA400244527AD3404C
:10048000334A136002F0A6FA304B5A6AD6005FBFB7
:100490005A6A012142F080525A6257BF5B6A0021BA
:1004A00003F08053049358BF049B2A4B1A68D40569
:1004B00005D5264A1368536B98030FD439E01A68A0
:1004C00042F480721A60244B1868224A1268D205DE
:1004D000EFD41A68121A642AF7D947E0546B4FF424
:1004E000000324F4403793FAA3F0B0FA80F01B4ED7
:1004F0004FF0010E46F820E093FAA3F3B3FA83F32A
:10050000002046F82300E305576312D5124B184626
:100510001C684FF4007393FAA3F20C4A526B93FADF
:10052000A3F3B3FA83F303F01F0322FA03F3DF0705
:1005300016D5064B5A6B42F480325A63B1B15A6AEF
:1005400022F080525A6211E00024F4000038024088
:100550003001002000700040D80A00208006474289
:1005600041F2883203681B1B9342D2D9B94B4FF436
:100570007A721B68B3FBF2F3013BB3F1807F09D2BF
:10058000B54AF0215360B54B83F8231000239360E4
:1005900007231360B04AB1491368B14C43F0040318
:1005A00013604FF6FF02CB684FF0FF301A40AD4B9F
:1005B0001343CB60002106F0CFFA66784EBB20468D
:1005C000A94B00F8046B5A69012742F48042677016
:1005D0005A615A694FF0070822F480425A611A6A38
:1005E000092142F480421A621B6A022203F480430A
:1005F0000593059B00973346CDF8048006F0B1FDC6
:100600008DE8800104F110000A210222334606F031
:10061000A8FD2378FF2B00F09080944C4FF4E13339
:1006200063600C2363610023914EA360E360236148
:10063000A361E36194F83930266003F0FF020BB93F
:1006400084F83820022384F83930F3684FF0190A0F
:1006500023F40053F36033694FF0640923F44053EB
:100660003361F26823696169194322F4164323F068
:100670000C030B43F360736923F44073736102F05E
:10068000E3FA0AFB00F06768BF00B0FBF7F702F07F
:10069000DBFA0AFB00F06368B7FBF9F79B00B0FBDD
:1006A000F3F802F0D1FA0AFB00F062683F01920011
:1006B000B0FBF2F0B0FBF9F009FB10831B01323301
:1006C000B3FBF9F303F0F00802F0BEFA0AFB00F006
:1006D00063689A00B0FBF2FB02F0B6FA0AFB00F086
:1006E000636808219B00B0FBF3F0B0FBF9F009FB55
:1006F00010B212013232B2FBF9F202F00F0208EB33
:1007000002033B44B360236825201A6922F4904217
:100710001A615A6922F02A025A61DA6842F40052D8
:10072000DA600023E363012384F8393006F014FA19
:10073000504B20225A6006F0E5FA6A78002A40F011
:10074000EF804FF4800393FAA3F3B3FA83F34A499B
:100750004A4C012041F82300494B626022616261EA
:10076000A261627F0321A160E160236002F0FF01CA
:1007700002B9217702226277CA225A6253225A6250
:1007800006F091FA3D4E336818B1FF225A620423F5
:1007900023E09A6822F4E00222F040029A6099680D
:1007A000726811433269114372690A439A60F268B0
:1007B000B1681A611A6942EA01421A61DA6822F0E4
:1007C0008002DA601A6C22F480221A64196CB26911
:1007D0000A431A64FF225A6201237377237F274E4C
:1007E000012B51D00223012700207377377701F0C6
:1007F000A9FB8246384601F0A5FB3368CA225A623B
:1008000053225A62814606F04EFA3368804630B170
:10081000FF225A62042373770023337734E049F4CC
:10082000404040EA0A4040EA092020F07F4020F0A2
:10083000C0005860DA6822F08002DA6006F04CFAF4
:100840003268FF235362E8B10423737786F81C8073
:100850001AE000BF3001002010E000E000ED00E0F1
:10086000300400200003FA05003802407C0C002010
:100870000038014000E100E0800647421C0C0020E7
:100880000028004077773077237F894E012B3DD0B9
:10089000D6F800800223737701270020D8F80830AB
:1008A000377701F04FFBCA23C8F824305323C8F828
:1008B0002430044606F0F7F93368804630B1FF2251
:1008C0005A6204237377002333771FE0220442EA3D
:1008D0000422144304F07F3424F0FE441C609A6820
:1008E00022F480229A609A689A60DA6822F0800284
:1008F000DA6006F0F1F93268FF23536220B1042375
:10090000737786F81C8001E07777307729200421FF
:1009100006F022F9674B4FF400725A6001236B70A6
:10092000654B00241968654806F010FB09A81C21D6
:10093000032223460094019406F013FC09A81D210C
:10094000032223460094019406F00BFC09A81E2103
:10095000032223460094019406F003FC032223465D
:100960000094019409A81F2106F0FBFB544B5A6820
:1009700042F002025A605A6842F001025A605A6814
:1009800042F004025A604F4B1E78002E40F0B680B1
:100990004FF001084C4C83F800804C4F4C4B2360C7
:1009A0003B6A43F400733B623B6A03F400730693B3
:1009B000069B05F0B5FE3346009601964548192181
:1009C000032206F0CEFB4FF0206363634FF4806395
:1009D0006361E36CA660E6606662E662A663E66356
:1009E000C4F82880A661E6615BB9236584F84830C5
:1009F0003B6A43EA08033B623B6A03EA0803079346
:100A0000079BE36C3049DE0678D4CB6C324823F484
:100A1000885323F0020343F00203CB64436823F4BA
:100A200040324B68134343604FF4007393FAA3F3CF
:100A3000022393FAA3F30B680A6A186842F0206253
:100A4000400642F480620DD40869B0F5807F04D07E
:100A500001280CBF4FF4807000205E681F493140B0
:100A60000143596098681E4901401143996021690A
:100A7000B1F5807F01D0012907D1196B4FF0F870D3
:100A800021F0F87190FAA0F002E0196B21F0F871F2
:100A900019639968134B0B40934225D100232365BA
:100AA000E36C23F0030343F00103E36426E000BF9B
:100AB0001C0C002000E100E0007000405984000898
:100AC000002004E0CC0C0020840A00200038024002
:100AD00000240140C00C002000270140FF16FCFC50
:100AE0008DF1FFC0FEFF80BFE36C23F0120343F0E3
:100AF0001003E364236D43F00103236504F098FAC7
:100B0000614B624C5A69022642F480525A615A691A
:100B1000052722F480525A611A6A04F1AC0042F4AB
:100B200080521A621B6A072103F480530893089BC2
:100B3000574B3246636500238DE8C00006F011FB79
:100B400004F1B8000621324600238DE8C00006F00B
:100B500008FB3946324600238DE8C00004F1C4008A
:100B600006F0FFFA0722C4F880204FF48272A265D3
:100B7000484A4FF4007311682246E3660023E36598
:100B800023666366A3666367A367E367424881429F
:100B900004D90133072B4FEA5101F7D113F00401B7
:100BA00018BF202113F0020018BF102013F001031A
:100BB00041EA000118BF08230B4392F8A510136700
:100BC00001F0FF0011B9314981F8A400022182F837
:100BD000A510516D43F441730868002420F04000D3
:100BE000012608600B6007234C600B61C2F8A84027
:100BF00082F8A56004F012FA2848102132462346F4
:100C00000096019606F0ADFA09A861213246234606
:100C10008DE8500006F0A5FA21480B212246234614
:100C20000096019406F09DFA1E48112122462346A3
:100C30000096019406F095FA1B48032122462346AC
:100C40000096019406F08DFA18486021224623464A
:100C50000096019406F085FA15482D212246234678
:100C60000096019406F07DFA2346009601941148FF
:100C70001421224606F075FA2B780BB90E4B1E7024
:100C80000DB0BDE8F08F00BF00380240DC0A002044
:100C9000003001403001002080969800AC0B00200D
:100CA000E80A0020F40A0020000B00200C0B0020B2
:100CB000180B0020240B0020C401002000000000BD
:100CC00010B500230749DA0051F83340A04203D39E
:100CD0000A449168884203D30133152BF2D1FEE711
:100CE000107910BD70840008014B93F8DC00704748
:100CF000DC0A002008B510B1012807D016E0112049
:100D000005F086F9C0F3470040420DE0094B1B2077
:100D1000D3F8E020084B9A4203D905F079F99D38C1
:100D200002E005F075F9A43880B201E04FF6FF70DB
:100D300000B208BDDC0A002040DD4A1F10B50D4C92
:100D400094F8DD30012B13D1FA21112005F08AF936
:100D5000402005F05DF900F0FC01402005F082F92B
:100D6000032384F8DC300720BDE8104005F0FABB0F
:100D700010BD00BFDC0A0020114B10B5C3F8E00025
:100D800007F054FA0CA3D3E9002306F0A5FB06F004
:100D9000B3FC04460620C4F3074105F063F9C4F32D
:100DA0000721072005F05EF9E1B20820BDE81040F8
:100DB00005F058B9AFF300800000000080844E4079
:100DC000DC0A002008B5074801F0B6FA064801F031
:100DD000B3FA012005F0C6FB044B002283F8DC20A7
:100DE00008BD00BF400A0020540A0020DC0A002091
:100DF00008B5074801F0A0FA064801F09DFA002066
:100E000005F0B0FB044B002283F8DC2008BD00BFD6
:100E1000400A0020540A0020DC0A0020F8B5984C53
:100E2000074694F8DD5015B1012D29D0DCE04020B3
:100E300094F8FE6005F0ECF800F0030141F00C01BD
:100E4000402005F00FF9412005F0E2F860F03E0186
:100E5000C9B2412005F006F9352005F0D9F800F0B7
:100E60003F0084F816011E210D2005F0FBF884F8E0
:100E7000085184F80951A4F81451A4F81251B4E0AF
:100E800094F82D31332053B105F0C2F840F0410100
:100E9000C9B2332005F0E6F83B2019210AE005F03D
:100EA000B7F800F0BE0141F00101332005F0DAF897
:100EB0003B201D2105F0D6F8D4F81C313120082B39
:100EC00067D805F0A5F800F07F01312005F0CAF8D9
:100ED0003020002105F0C6F8694BD3F81C31082BEF
:100EE0005FD8DFE803F00511232F3B47535353002E
:100EF0002F20482105F0B6F8D4F8E00007F096F965
:100F000053A3D3E900230AE02F20442105F0AAF8D7
:100F1000D4F8E00007F08AF94FA3D3E9002307F0E3
:100F200049F806F0E9FBFFF727FF3AE02F204421BC
:100F300005F098F8D4F8E00007F078F948A3D3E971
:100F40000023ECE72F20442105F08CF8D4F8E000D2
:100F500007F06CF944A3D3E90023E0E72F204421F4
:100F600005F080F8D4F8E00007F060F940A3D3E979
:100F70000023D4E72F20442105F074F8D4F8E000D2
:100F800007F054F93CA3D3E90023C8E72F20402100
:100F900005E005F03DF860F07F01C9B2312005F0B1
:100FA00061F894F82B3194F82E61112043B11D2182
:100FB00005F058F8402005F02BF800F0330107E069
:100FC0001F2105F04FF8402005F022F800F03F0106
:100FD000402005F047F80F20002105F043F80D20D0
:100FE000002105F03FF800E00026264800214FF4DC
:100FF000807206F06BFE012384F8DC3047B1224D8D
:10100000284601F099F928462F606F6001F00AFA2E
:1010100094F8DD308BB9052005F0A4FAAEB9184B71
:101020001A4CD3F80451204601F086F9256065601A
:101030002046BDE8F84001F0F5B90EB1052000E00A
:101040000620BDE8F84005F08DBAF8BDAFF300808A
:10105000000000000082BE4000000000005AC440B2
:10106000000000000082CE40000000008057D44005
:10107000000000008084DE4000000000C058E44012
:10108000DC0A002040090020400A00202C09002032
:1010900073B5624C054694F8DD308DF8071013B136
:1010A000012B31D06EE09DF8071094F8FA00A4F8F7
:1010B0001431A4F8121128B90DF10701012204F02E
:1010C000B2FF02E0322004F0CDFF9DF80720531E4E
:1010D0003F2B02D884F8172106E05148294600F03A
:1010E0003CFF202384F81731294694F8172100206B
:1010F00004F099FFB4F8143194F81721D4F8005192
:101100001344A4F814313EE094F82D3133204BB150
:1011100004F07EFF00F0BE01332004F0A3FF3B206B
:1011200019210AE004F074FF00F0BE0141F0010152
:10113000332004F097FF3B201D2104F093FF9DF81E
:101140000710222084F83C1104F08CFF0E200021AF
:1011500004F088FF0D20002104F084FF012004F03A
:1011600057FF30F0F80304D1FFF72CFE012004F004
:10117000B1FE294600209DF8072004F054FFD4F862
:10118000305100E00025274E304601F0D5F894F8A4
:10119000DD3035607560214D13B1012B1AD032E07E
:1011A000402004F035FF00F0030141F01001402021
:1011B00004F058FF412004F02BFF00F03E014120D5
:1011C00004F050FF352004F023FF00F03F0085F8C5
:1011D000160118E095F82B31112043B1F52104F0E8
:1011E00041FF402004F014FF00F0330107E0F72135
:1011F00004F038FF402004F00BFF00F03F014020D6
:10120000014304F02FFF0223064884F8DC3001F08C
:1012100009F9032005F0A6F902B070BDDC0A002030
:1012200040090020540A00202DE9F84F884610B1EB
:10123000012850D0DBE0724C2720B4F8F85004F0BD
:10124000E7FE20F0F8000130284406F0FFFF94F894
:10125000FA3000220BB96B4B00E0002306F0AAFE27
:10126000064630200F4604F0D3FE30F0F9030CBFE1
:101270000023644B00223046394606F09BFE0646AA
:1012800040460F4606F0E2FF02460B46304639461E
:1012900006F090FE94F8FC3000220BB9002301E028
:1012A0004FF0804306F086FE0022574B05F0EAFF20
:1012B0000646D4F8F4000F4606F0B8FF02460B4687
:1012C0003046394606F008F90022504B05F0DAFFA7
:1012D00006F01AFE87E04A4CD4F81C31073B022B7B
:1012E00005D84B4A02EBC303D3E92C6701E0002683
:1012F0000027D4F820510120A84006F0A7FF02469D
:101300000B463046394606F0E7F802460B46002009
:101310003C4906F0E1F806460F46B4F8260106F00F
:1013200095FF00223B4B06F045FE32463B4605F05A
:10133000A9FF94F82A318246A800C0F11C0000EBF6
:10134000031094F8283100EBC800002B14BF1423BD
:101350000023C01A8B4606F069FF94F824318046BA
:10136000002B14BF02200020281A8000894606F0B6
:101370005DFF02460B464046494606F0ADF806F0D2
:10138000AFFC804694F825018946043006F05EFFE4
:1013900002460B464046494605F074FF00220023F2
:1013A00004460D4607F036F830B1204629460022A3
:1013B000154B06F0FFFD01E01349002032463B4685
:1013C00005F060FF02460B465046594606F0F2FD16
:1013D00000220E4B05F056FF07A3D3E9002306F0C9
:1013E000E9FD06F005FD06F087F9BDE8F88F00205D
:1013F000BDE8F88FAFF300802B8716D9CEF7EF3F0B
:10140000DC0A00200000F03F0000204000408F4038
:1014100070840008000011402DE9F04F87B0984615
:101420009DF84430009201939DF854308A4602930F
:101430009DF8583083460493189B109C0393BDF885
:1014400048709DF84C509DF850609DF85C9005F0F8
:1014500021F8092004F0DCFD4D2004F0D9FDBAF19B
:10146000110FCBBF40F0070200F0F802D2B242F0F9
:10147000040202F0070107290AD1BAF1040F04DDC2
:1014800051461429A8BF142100E00521053909E0BF
:10149000BAF1010F04DD51461129A8BF112100E066
:1014A0000221023961F00F01C9B20920059204F04E
:1014B000D9FD059A4D20114604F0D4FDBBF1000F73
:1014C00003D0BBF1010F60D0FFE0854A009BC2F85A
:1014D000EC80C2F8E830039BC2F8F44082F8E4A044
:1014E000A2F8F87082F8FA5082F8FC6082F8FD9059
:1014F000C2F80031009806F099FE75A3D3E90023E5
:1015000005F0EAFF06F0F8F81FFA80F84FEA182114
:10151000042004F0A7FD05205FFA88F104F0A2FD85
:10152000204606F083FE0B4602466BA1D1E900017E
:1015300005F0D2FF06F0E0F884B2210A022004F0A0
:1015400091FD0320E1B204F08DFD2520390A04F05D
:1015500089FDF9B2262004F085FD302004F058FD05
:10156000002D00F06F0014BF0023802340EA061115
:101570001943C9B2302004F075FD312004F048FD54
:1015800040F04001C9B2312094E0554AB8F1020F51
:1015900082F818A1924600D9FEE79DF8043008F1C0
:1015A000070B82F825319DF808300C2C82F82B317E
:1015B0009DF81030C2F81CB182F82C31039BC2F8A0
:1015C0002041A2F8267182F8285182F82A6182F817
:1015D0002D91C2F8303172D8052C0ED9BBF1070F0E
:1015E00004D1A4F10B03012B08D804E0BBF1080FD0
:1015F00004D10C2C02D1012301E0062400238AF837
:101600002431029B6BB1442004F002FD60F07F01A5
:10161000C9B2442004F026FD24209AF82C1104F0CD
:1016200021FD1D2004F0F4FC019B1D2045EA43052B
:1016300045EA0B11C9B204F015FD1E2004F0E8FCC8
:10164000B10000F00B0041EA04110143C9B21E20B1
:1016500004F008FD262004F0DBFC9AF8241120F0A9
:10166000080040EAC101C9B2262004F0FBFC20209A
:10167000390A04F0F7FC2120F9B204F0F3FC062C3F
:101680004FF031000BD104F0C3FC00F0F80141F041
:101690000501312004F0E6FC37200C210AE004F0BB
:1016A000B7FC00F0F80141F00301312004F0DAFC4E
:1016B00037200A2107B0BDE8F04F04F0D3BCB8F1E1
:1016C000020F4FF00C0499D095E707B0BDE8F08FFA
:1016D0000000000080844E400000000080847E41B5
:1016E000DC0A002070B506468AB010460C4606F0AB
:1016F000ADFD00221E4B05F0C5FD05F0FDFF0546C2
:101700003046FFF739FB4FF4965300200093052332
:1017100002462146019002930390034604900590EF
:10172000069007900895FFF777FE312004F070FCD3
:1017300000F0BF01312004F095FC0E4C4020F02158
:1017400004F090FCA021412004F08CFC204600F025
:10175000F3FD094B022220462560656083F8DC20FA
:1017600000F060FE03200AB0BDE8704004F0FABE4D
:1017700000408F40540A0020DC0A00202DE9F04F81
:10178000044689B000939DF86430079102939DF858
:1017900060109DF86C3015469DF868200493059202
:1017A000DDF84890BDF84C70BDF850B09DF85480FD
:1017B0009DF858A09DF85C60069104F06BFE049BB8
:1017C000059ADDF81CC024B1012C069900F0848034
:1017D0004AE1A94C2846C4F8ECC084F8FD2084F8FE
:1017E000FE30C4F8F450C4F8F09084F8FA8084F81D
:1017F000FBA084F8FC60A4F8F870CDF810C006F0E7
:1018000015FDCDE90001584606F020FDDDE9002375
:10181000CDE902010020994905F05EFE0022984BB7
:1018200005F030FD02460B46DDE9020105F02AFD18
:101830000022944B05F026FD05F05EFFDDE9002354
:10184000C4F804018AA1D1E9000105F045FE05F0C4
:1018500053FF84B2210A022004F004FCE1B2032009
:1018600004F000FCDDF810C06046FFF729FA0146DD
:10187000122004F0F7FB4846FFF722FA0146132036
:1018800004F0F0FB2520390A04F0ECFB2620F9B225
:1018900004F0E8FB3220B8F1000F01D0514600E01F
:1018A000FF2104F0DFFB302004F0B2FBB8F1000FA1
:1018B00000F06F0014BF0023802340EA0611194393
:1018C000C9B2302004F0CEFB312004F0A1FB40F07F
:1018D0004001C9B23120BBE0BCF1020F00D9FEE7E4
:1018E000654C9DF8000084F82B119DF808100CF150
:1018F00007090C2DC4F81C91C4F8205184F8250167
:10190000A4F8267184F8288184F829A184F82A6132
:1019100084F82C1184F82D2184F82E3100F29D805A
:10192000052D0ED9B9F1070F04D1A5F10B03012B39
:1019300008D804E0B9F1080F04D10C2D02D101231D
:1019400001E0062500231D2084F8243104F060FB0B
:10195000009B1D2048EA430141EA0911C9B204F085
:1019600081FB1E2004F054FBCBF3012100F00800A2
:1019700041EA8601014341EA0511C9B21E2004F083
:1019800071FB262004F044FB94F8241120F0080099
:1019900040EAC101C9B2262004F064FB1F205FFAAF
:1019A0008BF104F05FFB2020390A04F05BFB21205F
:1019B000F9B204F057FBB8F1000F03D022205146D2
:1019C00004F050FB94F82B3173B1442004F020FB59
:1019D00060F07F01C9B2442004F044FB264B242070
:1019E00093F82C1104F03EFBB9F1090F11D1D4F892
:1019F000E020254B36209A424FF0020104D904F032
:101A000031FB3A20642106E004F02CFB3A207F21D0
:101A100001E03620032104F025FB062D4FF03100B4
:101A20000BD104F0F5FA00F0F80141F00501312086
:101A300004F018FB37200C210AE004F0E9FA00F06A
:101A4000F80141F00301312004F00CFB37200A219A
:101A500009B0BDE8F04F04F005BBBCF1020F4FF038
:101A60000C053FF46FAF6AE709B0BDE8F08F00BF27
:101A70000000000080847E41DC0A00200000F03F6E
:101A80000000204000408F4040DD4A1F38B5012053
:101A900004F000FD1120FF2104F0E4FA00240520E9
:101AA00004F060FD2546012004F014FA2C2004F017
:101AB000AFFA00F00100A0400134202C45EA0005F7
:101AC000F1D1FFF795F9284638BD70B50E460546A9
:101AD000144604F0DFFC3046FFF74EF9052004F011
:101AE00041FD012004F0F6F92846FFF703F9054609
:101AF000FFF77EF9A542CCBF0020012070BD38B5AC
:101B0000092004F085FA0546062004F081FA04460F
:101B1000072004F07DFA000240EA0444082004F0A3
:101B200077FA204306F082FB19A3D3E9002305F0DE
:101B3000A9FB05F0E1FD00210446092004F092FA1A
:101B40003B2004F065FA40F04001C9B23B2004F0AC
:101B500089FA3B2004F05CFA8206FAD40E48FFF7BB
:101B60000BF93B2004F054FA40F04001C9B23B208D
:101B700004F078FA3B2004F04BFA8306FAD40920EB
:101B8000294604F06FFA2046BDE83840FFF7F4B864
:101B90000000000080844E4000A1BC3338B5254BC6
:101BA000254A1860254B0024DA601C605C601C72BA
:101BB0001C61234B234DDA601C605C601C721C614D
:101BC000214B1C605C601C72DA601C6104F020FD1B
:101BD000FFF795FF204604F0C5FC1C48296804F077
:101BE000E9FF1B48696804F0E5FF1A48A96804F09A
:101BF000E1FF1948E96804F0DDFF1848296904F09D
:101C0000D9FF1748696904F0D5FF164BE518185D30
:101C100004F040FC03346878A97804F023FA302CEF
:101C2000F3D1002004F036FC0F4B002283F8DC20B7
:101C300038BD00BFC801002051660008540A0020CA
:101C4000400A0020000000202C090020E80A0020A3
:101C5000F40A0020000B00200C0B0020180B0020C1
:101C6000240B002070890008DC0A0020AFF30080FC
:101C7000027812B1012A08D011E042780A4B0AB961
:101C8000022200E001221A7009E043783BB9074BB9
:101C9000197821B19A73027ADA73427A1A74044B72
:101CA00001221A70704700BF41080020E40800209C
:101CB0002C010020054B93F8DD202AB993F8082168
:101CC00012B9012283F80821704700BFDC0A002006
:101CD000114B70B593F8DD50012D1CD1122004F08A
:101CE00097F910F001060D4C4FF0120008D00521B5
:101CF00004F0B8F9236873B19B6963B1284607E023
:101D0000042104F0AFF923682BB19B691BB1304665
:101D1000BDE87040184770BDDC0A0020C8010020F3
:101D20000E4B1A6842F480721A6099680C4A0A4095
:101D30009A601A6822F0885222F001121A601A681A
:101D400022F480221A609A6822F47D029A600022AE
:101D5000DA60044B4FF000629A607047003802402E
:101D60000CC0FF8800ED00E0094B5A6910420DD00D
:101D7000586100230128DAB203F1010301D04008C1
:101D8000F8E7044B53F8223003B11847704700BFFF
:101D9000000401403C0C00202DE9F3470F680023AC
:101DA00037FA03F200F0BD80012505FA03FA1AEABA
:101DB000070600F0B4804C6824F01008B8F1020F58
:101DC00016D14FEAD30E00EB8E0E03F0070CDEF8AF
:101DD00020204FEA8C0C4FF00F0909FA0CF922EA87
:101DE00009090A6902FA0CF249EA0202CEF8202037
:101DF0004FEA430C032202FA0CF2D243D0F800E07F
:101E000008F1FF3802EA0E0904F0030E0EFA0CFE88
:101E100049EA0E0EB8F1010FC0F800E014D8D0F86E
:101E200008E0CD6802EA0E0805FA0CFE48EA0E0E3C
:101E3000C0F808E0D0F804E0C4F300152EEA0A0E5A
:101E40009D404EEA05054560C56802EA050E8A68B0
:101E500002FA0CF54EEA0502C260E2005FD5324A92
:101E600003F0030C156A4FEA8C0C45F0010515626E
:101E7000126A23F0030502F0010205F18045019288
:101E800005F58035019AD5F808E00F2202FA0CF228
:101E90002EEA020E254A904212D002F5806290424C
:101EA00010D002F5806290420ED002F5806290421E
:101EB0000CD002F5806290420CBF0422052206E09D
:101EC000002204E0012202E0022200E0032202FAE2
:101ED0000CF242EA0E026FEA060EAA60144A14F4EB
:101EE000803F15680CBF0EEA05053543156055683F
:101EF00014F4003F0CBF0EEA0505354355609568A4
:101F000014F4801F0CBF0EEA050535439560D568B3
:101F1000A40254BF0EEA050446EA0504D460013366
:101F20003EE702B0BDE8F087003802400000024002
:101F30000004014003090A2200F00F0002FB030025
:101F4000C0B270470023092803D90A380133C0B250
:101F5000F9E740EA0310C0B2704701380A449142E1
:101F600004D011F8013B00F8013FF8E7704743F255
:101F70003903074907480A6800FB02336FF0004045
:101F8000B3FBF0F00B6003EBC0731844704700BF65
:101F9000080100206D4EC641974B00212DE9F04FFE
:101FA0001970964B06681A688DB0964205D9944A06
:101FB000147814B111701A68B61A1B689E420AD9B7
:101FC000312E904B83BF01221A708C4B00228ABFA6
:101FD0001B681A70F61A8C4C0660237F012B01D007
:101FE00004F086FD227F884B012A28D001221A772F
:101FF00002225A771B68CA225A6253225A629A688E
:1020000022F480629A609A6822F480429A607F4A41
:1020100011461568DA6812F004020AD10868401BFC
:10202000B0F57A7FF6D9FF215962032363772277CF
:1020300005E0FF225A620123637700232377744D62
:1020400007A807AC03F05FFD0FCC0FC571482368EC
:10205000B04228BF3046002808BF01202B6006F0A0
:10206000E5F85FA3D3E9002305F00CF902460B461F
:102070009DF81F90CDE904239DF821A09DF826B07E
:102080009DF825409DF824509DF8208005F03CFFE8
:10209000DFF898C10646DCF80400CDF80CC00F4606
:1020A00006F0D4F8DDE90423CDE9000130463946D5
:1020B00005F07EFF0022584B05F0E4F802460B467F
:1020C000DDE9000105F076FF05F0EEFAB0F5F47FEA
:1020D000DDF80CC002DACCF804000BE0A0F5F470D7
:1020E000CCF804003946304600224C4B05F062FF24
:1020F00006460F463CA3D3E900233046394606F096
:102100007FF968B138A3D3E900233046394605F09A
:102110004FFF08F1010806460F461FFA88F8E9E765
:10212000304633A3D3E90023394606F069F958B1A4
:102130002FA3D3E900233046394605F039FF013596
:1021400006460F46ADB2EBE7304639460022344B27
:1021500006F056F950B1304639460022304B05F0B2
:1021600027FF013406460F46A4B2EDE7584606F0B5
:102170006DF83B46324605F01DFF05F0BDFA83B20F
:102180003B2B04D93C3B01349BB2A4B2F8E73B2C77
:1021900004D93C3C0135A4B2ADB2F8E7172D06D9FD
:1021A000183D08F10108ADB21FFA88F8F6E7C346FA
:1021B000BAF1000F05D01B4A128892441AF0030F9F
:1021C00036D1194A914419F8011C88453CD998FB2D
:1021D000F1F201FB12881FFA88FB35E0AFF30080B3
:1021E000FCA9F1D24D620040000000000018F5404B
:1021F000000000000020AC40000900202009002061
:1022000007090020010900201C0C0020D80A00202A
:10221000080900204206120000408F400000F03FF5
:1022200000004E400409002058890008C801002021
:10223000344A914419F8018CC34582BF9BFBF8F2E4
:1022400008FB12BB1FFA8BFB2F4F00933A7F012A2A
:1022500054D001223E683A7702227A77E8B2B26817
:10226000FFF770FE8046E0B2FFF76CFE009B05466C
:10227000D8B2FFF767FE04465FFA8BF0FFF762FE05
:10228000CA23736253237362B36823F48073B36009
:10229000F368DBB263F4C073F3601C4B1A46D3F8E7
:1022A00000E0F36813F001030AD11168CEEB0101DD
:1022B000B1F57A7FF5D9FF22726203227A771CE0AA
:1022C0002D0245EA0060204340EA0840F061B3680F
:1022D00043F48073B360B36843F48053B3600C4B32
:1022E0001A6842F400321A609A6842F400329A6026
:1022F000FF23736201237B7700233B770DB0BDE89A
:10230000F08F00BF648900081C0C0020D80A002050
:1023100000040140074B10B51A6822B10468091B7C
:10232000116000211172026101220272BDE81040A9
:10233000186031E628090020F8B51F4E054602F066
:1023400077FE3468374604B11DB9BDE8F84002F0A5
:1023500065BEAC4220D1237AC3B103F009FD2168E8
:10236000346823697BB1002222721A6888420A44C9
:1023700094BF101A501A012233601A72186018465E
:10238000FFF70AFEE1E700233B60DEE72369002B4D
:10239000F9D0226833600BE02A6800E01C4623690C
:1023A000002BD2D0AB42F9D12B692361002BCCD0CA
:1023B00019680A441A60C8E72809002008B50448CB
:1023C000FFF7BAFFBDE808400248012103F072BDE3
:1023D00088080020D001002008B50448FFF7ACFFB2
:1023E000BDE808400248012103F064BD74080020E4
:1023F000DC01002008B50748FFF79EFF064B1A785E
:10240000064B22B102221A700122054B00E0012284
:102410001A7008BD6008002029060020410800202D
:102420002C01002070B5044602F002FEDCB1214D03
:102430002A6813461BB1A34215D01B69FAE76168ED
:102440002372216062B1137A8BB103F091FC2B6887
:102450001B68984294BF191AD91A23688B4208D274
:102460002046FFF757FFBDE8704002F0D7BD116866
:10247000F3E72D682A6912B95B1A23600EE0106831
:10248000084404E00E6815460A4601463044984266
:1024900007D95B1A23601168CB1A13602C61226183
:1024A000E1E711690029EDD11B1A23601461216154
:1024B000D9E700BF2809002030B5437889B0002B48
:1024C00040F0EF80784C227812B1A3890133A381C8
:1024D000437B002B00F0DE80C378002B00F0DA8015
:1024E000022B02D9E02B10D0D4E0037B012B40F06B
:1024F000D18083686D4819786D4B01F00101197026
:1025000081F0010103F0D6FCC4E072BB037B042B15
:1025100040F0C08083681A78012A40F0BB805A7866
:10252000012A40F0B7809A78012A40F0B380DB7826
:10253000012B40F0AF805F4B00251D705E4BE02209
:102540001A705E4B02221A7003A801232370637075
:102550008DF81030A581A573E57325748DF80C20D6
:1025600001F05EFD564B1D7094E083681A7862702E
:10257000072A00F28F80DFE802F0041A1D212535BA
:102580003C634C4A00234C49137002220A704B49A9
:102590001020A38123700870012403A88DF80C205B
:1025A0008DF8104001F03CFD454B1C7072E002229A
:1025B000424B43E03F4A012313706AE03D4B002247
:1025C0001A7065E0047B3D4B3E4A1C700423137077
:1025D00000230133D9B2A1425CD28168C95C0131C8
:1025E000D154F6E708A8012300F8143D00F044FD9B
:1025F00050E0304B0025304A1D70022313702F4AE3
:102600001021A58125706846012411708DF80030D5
:102610008DF8044001F004FD294B03A81C702A4BDF
:102620008DF80C50049308330593284B069303232D
:102630008DF81C3000F020FD254B04221A7029E093
:10264000027B032A09D102228DF80C205A789B784C
:1026500043EA0223ADF8103017E0072A18D103220D
:102660008DF80C2059789A7842EA0122ADF81020B2
:102670001A79D978120242EA014259790A4364214F
:102680004A4305929B798DF8183003A800F0F4FCBA
:10269000012363700F48002103F00CFC0E48FFF784
:1026A000C1FE09B030BD00BFE4080020E8010020F1
:1026B000E0080020F80800202D0100202E01002055
:1026C000C0070020A0080020F4010020180000200E
:1026D00041080020D001002088080020417808B57A
:1026E00029B9054803F0E6FB0448FFF79BFE044BBD
:1026F00001221A7008BD00BFDC0100207408002010
:102700002C0100207047FEE7FEE7FEE7704700BFA0
:102710000120704710B5074C102104F1F10004F0BE
:10272000B7FA0023C4F814312046BDE81040F02168
:1027300004F0AEBA0402002030B589B0684610211A
:1027400004F0A6FA684669464B4A02F0F3FF9DF989
:1027500000300DF10F04002B6B460FDA1A7813F8D6
:10276000011F520042EAD112A34203F8012CF5D115
:102770009DF80F305B0083F087030CE01A7813F8A4
:10278000011F520042EAD112A34203F8012CF5D1F5
:102790009DF80F305B008DF80F30374BD3F81401E4
:1027A000194610280FD103F5807300221DF802008E
:1027B00013F8011F01324140102A1970F6D12F4B36
:1027C00003F110013FE09DF90030002B6B460FDA5A
:1027D0001A7813F8015F520042EAD512A34203F8B7
:1027E000012CF5D19DF80F305B0083F087030CE0DE
:1027F0001A7813F8015F520042EAD512A34203F897
:10280000012CF5D19DF80F305B008DF80F30084496
:102810008023D1F8142180F8013101320F2A4FF0C2
:10282000000303D8881880F80131F6E7C1F81421B5
:10283000134A1DF8030012F8011F01334140102B09
:102840001170F6D1BBE701331A78187C8B4282EA0B
:1028500000021A70F7D104A80A491022FFF77DFB85
:10286000094904A8A1F58C7202F064FF68461021A2
:1028700004F00EFA09B030BD04020020F40200207A
:1028800004030020F50200201C030020F0B52E4CAC
:102890000646D4F8140185B00D46002843D0C0F197
:1028A00010078F4228BF0F46204400F20110314626
:1028B000BAB2FFF752FBD4F814313B440F2BC4F8E3
:1028C00014313ED9BD423CD004F1F00304F58071CF
:1028D00001331A78187C8B4282EA00021A70F7D111
:1028E0001A483E440146A0F1F10202F023FFED1B1D
:1028F00019E012F8011F1F78824281EA070103F8EC
:10290000011BF6D1684611491022FFF726FB6946E4
:102910000D4A684602F00EFF0C4869461022FFF788
:102920001CFB1036103D102D04D9721E074B06F10A
:102930000F00DEE706483146AAB2FFF70EFBC4F8E7
:10294000145105B0F0BD00BF04020020F5020020C4
:1029500005030020F0B54B1E00F11002904204D098
:1029600010F8014B03F8014FF8E70A2381F8F03023
:102970000124102003070A7B4F7B8E7BCD7B10D177
:10298000134B13F807E09F5D5E5D9D5CE30984EAED
:102990000E0E5A001344724603EBC30383EA44034A
:1029A000DCB20B78043053400B744B78C0B27B40E0
:1029B0004B748B78B02883EA06038B74CB7801F1D3
:1029C000040183EA0503CB73D4D10020F0BD00BF1E
:1029D0003885000808B50D4B4FF47A721B68B3FBBD
:1029E000F2F3013BB3F1807F09D2094AF021536031
:1029F000084B83F8231000239360072313604FF0E4
:102A0000FF30002104F0A8F8002008BD30010020AC
:102A100010E000E000ED00E02DE9F04190460746AF
:102A20000E461D460E4CFFF775FE21464046FFF749
:102A300091FFF1B23846FFF729FFFFF77DFE94F8CA
:102A40001A2194F81B3194F81811120442EA036217
:102A500094F819310A4342EA03222A60BDE8F08162
:102A6000040200202DE9F04791461E460D46074618
:102A7000F0213148099CDDF8288004F009F9484626
:102A80002D49FFF767FF2D4A9DF82030967153714D
:102A9000330AD371330C1372230A360E9472D37235
:102AA000230C240E567254732E46144613734FF0A3
:102AB0000109C6EB050A0F2E5FFA8AFA1DD92049D3
:102AC00084F80F901D4809F10109A1F1F10202F00B
:102AD00031FE1FFA89F90023194A07EB0A0113F89E
:102AE00002E0CA5C08EB0A008EEA0202C25401331B
:102AF000102BF1D1103EB6B2DBE72B0905F0F00642
:102B000015F00F0503F1010313D00D490B48A1F196
:102B1000F102E37302F00EFE0023094AB9199C5C2E
:102B2000CA5C08EB06006240C25401339AB2AA4262
:102B3000F3D3BDE8F08700BF2C030020280000205D
:102B40001D0400202DE9F0410E46904607461C4C1E
:102B50009DF81820079962751A0AA375E2751A0C78
:102B60001B0E184D63760B0AA176E3760B0C090E4B
:102B7000227623776177E677FFF7CCFD294640463A
:102B8000FFF7E8FE04F110001021FFF77FFE384642
:102B9000F1B2FFF77BFEFFF7CFFD95F81A3195F8FC
:102BA0001B211B0443EA026395F81821134395F88F
:102BB000192143EA0223089A1360BDE8F08100BF9F
:102BC00028000020040200201C4B82B09A6812F0FA
:102BD000F00F1ED15A6A1A4912F0805F03D00A68BA
:102BE00002F4C0520FE05A6A42F080525A625A6AA6
:102BF00002F080520192019A0A68596A02F4C052A6
:102C000021F080515962B2F5C05F02D1B0F5404F5A
:102C100001D0002305E00B4A136843F0040313605E
:102C2000012308490A6822F001021A430A60086871
:102C300000F00100584002B0704700BF0038024069
:102C400000700040003C0240094B4FF460529B680A
:102C500092FAA2F2B2FA82F203F46053D340054A28
:102C60001344054A93F800311068D840704700BFFC
:102C7000003802403885000830010020094B4FF42D
:102C8000E0629B6892FAA2F2B2FA82F203F4E06385
:102C9000D340054A1344054A93F800311068D840E0
:102CA000704700BF0038024038850008300100201E
:102CB00037B5914C23681968DA68CD0705D5D0057A
:102CC00042BFE26B42F00102E26319685A69890768
:102CD00002F0010204D51AB1E16B41F00401E16395
:102CE00019684D0704D51AB1E16B41F00201E163A7
:102CF0001968080704D51AB1E26B42F00802E263D2
:102D00001968DA68890666D5950664D594F839108D
:102D1000794A01F0EF0122295DD19168B1F5805F18
:102D200010D11069916A30B958680B46C0F3080099
:102D300023F8020B04E058680B46C0B223F8010BDD
:102D400093620DE0116921B9916A5B68481C906239
:102D500005E0916A5B68481C906203F07F030B708A
:102D6000E38D654A013B9BB2E385002B33D11368A9
:102D7000D96821F02001D96092F83910322917BFA3
:102D8000D968122321F48071D9601FBF596921F0DD
:102D900001015961012382F83930584BB3F85622AA
:102DA000B3F85C02013292FBF0F100FB1122B3F8A0
:102DB000541292B291421FBF5149A3F8562208788B
:102DC000D3F8581218BF8854D3F860320BB10120E1
:102DD000984703F097FF2368474A1868D9680006A8
:102DE00028D50D0626D592F8391001F0DF011229F9
:102DF00020D19168B1F5805F116A0AD10888C0F3CB
:102E000008005860106908B9023100E00131116210
:102E100003E0481C10620A785A60E28C013A92B2D0
:102E2000E2843AB9DA6822F08002DA60DA6842F0C5
:102E30004002DA602168304B0868CA6840064BD50A
:102E4000520649D5CA6822F04002CA6093F8392078
:102E5000322A0CBF2222012283F83920274BB3F8F3
:102E60004822B3F84A02904231D0B3F850520132AE
:102E700092FBF5F005FB1022D3F84C5290B2285C7F
:102E8000A3F8482294F8392083F86402D2B2012AC8
:102E900001D0222A1BD194F83800174A012816D0F5
:102EA000012082F838009084D084164D0020D06331
:102EB000156292F83950222D0CBF3225122582F866
:102EC0003950CA6884F8380042F08002CA60D3F8EA
:102ED00060320BB100209847E26B074B52B11A6881
:102EE0001168019152680192019A012283F83920F8
:102EF00003F008FF03B030BD7C0C0020040200206A
:102F0000BC0C0020680400202DE9F84F8B461446C5
:102F100000210C22054604F0D9FE4D4B03EB8B0239
:102F2000D2F808814B4A904507D04B4A90450CBFD8
:102F30004FF0020A4FF0000A01E04FF0010ABBF126
:102F4000070F0DD1454B93F8280105F06FF90246A4
:102F50000B460020424904F0BFFA0022414B13E027
:102F60005B4493F828310120984005F06FF906463C
:102F700040460F4605F05AF902460B4630463946A0
:102F800004F0AAFA384B002204F07CF906466000EF
:102F90000F4605F04BF980468946344C94F8700290
:102FA0000438400005F052F932463B4604F06AF915
:102FB00042464B4604F0FEFF32463B4604F08CFA94
:102FC00004F08EFE04F098FB94F87042A04214D9ED
:102FD000201F400005F03AF932463B4604F052F912
:102FE00042464B4604F0E6FF32463B4604F074FA94
:102FF00004F076FE04F080FB044600221C4B3046B1
:10300000394604F03FF980462046894605F00EF91E
:1030100032463B4604F036F90022164B04F032F9F2
:1030200002460B464046494604F0C2FF00220C4BC4
:1030300004F0BEFF04F054FE85F800B085F801A04E
:103040006C6004F031FBA8602846BDE8F88F00BF33
:103050003885000890D0030020A107003F850008B4
:103060000000F03F0000204000408F40040200209C
:10307000000010400000E03FF7B50646002800F0D1
:10308000D7806F4CD4F8A072FA0700F1D38004F512
:1030900029700C2103F0FCFD3578012384F8A5325A
:1030A000032D00F2B980DFE805F002436095FB06CE
:1030B00000F1C0807068002800F0BA80B168002973
:1030C00000F0B680F268002A00F0B280337C002B5A
:1030D00000F0AE802F2B9CBF3023337494F8B032B5
:1030E000002743F0080384F8B032337C02AE84F842
:1030F000C0323B4667F3471306F8043DC4F8B812E4
:10310000C4F8BC22C4F8B40284F8A47284F8C17272
:1031100001F0FCF9012001F045FA394684F8690212
:103120003A4630463B4601F087FC002875D184E0E2
:1031300094F8B03294F8C32243F0080384F8B03214
:10314000C2F10F0294F8C232D2B2012093423C493C
:1031500084F8A40261D21A1881F8C2220B44022218
:1031600083F8C42281F8D30266E0022384F8A432F3
:1031700094F8B032334D43F0080384F8B03294F839
:10318000D4320C2205EBC30393F861302E4902FBC5
:10319000035393F9222094F968322C489A42ACBF29
:1031A0008B18CB18B68893F83071FFF7C5F84FF439
:1031B0007A732648C4F8D832C4F8DC32FFF732F903
:1031C00094F8D43279B205EBC305E86D3246FEF7C8
:1031D00089FA1AE0032384F8A43294F8B03243F059
:1031E000080384F8B032B06896F90C10B288FEF784
:1031F00079FA1648FFF7A0F84FF47A731348C4F829
:10320000D832C4F8DC32FFF70DF9D4F8A03243F01D
:103210000103C4F8A0320FE0022094F8B03200227B
:1032200062F3C30384F8EC2284F8B032054604E06C
:10323000032502E0012500E00025284603B0F0BD8B
:10324000040200202800002038850008DC0400204B
:1032500013B50D4C2046FFF76FF80C480C4B007867
:1032600093F90C10A0F1020EDEF1000040EB0E000D
:103270005A7B1B8A00900748406A01F061FE08B142
:103280000123237502B010BDF4040020280600209D
:10329000C40700206C04002008B50E4B1B78022BDD
:1032A00002D0FDF7A5FD01E0FFF7D2FF0A4B1B7D21
:1032B000012B0DD1094B1B7813B1094B03225A7016
:1032C000084B03225A70084A137843F01003137016
:1032D00008BD00BF28060020F4040020F0040020F0
:1032E000E4070020A8040020B404002008B50A4B1D
:1032F0001B78022B02D0FDF77BFD01E0FFF7A8FF52
:10330000064A02235370064A5370064A137843F064
:103310001003137008BD00BF28060020E40700203A
:10332000A8040020B404002013B50E4C04F11800CA
:10333000FFF702F8002323750B4B1B78022B01D1FA
:10334000FDF740FD094B00201C78094B93F9001054
:103350005A789B880090074850F8340001F0F0FD3F
:1033600002B010BDF404002028060020D80400207C
:10337000C4070020840000201FB51748FEF7DCFFBB
:10338000164A136823F010031360154B1B781B07B4
:103390001ED5144B1C78DCB901F0B8F8124B187824
:1033A000013001F0FFF8114B114A5870234664F3C5
:1033B00047138DF808302346127802A862F3C7132A
:1033C0008DF80C30009403A92246234600F0FEFE3F
:1033D00001F009F904B010BDFC070020A40400208E
:1033E000B4040020A8040020C50400206C040020C0
:1033F0002A060020F8B58F4D8F48FEF79DFF2B78E9
:103400008E4C13F0100F00F0C9802268500644BFA4
:1034100022F04102226013F0090015D0884A517849
:10342000022903D08749497802290DD12168864EA7
:1034300021F00101216000213170844E1171367834
:1034400091605671012200E00022814E31780029FE
:103450003BD1002A39D1002837D0190711D5794935
:10346000087870B97B4B1B788B72497821B97A4BFD
:103470001A607A4B1A7024E0794A12789A4220D95D
:1034800009E0764A7749107891F8201003F002039A
:10349000884207D233B92B786FF304132B70FFF7F0
:1034A0006BFF12E003F0FF012BB9674B19706E49F7
:1034B0000B6801330B6000231370674A13680133F4
:1034C0001360236823F0010323602B78674F13F008
:1034D000020F16D05A4B5D4A1979184621B9644B30
:1034E00011781B7899420CD95B4900233B703370EB
:1034F0000B6801330B6013784371236823F00103D9
:1035000023603B78002B49D0226812F0100145D18E
:10351000564B4E4F5648197000783B7898422AD93E
:10352000082B28D80133DBB23B70DB0709D54D4AA5
:10353000537858B20128D2BF0B4603F1FF33DBB2F8
:10354000537001F050F820B92B7860F304132B70FE
:1035500024E03B4B08223C495A7000220A7032702A
:103560001A713A7821685A713E4A21F00101527865
:1035700021609A700EE03B4822F00102818D2260AA
:1035800041F007018185304900220A702C493270D0
:103590000A714B71304A13680133136023689E0728
:1035A00042BF264A23F0020313602668F6B92B783F
:1035B000204CD80708D52F4B2148DB6A1B68984759
:1035C000237866F3000323702B781A4C190708D56B
:1035D000284B1C48DB6A9B68984723786FF3C3032A
:1035E00023702B786FF304132B700AE0124C2046E3
:1035F000FEF7A2FE4FF47A73204623606360FEF765
:1036000011FF2B789A0713D51B4B1B78022B01D186
:10361000FFF71EFE2B785B0704D4164B1748DB6AB6
:103620005B6898472B7803F0FB036FF341032B7023
:10363000F8BD00BFB4040020DC040020A404002076
:10364000E4070020A8040020C60400200501002093
:10365000F0040020C504002090060020B0070020E0
:10366000C40400206C040020AC070020B107002037
:1036700004010020F404002028060020280800206F
:1036800008B5154B1B78022B02D0FDF7B1FB01E00A
:10369000FFF7DEFD114B124A197D1278114B71B9FB
:1036A00012B1114A0421517004225A700F4B18684C
:1036B00002F050FB0E4B1B6898420BD305E012B191
:1036C000094A0521517005225A700A4A137843F0BD
:1036D0001003137008BD00BF28060020F40400206A
:1036E000F0040020A8040020E4070020BC0700200C
:1036F000E0070020B40400200D4A10B5136843F021
:10370000400313600B4B1B780BB101F06FF90A4AB1
:103710000A4C1378204643F012031370FEF70CFE98
:103720000123236063602046BDE81040FEF77ABEA7
:10373000A4040020F0040020B4040020DC040020D5
:103740002DE9F04F0446C04FC04DC1485FFA83FBDE
:103750003B7D8FB08846002101716B740991EA812D
:10376000E970A9706971A96029736973A9746961A5
:10377000297085F810B0FDF73BFB3846FEF7DCFDFD
:1037800094F800A04FEA5A13013B062B00F2D681B1
:10379000DFE813F00700D4010801D4010801D401C7
:1037A000BF01AC4E33780BB101230CE1AA4DAB48FD
:1037B000D5F80090F02103F06BFAA8494846FFF7CE
:1037C000C9F8601CA649A54A01F0B4FF08F1FF330F
:1037D0000F2B05D904F11100A249A04A01F0AAFF5C
:1037E000994CA8F1040104F130002A6809AB89B2B0
:1037F00087F830A0FFF710F907EB080090F82E309B
:1038000090F82D201B0443EA022390F82C20134348
:1038100090F82F2043EA0263099A934240F0BE8059
:103820008D4B8E481D68904BF0211B880DF12809A7
:10383000ADF8223003F02CFA28468849FFF78AF8C1
:103840004846102103F024FA01230DF1290004F168
:10385000310106228DF82830FEF77FFB0DF12F0095
:103860000DF122010222FEF778FB7C4A7F4948468F
:1038700001F060FF4846102103F00AFA02250DF11D
:10388000290004F1310106228DF82850FEF765FB6E
:103890002A460DF12F000DF12201FEF75EFB74495F
:1038A0006E4A484601F046FF94F8363094F83520C9
:1038B0001B0443EA022394F8342094F83C00134399
:1038C0006C4A6D4D136094F8393094F838201B041D
:1038D00043EA022394F8372010F00F0043EA020372
:1038E00094F83A2008BF012043EA0263634A136058
:1038F00094F83B30C3F3021203F00F0385F8212044
:1039000085F8283004F092FC00225D4B03F0BAFCED
:1039100003F0F2FE286104F089FC0022584B04F009
:1039200049FB03F0E9FEB8F1110F68612ADD50236D
:103930008DF82C30534B303498461A68032742F0E8
:1039400020021A60E37BA27B1B0443EA0222637B12
:1039500013436422534306D00A93384699E806007D
:1039600000F0C4FA02E0384600F09AFA0137FFB2DC
:10397000082F04F10304E5D1D8F8003023F0200328
:10398000C8F80030404B00225A7040480123337081
:1039900003F0DCFA3E4B5B786B70D3E03A4B0622C7
:1039A0005A70CFE0E278A3781204617842EA0323E8
:1039B00022790B4343EA02630493304B049A1B6859
:1039C0009A4202D00A236B70A0E0324B677904EB75
:1039D00008021D6807F00F0303F1080C059312F8A5
:1039E000023C12F8036C1B0443EA062312F8046C31
:1039F00094F80790334312F8016CCDF81CC043EAE9
:103A000006630693A379A8F1040143EA0929C5EBEB
:103A100009091FFA89F90FFA89F3002B3CDB09AB7E
:103A20004D4401260293114A049B009601952046BD
:103A300089B2FFF787F8099B069ADDF81CC09A4205
:103A4000024B40F08F803FE0F40400202808002063
:103A5000E407002029060020C00400202C030020D9
:103A600025050020350500209A0700203406002097
:103A7000440600202C0600206C04002030060020A4
:103A800000408F40A4040020A8040020CC86000839
:103A9000580600209406002005F580371F440123B6
:103AA0008DE8880009AB0293774A049B204689B2CF
:103AB000FFF748F8099B069A9A4208BF3D46734BA8
:103AC00009225A705D6121E0B9F5804FF7D2704844
:103AD000002202606F48C7F30011597102706E49ED
:103AE0000AF0E000A0284A7089465A709A709A60DD
:103AF0001A735D6169493AD00A701A70684A12688F
:103B0000AA423ED1002A3CD007225A70FFF7F4FDAA
:103B1000B7E0644E42463046611CFEF71EFA0323AE
:103B2000614A2B7000236B70137808F1FF38AE6088
:103B300085F80C8043F00203137003E001236B70DF
:103B4000FFF7DAFD584A594C1378204643F010032A
:103B50001370FEF7F1FB0123204623606360FEF73C
:103B600061FC8EE0B9F5804FA9D20B22CDE71E7023
:103B70004B4B0E701B68AB4203D1AE1A18BF012627
:103B800000E00026464B1D6099F80030012B01D162
:103B9000B90602D5464B00221A70A8F10403CCEBFB
:103BA0000303002B41DD059B14F80C200933069319
:103BB000059BC3F1F3039844344B5FFA88F8DA703D
:103BC0009A469AB917F00F0A59D101238DE82800B7
:103BD000069B344D2344184641462B4A0295049BCC
:103BE000FEF740FF28465146424623E03A0705D0FB
:103BF0002046082162465B4600F042FF069B019585
:103C0000284D23444FF0010B1846CDF800B0029523
:103C10004146284A049BFEF725FF86BBCAF8085098
:103C20008AF80C808AF80DB008E03B0705D02046E2
:103C3000624608215B4600F023FFCEB907F020075B
:103C400007F0FF064FB1114A01231B4889F80430E1
:103C500093740026FEF770FB0AE0184B89F80460A5
:103C60001A78174B1B789A4202D91348FEF764FB67
:103C70000D4A137843F0020366F382035CE70126E2
:103C8000F6E70FB0BDE8F08F3406002028080020CA
:103C9000AC070020C7040020E40700209C07002098
:103CA0009406002024050020B4040020DC04002039
:103CB000C604002044060020100800200501002052
:103CC000040100202DE9F84F002001F073FF604D42
:103CD00007462B78022B02D0FDF78AF801E0FFF7A8
:103CE000B7FA5C4B5C4E1B78002B3CD05B4B5C4CBA
:103CF0001B6804F11800A3F11E08FEF71DFB04F178
:103D00001800C4F81880C4F81C80FEF78BFB2B78D1
:103D1000022B0CD0534B2046D3F80080FEF70CFB4F
:103D20002046C4F80080C4F80480FEF77BFB2B78A3
:103D3000022B01D0337823B34A4B4B4D1C68FEF75E
:103D400016F940F2D17390FBF3F202FB1300044426
:103D50002846FEF7F1FA04F57A7428462C606C6068
:103D6000FEF760FB0DE0414A5370414B03225A704D
:103D7000404B1A780AB901221A701A7842F01002E0
:103D80001A703D4B3D491C783D4DE4000B195A79A2
:103D90000C2353433B48EA1857600760EF5A00234F
:103DA0009360394B8A461B78DFF8F0B05BBB2C4B35
:103DB000D3F8300101F0CEFF04F038FA20A3D3E9A4
:103DC00000238046894604F007FB68B91EA3D3E9A7
:103DD00000234046494604F0FFFA002842F21073DF
:103DE00018BF4FF47A7300E06423BB4238BF3B46F0
:103DF00054446279DBF800700C21013B01FB025551
:103E00007B43AB6007E0214B1B7823B1DBF800302C
:103E1000013F5F4397601E4B1E491B88DBF8000083
:103E20005A1E0B6800FB02330B6033782BB90F4A24
:103E30005370194A137801331370BDE8F88F00BF2F
:103E40000000000040774B4100000000FCE182418F
:103E50002806002006010020F0040020DC070020D6
:103E6000F4040020E007002010080020E4070020F0
:103E7000A8040020B4040020D804002084000020FE
:103E800048000020BC07002029060020C0070020B1
:103E9000B4070020B8070020B0070020F807002072
:103EA0000F4B10B51B68DA0701D59B0613D5C31E4F
:103EB0000C2B12D80B4A00230B4C42F8303002EB8B
:103EC000C002A18D137153710122824021EA0202C6
:103ED000A285184610BD012010BD032010BD00BFF3
:103EE000A4040020840000206C0400202DE9F3418C
:103EF0008DE806009DF804200E460F2842F30301CA
:103F000042F303120746E846D4B241D8354B1B684A
:103F1000D80701D59B063DD549B252B2914201DC8A
:103F2000002939DA0124022F0CD82F4B53F83730EF
:103F3000F51A18BF01250029C8BF0124042AD8BFDB
:103F4000012400E000253046FEF7E2FB30B32EB33B
:103F500025BB264B264A3344934228D9254B264A73
:103F6000334493421FD9254B254A334493421CD9ED
:103F7000244B254A3344934219D9244B244A3344D1
:103F8000934216D9234B244A3344934213D905E074
:103F9000032023E0012021E0E409C4E7002C14BF42
:103FA000062004201AE02B4606E0012304E0022349
:103FB00002E0032300E004230CB105200EE00A4ACE
:103FC00098E8030002EBC70282E803002046134989
:103FD00053718A8D0123BB4013438B8502B0BDE82A
:103FE000F08100BFA40400208400002040AA8FCCF0
:103FF0007F841E00C02571CCC0C62D00FF5E43CC5F
:10400000BF270900A0B038CC20A1070040022ECC69
:1040100090D00300606E29CCE09304006C04002073
:1040200038B5002800F0AC805E4B1B68DB0700F160
:10403000A38004781C2C00F2A180DFE804F00F209C
:1040400024282C30353B429F4749544F5C64686CB0
:104050007074787C8480888C9F9096000579524B90
:104060001D7045B1022D40F09B80504B00221A700C
:10407000FFF7EEF894E0FCF7BBFE2C4690E00279E7
:10408000494B5A708BE00279474B9A7087E042683F
:10409000454B5A6083E04268434B9A607FE0416839
:1040A00000296DD0424803E04168002968D04148AA
:1040B00010221DE000793C4B83F82C0002F028FA16
:1040C0006DE00279384B83F82D2068E03A4B00E030
:1040D0003A4B043003C883E8030060E041680029DC
:1040E0004ED0374803E04168002949D035480222C4
:1040F000FDF733FF53E003795A1E0E2A40D8324AA7
:1041000082F820304BE042682F4BDA6047E042688B
:104110002D4B1A6143E042682B4B5A613FE04268E5
:10412000294B9A613BE04268274BDA6137E003791B
:10413000052B27D924E00379072B27D920E0037921
:10414000052B26D91CE00379052B26D918E04268F7
:10415000154B9A6623E04268134BDA661FE043680A
:10416000114A5363184A536019E003790E4A82F8E2
:104170003830154A137212E0012411E002240FE0D6
:1041800003240DE0084A82F8313008E00E4A5370EB
:1041900005E0054A82F8303001E00B4A1370002434
:1041A000204638BDA404002028060020F00400208A
:1041B0003406002044060020900400207C060020E5
:1041C00084060020980400206C0400202DE9F04FA4
:1041D00089B0BDF848500F4600218B4208BF0D46FC
:1041E0009346B14AB14C11701E460378EDB284F883
:1041F0007330037807915B09A4F8701084F872504B
:10420000072B00F27881DFE813F0080076015E00EA
:1042100076015C007601760169010123A4F8703013
:10422000A34BA44A1B6803F108018B4204D013F886
:10423000010B02F8010DF8E70923A4F870309E4B3A
:104240009E4A1B6803F108018B4204D013F8010B4E
:1042500002F8010DF8E71123A4F87030FDF716FC01
:10426000B4F8705082B2631983F873006B1C9BB270
:10427000A4F872212344120A83F87320AE1C904BD9
:10428000B6B2F1B21A688F4807ABFEF7C5FB079BC1
:10429000EA1C92B22244190A264486F8733082F846
:1042A00073102A1D92B22244190C82F87310AA1DB1
:1042B0000535ADB2A4F870201B0E2C4484F8733081
:1042C00017E1012313706378DFF8E081002B00F021
:1042D000148138780121C0097B4A00F0F1FD3B7858
:1042E00060F386133B7098F8743133B1002388F87B
:1042F00074313B7843F020033B70D4F80880D4F845
:1043000068A04FEA182384F875304FEA184384F800
:1043100076304FEA186384F8748084F877303B78FD
:10432000DFF8B4C184F878304FEA1A2384F87A3081
:10433000664BDFF8A091187805935C4B9CF8002041
:1043400003F275114844CDF810C084F879A0FDF748
:1043500004FE059BDDF810C01A789CF8001011448B
:10436000C9B219705A4AEEB1E5B10F2922D81378B3
:1043700003B33B78C3F30300084460F303034B48E3
:104380003B7080F87830002398B2884206D24D48BE
:1043900019F80350184405720133F5E701F10800DC
:1043A000C0B208E031B1137823B14A4E84F87210DC
:1043B0004FF0000B0820002313701A468B4228D2BE
:1043C00019F80350033D052D20D8DFE805F01D1F27
:1043D000031B1D140133A718551CDBB24FF0050E4B
:1043E00087F875E1EDB219F8037002322544D2B2B4
:1043F00085F875710AE0551C0827224482F875710A
:10440000EAB203E0023300E00133DBB20133DBB296
:10441000D4E7314B1A7012B12D4B01221A7016B32A
:1044200094F87210214AF1B1451C1044EDB280F8A5
:1044300073B002F1730389B2BBF1000F08D12B44B2
:10444000CDF800B0CDF804A0029330460C3206E05F
:1044500000208DE8010430462B4402931C32434671
:10446000FEF700FB284694F8726007AB0644154837
:104470000025A0F167020293314643468DE82004EF
:10448000FEF760FB079BA219190A82F8733082F8C5
:104490007410301D190C1B0E82F8751082F87630DE
:1044A000A4F870002BE000BFF004002028060020D4
:1044B000BC040020A4060020B8040020AC060020A4
:1044C000C00400209B0600206D040020C6040020CC
:1044D000D7040020C8040020C70400204EB175B1E5
:1044E000ADB22A46084831460135FDF736FDA4F83D
:1044F0007050002004E0022002E0072000E028467F
:1045000009B0BDE8F08F00BF9C06002038B51D4AF9
:104510001D4C0123137053709370A4F88C3194F8E0
:1045200030201A4B1A491A7094F8312000250D706A
:104530005A70184994F851200D7083F8212004F125
:10454000540103F1240203C982E8030003F12C00A3
:104550000C2204F15C016570A566E566C4F884511F
:1045600084F8885184F8895184F88A51FDF7F5FC64
:10457000094B10221D70094B84F874511D70084BB3
:104580001A7038BD04010020280600206C040020A9
:10459000C6040020C7040020F0040020D704002037
:1045A000D80400203022B0FBF2F302FB13039BB2CD
:1045B00083B1C20610D01822B0FBF2F302FB130342
:1045C0009BB25BB103070BD010F0070F0CBF0420A8
:1045D000052006E0184604E0012002E0022000E089
:1045E000032040B270472DE9F04FB84A97B092F8D7
:1045F0008A319346FF2B00F0D68163B9C2F890311F
:1046000009E0002A40F0A1809BF831307370B38D2F
:1046100043F00703B3851021AD4E12A802F038FB1A
:1046200000221346B246B18D0120904000EA0104F9
:10463000844208BF013302F1010208BFDBB2102A35
:10464000F2D113B941F00701B185DBF89401DBF831
:10465000904101F07FFB84429C4D5ED80023C5F859
:1046600090319C4D4FF0FF342F4605F13C099BF8EB
:1046700001301BB1954B93F89831D3B16868D5F8E8
:10468000088001F067FB80459CBF0023AB60D5F834
:104690000880B8F1000F0DD0686801F05BFBC0EB3B
:1046A0000800A04206D26868AC6801F053FB241AE7
:1046B00000E0AB600C354D45D9D1B38D9BF801803E
:1046C0000B9300231A461D4696F801C0D9B20C91EF
:1046D0000B991941C90703D40133102BF6D124E0FB
:1046E0007D494FEAC30E51F833000028F4D0B8F1E9
:1046F000000F0DD0714408794FFA8CFE40F3030986
:10470000F145E9DC40F30310704580F25081E3E7A6
:1047100007201841C007DFD5ECE7D5F89401D5F89C
:10472000904101F017FB241A0FE0002D3FF469AF10
:10473000FDF71DFC90FBF5F303FB150016AB1844C9
:1047400010F8102C654B00241A709AF901309AF871
:1047500021100EAE591A5D4D21EAE171304649B281
:10476000DAF80420FEF7D0FB96E8070005F5CE73D3
:1047700083E8070030469AF92810DAF80420FEF79B
:10478000C3FB96E8070005F5D47383E807009BF8A0
:1047900001304F4F4BB9D5F8A421BB691344C5F87C
:1047A000B431D5F8B021FB6913E04D4B95F8720098
:1047B00097F901101A7800F0AFFB002800F0F5809F
:1047C000D5F8A4213B691344C5F8B431D5F8B0211C
:1047D0007B691344C5F8B831424F002C40F0D380B8
:1047E0003E4B9AF801101A783B4BDFF8088103EB37
:1047F000C20053F832303C4A0B934BB2D65C42793C
:10480000344B0C2000FB023393F902209AF900305C
:104810004FF001099342B8BF1346344A8BF8BF31B9
:10482000D25C0B9B88F801901846CBF8CC310C92E7
:104830008BF8BD918BF8BE11FCF79EFA9AF9013006
:10484000CDF83480072B214D9DF9308076B223D1ED
:10485000204695F8701001F06DFE304603F0F6FC2E
:104860000022234B02F00EFD02F046FF05230293C7
:1048700040F6B8338DE81100089320460394CDF834
:104880001090059406940794414646F2A8122346D8
:10489000FCF7C2FD204645E0062B484695F870100F
:1048A0002AD101F047FE0823029340F6B8338DE881
:1048B000400208930394CDF8109005940694079451
:1048C0004846414622464B4629E000BF28060020C4
:1048D0006C0400204800002084000020D804002040
:1048E000C6040020A4040020608600086886000832
:1048F00000408F40A804002001F01CFE0823029312
:1049000040F6B833484608934146224623468DE890
:1049100040020394CDF81090059406940794FCF798
:104920007BFD484695F87010FCF77EFCC5F8D00179
:10493000DBF8D0210D9B284C5A60CBF8C4219AF9A2
:1049400001300B99009225489DF9302002F0FEFAC3
:104950002046FDF7F1FC4FF47A7320462360636034
:10496000FDF760FD9BF801301BB91D4A1378013338
:1049700013701C489BF87010FCF78AFB3B6843F0EF
:1049800001033B600DE03B68174843F010033B60B8
:10499000FDF7D2FC1448CBF8D441CBF8D841FDF751
:1049A00041FD002015E00A2013E0082011E04979BC
:1049B0000C2000FB0171896841B916A8691C0544E7
:1049C0009DF8300005F8100CCDB285E60132D2B268
:1049D00082E617B0BDE8F08FDC040020DE86000818
:1049E000C50400209B060020FC07002008B50C48E9
:1049F000FDF7A2FC0B4B1B783BB10B4B01221A704D
:104A00000A4A136823F004031360094B1B78022B36
:104A100001BF084A137843F01003137008BD00BFAC
:104A200010080020F0040020B1070020A40400209A
:104A300028060020B404002030B514464FF00002D0
:104A40000D460C4985B0097861F3C71204A901F835
:104A5000042D00932A462346FFF7B8FB38B9064ACF
:104A6000064B126858711871DA60FFF7BCFD05B08B
:104A700030BD00BF2A06002090060020E407002079
:104A80002DE9F04F06460C46994687B00192019BEE
:104A90009C4280F00482335D651C023BEDB2062B24
:104AA00000F2FD81DFE813F007001300D900F500E4
:104AB00036016E01C401A74B00225A70725DE51CDD
:104AC00002341A72E4B2325DEDB25A72DCE10DF1D9
:104AD0000C0A504600210C2203F0F8F800239E4FE8
:104AE000DA19928D2AF8032002330C2BF7D19B4B55
:104AF000715D1B7801F00F0009095FFA81FE651DE9
:104B0000FBB997F90130734503D197F9003083421F
:104B100017D0934A934912780B78C2F10F02D2B2A0
:104B2000013A93420BDA904A0320D054981C013387
:104B3000DBB208700021D1548C4B01221A70EDB207
:104B4000A2E1E31CA21C0434E4B2DBB216F8048038
:104B5000D2B216F803C0B35CC8F3021B18F00F08FA
:104B600043EA0C23EDB208BF4FF00108BBF1000F80
:104B700000D16BB30BF1FF32042A29D9BBF1070F27
:104B800026D000220724BBF1060F0ED1DFF8E0C1CA
:104B90005CF832C0BCF1000F14D04FF0010C0CFADD
:104BA00002FC4CEA03039BB20CE043FA02FC1CF04B
:104BB000010F07D0DFF8B8C15CF832C0BCF1000FBC
:104BC00008BF06240132102ADDD1ADF80C3000E018
:104BD000062407291AD8BDF80CB000234BFA03F2BB
:104BE000D20703D40133102BF8D10FE0604A4FFAFB
:104BF0008EFC02EBC302127942F3031142F303026B
:104C00006245EFDC49B28C45ECDC01E004F0FD04C8
:104C1000052800F33B8104F00703072B09D1387006
:104C2000514654480C2287F801E0FDF796F987F8C1
:104C300020804B4A4B4912780B78C2F10F02D2B256
:104C4000013A934280F22081474A0320D054981CB5
:104C50000133DBB20870D454E6E0735D464A0121AB
:104C6000137001FA03F2454B3E481A803C4B027820
:104C70001B780234C3F10F03DBB29A42E4B280F036
:104C8000028153180370384B04209854374B197025
:104C9000F9E0A31CDBB2F15C775DE31C651D043415
:104CA000E4B2325DDBB2F35C120442EA03230B434D
:104CB000642202FB03F42046FDF72AFDC7F3021825
:104CC000002807F00F0714BF07210621072FEDB2B8
:104CD00000F3DF80B8F1050F00F3DE80072901BF84
:104CE0001D4B83F828705C6283F821801C4A1D48A4
:104CF00012780378C2F10F02D2B2013A934280F2E5
:104D0000C380194A0524D4549C1C0133DBB20470BF
:104D1000D15489E01A4B5B691BB11B680BB19847F2
:104D200000E0FF200E4A0F4C12782378C2F10F02E8
:104D3000D2B2023A934280F2A7800B4A0621D154A4
:104D4000591CC9B25054D91C0233DBB2217002F88D
:104D5000039069E0A80400206C0400202A060020CB
:104D6000C7040020C6040020C8040020D704002087
:104D70008400002098040020B2070020B40700201F
:104D800010080020E31C221DDBB2D2B2F15CB35C40
:104D9000A21CD2B2B25C705D1B04A51D053443EAAF
:104DA0000123E4B213436421325D3E4C4B438DF842
:104DB00010202268EDB242F02002226009D142B2F6
:104DC000022A1BDDFFF76CF800280CBF0323002329
:104DD00014E006AA42F80C3D06CAFFF787F8062839
:104DE00009D8DFE800F00A080808040608000223D2
:104DF00004E0012302E0002300E003232A492268A3
:104E000009782A4822F02002C1F10F012260C9B2BC
:104E1000027801398A4237DA254907248C54941CD8
:104E20000132D2B204708B54224B01221A702BE053
:104E3000705D214D10F00F0008BF012003F006FA4D
:104E400000221E4B02F01EFA02F056FC286103F00D
:104E5000EDF90022194B03F0ADF802F04DFC124BB6
:104E600012491B780A78C3F10F03DBB202349A426D
:104E7000E4B2686107D2531C0B700D4B08219954A2
:104E80000C4B01221A7025462C4600E604F0FB0468
:104E9000C1E601F0FD011DE701F0FB0126E707B0C7
:104EA000BDE8F08FA4040020C7040020C604002041
:104EB000C8040020D70400206C04002000408F406C
:104EC00030B5134C637800B3124813B90360184629
:104ED0001BE0056800203F2D17D95F2D207011D9E8
:104EE00005F01F0001280DD15DB2002D0DDD013B45
:104EF000DDB2EBB24DB939B1A38D43F00703A38501
:104F00002B4602E0012000E00B46137030BD00BFCD
:104F10006C040020AC070020074B10B51C78074B31
:104F20000CB15B5C01E019440B7A104498428CBFD1
:104F30000020012010BD00BF550600200887000892
:104F40002DE9F04798462E4B8AB082460D46914691
:104F50005F5CFBF7C9FE9DF84860044600284BD112
:104F60005046FBF709FF274B072D1D771BD138460D
:104F700003F06CF90022244B02F084F902F0BCFB30
:104F8000224905238DE80A0001230246CDF8088056
:104F90000394049405930694079408940996204674
:104FA0004CF250310FE0009403940494059406945D
:104FB00007940124204649463A4608230193CDF838
:104FC0000880089409962346FCF7D8FB104B20462E
:104FD0001A78104B0AB1595D01E01D44297A0D3150
:104FE000C9B201F0A7FA16B90B4BD86800E000204F
:104FF000FBF714FF012000E000200AB0BDE8F087B5
:10500000608600081008002000408F4085450100A0
:1050100055060020088700086C040020034A137816
:10502000013BDBB2137003B962B670474008002041
:1050300072B6024A1378013313707047400800209B
:105040002DE980489DB0FBF7A7F800229046A74BBA
:105050005A70A64C6378042B00F2F982DFE813F053
:1050600005009801DB01D402E102A14B12AA1293C0
:10507000A04B41F2707113939F4B41F2883014930F
:105080009E4B002403939E4B4FF001091A609D4BE9
:1050900003AA1A6040F6B8329B4BDFF8F0B21C70DE
:1050A0009A4B4FF0060C1C70994B4FF47A771C60AA
:1050B000984B4FF00A0A1C70974B4FF4FA6583F82F
:1050C0000090964B964E1C70964BCDF804C01C6019
:1050D000954B86F800901C60944BC3F824B04FF0B9
:1050E000070B83F808C0D961DA609861C3F804A09F
:1050F0001F615D61A3F82CB083F800905C7083F8A9
:10510000209083F8214083F82840894B83F808C019
:10511000DA60C3F804A01F615D61864DD9619861B2
:1051200083F82090FFF7F2F9834B2846EB602C6060
:105130006C602C722C61FDF7FFF8804B804A1C607C
:10514000DA605C601C721C617E4A7F4B2046DA602C
:105150001C605C601C721C617C4A7D4B2F60DA60B5
:105160001C607C4A5C601C721C617B4B6F60DA6067
:105170001C605C601C721C6100F01CFD774B5B4D79
:105180001860774B281D6B60764B1927EB60764BC8
:105190006B61764BAB60764B2B61FCF7FFFCFCF749
:1051A00075FC744B1860744B484683F8009001F00E
:1051B000AFF9FBF71DFE714B05F13400EB62704B4C
:1051C0002C622B646C6285F828402C636C63AC63A2
:1051D00085F83C406C64FDF7AFF86A4A05F1480079
:1051E0006A656F63AF63AC64EC6485F85040AC658E
:1051F000FDF7A2F8AF64EF6415A802278DF854708C
:105200008DF85890FEF70CFF15A88DF854B08DF866
:105210005890FEF705FF86F800905B4E04AA96E8CA
:10522000030082E80300032006CAFEF75FFE06AA19
:1052300006F1080103C982E80300042006CAFEF74C
:1052400055FE08AA06F1100103C982E803000520F3
:1052500006CAFEF74BFE0AAA06F1180103C982E846
:105260000300DDF804C006CA6046FEF73FFE0CAA44
:1052700006F1200103C982E80300584606CAFEF77A
:1052800035FE0EAA06F1280103C982E803000820B2
:1052900006CAFEF72BFE10AA06F1300103C982E808
:1052A00003000DF1580B06CA38360920FEF71EFE22
:1052B00096E803000B228BE8030015A88DF8542014
:1052C000FEF7AEFE96E803008BE8030015A88DF804
:1052D00054A0FEF7A5FE15A88DF854408DF858701F
:1052E000FEF79EFE85F80190B3E600BF400800205F
:1052F000DD260008B9240008711C0008D16E0008E2
:105300002005002024080020B404002028060020E6
:10531000A4040020C5040020C40400205506002079
:10532000C0070020BC070020B80700205806002056
:105330006C040020DC040020F5330008FC0700208A
:1053400079330008293300080C0500205132000889
:10535000F4040020ED490008100800202406002075
:10536000C53C00084137000881360008ED320008CE
:10537000993200080801002054060020F523000897
:10538000D9230008BD2300081887000808E6D33396
:10539000E36DB3B9AF4B1A68043B1B685A40AE4B80
:1053A0001B685340AD4A1360FCF7E1FD30F0FC4050
:1053B00044BF00F1FF3040F07E40A94B48BF0130B0
:1053C000D86503238DF8543015A800231693FEF7F3
:1053D00027FE04238DF85430E36DA24D15A81693D3
:1053E000FEF71EFE052315A88DF854301695FEF71E
:1053F00017FE1035062315A88DF854301695FEF7C4
:105400000FFE012315A88DF854308DF85830FEF7A3
:1054100007FE02231CE1DFF8449299F82430002BA8
:1054200000F0DB8099F82560022E02D0E02E27D014
:1054300050E001F04DFD94F8A03084F8670084F846
:105440006030002384F8613084F8623084F863307F
:1054500084F8643084F8653084F8663084F8683005
:1054600084F86A3084F86B3084F86C3084F86D30DE
:10547000FF2384F8698084F86E3084F86F3029E067
:1054800094F8B220764B8AB1002283F8B22003222E
:1054900089F82620052283F8602093F8B32083F84A
:1054A000612093F8B42083F8622005E093F8A520EA
:1054B000012A05D0042A0DD1012283F8A52009E094
:1054C000022289F82620B3F8B020110A83F8601070
:1054D00083F86120644B1CAA5B78DFF8C8B102F83E
:1054E000103D624B9BF8000093F800A0604B002138
:1054F0001B7899F826509A44FFF7E2FC5D4B5FFA5F
:105500008AFA1A789DF960300AB15B4A00E05B4A7A
:10551000D35C534517D39DF9607028463946002265
:10552000FFF7FAFC78B1284639465246FFF7F4FCFB
:1055300048B194F8B820524BADB242B98DF86460CE
:105540001A93174607E000251A952F4603E08DF8B9
:1055500064601A9301274B4B1E6816F0110636D172
:10556000DFF844A1142150468DF8086001F090FB4B
:1055700001218F428AF8011008BF4349434A08BFFE
:105580000F709DF808300BBF0821117011700222B6
:1055900008BF042262F347138DF808309BF80030EF
:1055A0009DF864101A9A0BB9394B5E7002A82B460D
:1055B000FFF742FA38B9374A8AF80070137843F097
:1055C0000103137004E0344B00221A7000E0012044
:1055D000003018BF012089F8240094F8A430204D31
:1055E00023B141F28833C5F8BC300BE0FCF7BFFCB7
:1055F00040F2D17390FBF3F202FB130000F57A60E6
:10560000C5F8BC00032323E0D4F8BC50042323488E
:105610006370FCF791FE214825626562FCF702FF8A
:1056200017E51F4B1B68002B3FF413AD1B7A002BB3
:105630003FF40FAD94F8C030094A042B97BF92F89D
:10564000C03000230133DBB282F8C03001E5002313
:105650006370FEE45400F81F6400F81F0801002086
:10566000400800200C01002058060020C70400203C
:10567000C60400205506002008870008108700088F
:10568000A0080020A404002005010020040100203F
:105690006C040020B4040020F00400206008002006
:1056A000280900202A060020E4070020000000004E
:1056B00010B513780C78634003704C7853786340CE
:1056C00043708C78937863408370CC78D378634050
:1056D000C3700C791379634003714C79537963403B
:1056E00043718C79937963408371CC79D37963402A
:1056F000C3710C7A137A634003724C7A537A634015
:1057000043728C7A937A63408372CC7AD37A634003
:10571000C3720C7B137B634003734C7B537B6340EE
:1057200043738C7B937B63408373C97BD37B4B40F8
:10573000C37310BD2DE9F04FABB0259192F8F01076
:1057400003461446002900F0DA8126A81946FFF71F
:10575000AFFF012294F8F0309DF8986093429DF8D5
:105760009D309DF8A2700093B94B40F27581D95DD0
:1057700000980191B7499DF8A750085C01EB070814
:105780000D9098F800019DF8A1A00E90009813F8D4
:1057900005C0185C9DF8A6900290C85D4F190F9047
:1057A00097F800018F19109097F8000101EB0A0794
:1057B0001190485D9DF89C5097F8007111F8058094
:1057C000129088EA0700139013F809009DF89B8057
:1057D0000390585D13F8087013F806E0049011F870
:1057E0000A0001EB090B14909BF800010D44159081
:1057F00013F80A009DF8A5A0059011F8090001EB27
:105800000809169099F80001179095F800019DF885
:10581000A050189011F8080001EB0A0811F8059043
:1058200098F80081199089EA08009DF89A909DF8EF
:105830009F801A9013F8090001EB090B069013F8EA
:1058400008000790585D0D44089011F80A001B905D
:105850009BF800011C9013F80A00099011F8090048
:1058600001EB08091D9099F800019DF899A01E9080
:1058700095F800019DF8A4501F9011F8080001EB65
:105880000A0811F8059098F80081209089EA08002C
:105890009DF89E909DF8A380219013F8090001EBDC
:1058A000090B0A9013F808000B90585D0D440C90FA
:1058B00011F80A0013F80A3022909BF8000111F841
:1058C00008A0239011F8090001EB08092490009822
:1058D00095F800B1084499F8009190F80001895DAD
:1058E0004FEA02184840019904EB0805484014F8B3
:1058F00008108CEA0000484069788CEA0E0C8CEAAB
:10590000010C0D998DF8980081EA0C0C0E99029803
:1059100081EA0C0C02998DF899C08EEA010EA978E3
:1059200001328EEA010E0F99D2B281EA0E0E109961
:1059300081EA0E0E01998DF89AE04840E9784140DD
:1059400011984140129841408DF89B101398297985
:1059500041400398414079408DF89C100499059886
:105960004F4069794F4014994F4015994F40049921
:105970008DF89D704840A97941401698414017988C
:1059800041408DF89E100399059895F8088048408D
:10599000E979414018984140199841408DF89F108D
:1059A0001A99089881EA0808069981EA080807996F
:1059B00081EA08084840697A8DF8A08041401B9828
:1059C00095F80C8041401C9841408DF8A110099831
:1059D00008994840A97A41401D9841401E9841408D
:1059E0008DF8A210099806994840E97A41401F981D
:1059F0004140209841408DF8A310219981EA080880
:105A00000A9981EA08080B9981EA08088DF8A480B0
:105A10000C984840697B414022984140239841407E
:105A20008DF8A5100C9981EA0300A97B41402498C8
:105A3000414089EA01090A998DF8A6904B40E97B1B
:105A40004B408BEA030B8AEA0B0A8DF8A7A081E68C
:105A50003885000858870008995D00988DF89810DF
:105A60009DF89C10185C595C04EB02128DF89C1098
:105A70009DF8A010595C8DF8A0109DF8A410595CF9
:105A80008DF8A4109DF899108DF899009DF8A1004B
:105A9000595C185C8DF89D009DF8A5008DF8A51047
:105AA000185C9DF89A108DF8A100595CD85D8DF8AE
:105AB000A2108DF89A009DF89E109DF8A600595CE2
:105AC000185C8DF89E008DF8A6109DF8A3009DF837
:105AD000A710185C8DF8A7009DF89F00185C8DF842
